:020000040800F2
:10000000080E002021030008ED340008B134000878
:10001000E9340008C1070008D93F0008330300088D
:10002000000000000000000000000000CD360008C5
:10003000C507000800000000F1340008D1360008B0
:100040003D0300083D0300083D0300083D03000890
:100050003D0300083D0300083D0300083D03000880
:100060003D0300083D0300083D0300083D03000870
:100070003D0300083D0300083D0300083D03000860
:100080003D0300083D0300083D0300083D03000850
:100090003D0300083D0300083D0300083D03000840
:1000A000C90700083D0300083D0300083D030008A0
:1000B0003D0300083D0300083D0300083D03000820
:1000C0003D0300083D0300083D0300083D03000810
:1000D0003D0300083D0300083D0300083D03000800
:1000E0003D0300083D0300083D0300083D030008F0
:1000F0003D0300083D0300083D0300083D030008E0
:100100003D0300083D0300083D0300083D030008CF
:100110003D0300083D0300083D0300083D030008BF
:100120003D0300083D0300083D0300083D030008AF
:100130003D0300083D0300083D0300083D0300089F
:100140003D0300083D0300083D0300083D0300088F
:100150003D0300083D0300083D0300083D0300087F
:100160000000000000000000693F00083D03000897
:100170003D0300083D0300083D0300083D0300085F
:100180003D0300083D0300083D0300080000000097
:10019000000000003D030008000000000000000017
:1001A00000000000000000003D0300083D030008BF
:1001B0003D0300083D0300083D0300083D0300081F
:1001C0003D0300083D03000800000000000000009F
:1001D0000000000000000000000000003D030008D7
:1001E0003D0300083D03000800000000000000007F
:1001F0003D0300083D0300083D0300080000000027
:10020000000000003D0300083D0300083D03000816
:100210003D0300083D0300083D0300083D030008BE
:100220003D03000800000000000000003D0300083E
:100230003D03000800000000000000000000000076
:100240000000000000000000000000003D03000866
:100250003D03000800F002F800F052F814A696E8FA
:10026000000CB244B344DA4501D100F049F8BAE8D1
:100270000F000FA696E83000A5EB040504EB060777
:10028000AAEB0704A7F101074FEA15154FEA34144A
:10029000A4F10104AC4201D300F032F813F0010FD5
:1002A00018BFFB1A43F0010300F001F8DBE7184721
:1002B0006C7F00008C7F0000103A24BF78C878C1A2
:1002C000FAD8520724BF30C830C144BF04680C605C
:1002D000704700007047000000230024002500261E
:1002E000103A28BF78C1FBD8520728BF30C148BF99
:1002F0000B6070471FB507F005FF1FBD10B510BD9F
:1003000000F049F91146FFF7F5FF05F093F800F00A
:1003100067F903B4FFF7F2FF03BC00F06FF90000C8
:100320000A4880470A480047FEE7FEE7FEE7FEE787
:10033000FEE7FEE7FEE7FEE7FEE7FEE7FEE700007A
:1003400004480549054A064B70470000D5360008A9
:100350005502000808080020080E0020080A0020A6
:10036000080A002053EA020C00F069802DE9F04BE6
:100370004FF00006002B1FBFB3FA83F503FA05F414
:1003800024FA05F65E4012BF1643B2FA82F502FA6D
:1003900005F4C5F120051EBF22FA05FC44EA0C0451
:1003A000203556EA044C4FEA144418BF641C4FF041
:1003B00000084FF00009904271EB030C39D300297B
:1003C00019BFB1FA81F701FA07F6B0FA80F700FA1F
:1003D00007F6C7F120071EBF20FA07FC46EA0C0605
:1003E0002037B6FBF4FCA7EB0507103F07F01F0B07
:1003F000CBF120062CFA06F60CFA0BFB44BFB346F1
:100400000026202FA4BF5E464FF0000B5BEA060CCF
:1004100008BF4FF0010B19EB0B0948EB0608ABFBCB
:10042000027C06FB02CC0BFB03CCC01B71EB0C0166
:10043000C1E70B46024641464846BDE8F08B13B57E
:10044000084318BF4FF0FF300146AFF30080BDE80E
:100450001C407047032A40F2308010F0030C00F07B
:10046000158011F8013BBCF1020F624498BF11F8EE
:1004700001CB00F8013B38BF11F8013BA2F10402A7
:1004800098BF00F801CB38BF00F8013B11F003031F
:1004900000F04F80083AC0F0088051F8043B083A59
:1004A00051F804CBA0E80810F5E7121D5CBF51F825
:1004B000043B40F8043BAFF30080D20724BF11F89F
:1004C000013B11F801CB48BF11F8012B24BF00F804
:1004D000013B00F801CB48BF00F8012B70474FF0FB
:1004E000000200B5134694469646203922BFA0E884
:1004F0000C50A0E80C50B1F12001BFF4F7AF090790
:1005000028BFA0E80C5048BF0CC05DF804EB890080
:1005100028BF40F8042B08BF704748BF20F8022BC3
:1005200011F0804F18BF00F8012B704770477047DB
:10053000704710B5203AC0F00B80B1E81850A0E821
:100540001850B1E81850A0E81850203ABFF4F5AFA1
:100550005FEA027C24BFB1E81850A0E8185044BFFD
:1005600018C918C0BDE810405FEA827C24BF51F86A
:10057000043B40F8043B08BF7047D20728BF31F85E
:10058000023B48BF11F8012B28BF20F8023B48BFAF
:1005900000F8012B7047754600F02CF8AE460500B8
:1005A0006946534620F00700854618B020B5FFF78E
:1005B000C7FEBDE820404FF000064FF000074FF0A7
:1005C00000084FF0000BAC46ACE8C009ACE8C0092D
:1005D000ACE8C009ACE8C00921F007018D467047BE
:1005E00010B50446AFF300802046BDE81040FFF789
:1005F00090BE0000004870473800002001491820D4
:10060000ABBEFEE7260002007047000000281CBFBA
:100610006FF0010070472DE9F04186B040F68C4044
:10062000C4F202400268002442F001020260026843
:10063000C4F2022402F001020192019A026801ADA3
:1006400042F0010202600268022702F001020192F8
:10065000019A02694FF0070842F400320261006912
:100660000E4600F400300190019804200190012012
:1006700003902046294602970497CDF8148000F095
:10068000EDF80820CDE9010720462946CDF8148071
:1006900000F0E4F840F27830C2F20000314602F097
:1006A00009FF002818BF6FF0030006B0BDE8F08115
:1006B000B0B586B020B16FF00104204606B0B0BDE1
:1006C00040F68C40C4F202400168002541F001016F
:1006D00001600068C4F2022500F001000190019859
:1006E000202001900120029003200024049001A901
:1006F0002846039400F0B2F828462021002200F09A
:1007000077F9204606B0B0BD7047000000EB40000E
:1007100040F20C41C2F2000101EB800000F062B82F
:1007200010B586B040F68C42C4F20242136804460B
:1007300043F004031360126802F004000190019872
:100740004FF40050019040F600004FF00202C4F256
:1007500002200392049239B30021C1F211010291E7
:1007600001A900F07BF804EB440040F20C41C2F216
:10077000000101EB80040D21C0F20061204600F071
:100780002BF840F2B9722046C0F60002002100F0BA
:1007900053F818200F21002200F0DCF9182000F097
:1007A000C7F9002006B010BD0021029101A900F098
:1007B00055F8002006B010BD0020FFF7A5BF0000CF
:1007C000FEE70000704700000020FFF79FBF000019
:1007D00072B600BFFEE7000000280EBF01200160D6
:1007E00000207047F0B581B004460068082202EA94
:1007F000503542F20C07C4F2024700F01F010120FD
:1008000057F8252000FA01F6164205D047F8256072
:100810006068002818BF8047381D50F82510314205
:1008200008D040F82560A06820B101B0BDE8F040D4
:10083000004700BF01B0F0BD022906D0012909D050
:1008400000291CBF0120704742600821425000204F
:10085000704700BF04214250002070470A68002AF8
:1008600008BF70472DE9F04F83B000F120030193DA
:1008700047F67F73C0F22F0303EA90234FF0000A7C
:100880004FF0010B00274FF0000C002500930BE008
:100890000A68013532FA05F30CF1040C07F102077E
:1008A0000AF1080A00F09A800BFA05F912EA090227
:1008B000EED0D1F80480029248F01006122E1BD11F
:1008C0006FF0030202EA5506DDF804B00CF01C02DA
:1008D0005BF80640D1F810800F2303FA02FE08F0FF
:1008E0000F0324EA0E0403FA02F222434BF8062017
:1008F000D1F804804FF0010B02680323BB4008F0DD
:10090000030EDC439A430EFA07F31A43B8F1120FB1
:1009100002605BD80BFA08F212F0061F56D083680B
:10092000D1E902262340BE403343836043684FEA47
:10093000181623EA0903AE4033434360C368BA4044
:1009400023401A43C260029C5FEAC802A0D542F26B
:10095000000E25F00302C4F2024E7244D2F8608009
:100960000AF018060F23B34028EA0308009B03FA95
:1009700006F648EA06031366DEF800804B6848EA8C
:100980000406DA0258BF28EA0406CEF80060DEF852
:1009900004809A0248EA040658BF28EA0406CEF802
:1009A0000460DEF884809A0348EA040658BF28EA07
:1009B0000406CEF88460DEF88020DB0342EA0406F9
:1009C00058BF22EA0406CEF8806061E78A68BEF16B
:1009D000030F08BF012AB1D1B5E700BF03B0BDE8DE
:1009E000F04F70470069084018BF012070470000B1
:1009F0001823002A08BF2823C150704740F2007016
:100A0000C2F200000068704740F20041C4F20301E6
:100A1000086840F0010200200A60704740F20C00B4
:100A200040F20071C2F20000C2F2000100780A68D0
:100A3000104408607047000080B5032000F0B6F84D
:100A400002F0E0F840F62041C4F20241096848F2A1
:100A5000201201F00F01C0F60002515CC84040F2C4
:100A60003001C2F200010860042002F083FC0F2074
:100A700000F008F800281CBF012080BD00F056F8E7
:100A8000002080BDB0B540F20C05C2F20005297807
:100A9000E1B304464EF21000CEF2000000684007B9
:100AA00010D402F0B5FC022824D001281AD078BB5B
:100AB00040F23000C2F20000006829784FF4FA5288
:100AC00007E000BF40F23000C2F2000000684FF4BF
:100AD0007A72B2FBF1F1B0FBF1F002F087FCA8B939
:100AE0001BE000BF28784FF47A71B1FBF0F04FF4AF
:100AF000FA4106E028784FF47A71B1FBF0F04FF438
:100B00000041B1FBF0F002F071FC30B10120B0BD4A
:100B1000002002F06BFC0028F8D14FF0FF30214696
:100B2000002200F017F800206C60B0BD7047000094
:100B3000002848BF704700F01F010122C0F34A108F
:100B400002FA01F14EF20012CEF2000242F8201039
:100B50007047000010B54EF60C5CCEF2000CDCF8CD
:100B60000030C3F3022E8EF00704042C28BF0424A7
:100B7000BEF103034FF0FF3E38BF00230EFA04F42A
:100B8000A14399400EFA03F39A43114300F00F0278
:100B900000F160430901043A03F56443624400280C
:100BA00048BF02F10C03197010BD00004EF60C5145
:100BB000CEF200010A684FF6FF031A4060F30A22E2
:100BC00042F0806040F0FD700860704701220168CB
:100BD000C0F8D822002280F8CC22486D40F00100F5
:100BE0004865486D40F0020200204A6570470000E9
:100BF000002804BF01207047F0B581B0044690F88A
:100C0000950228B9002084F89402204600F01CF9CF
:100C1000032084F89502206803F0C2F994E80F00DD
:100C2000267C009603F090F9002840F0F4802068BC
:100C3000002103F0BFF9002840F0ED8094F804E0B3
:100C4000BEF1000F00F0E0800EF0030CBEF1040FC7
:100C50004FF0000238D30EF0FC03A4F1A0000321F2
:100C6000012500BFCE1E80F8B4608E1E80F8DC60C7
:100C70004E1E80F8046180F82C110E1D013180F8A1
:100C8000B55080F8B720C0E93122C0F8CC2080F8F8
:100C9000DD5080F8DF20C0E93B22C0F8F42080F866
:100CA000055180F80721C0E94522C0F81C2180F8D1
:100CB0002D5180F82F21C0E94F22C0F84421A030E7
:100CC00099423146CED1F21EBCF1000F2ED002EB7C
:100CD000820104F1140000EBC105012300F831206A
:100CE0000021BCF1010F6B70E970C5E90411A96125
:100CF0001CD0551C05EB8506BCF1020F00EBC607A6
:100D000000F836507B70F970C7E90411B9610DD055
:100D1000911C01EB8102012500EBC20300F83210A7
:100D200000205D70D870C3E904009861BEF1000F27
:100D30006AD0BEF1040F4FF0000235D30EF0FC0074
:100D400003212346CF1E83F854718F1E83F87C71D4
:100D50004F1E83F8CC110D1D013183F8552183F806
:100D60005721C3E95922C3F86C2183F87D2183F808
:100D70007F21C3E96322C3F8942183F8A52183F876
:100D8000A47183F8A721C3E96D22C3F8BC2183F8BD
:100D9000CD2183F8CF21C3E97722C3F8E421A03322
:100DA00081422946CED1EA1EBCF1000F2CD002EBC5
:100DB000820304F5AA7000EBC3070021BCF1010F08
:100DC000797000F83320F970C7E90411B9611BD0BC
:100DD000531C03EB8307BCF1020F00EBC70600F8BE
:100DE00037307170F170C6E90411B1610CD0911CFB
:100DF00001EB8102002700EBC20300F832105F70A4
:100E0000DF70C3E904779F6194E80F00277C0097A7
:100E100003F0B6F830B1022084F89502012001B049
:100E2000F0BD00BF00206074012084F89502207B93
:100E3000012804BF2046FFF7C9FE206803F098F898
:100E4000002001B0F0BD000010B5B6B0044602A805
:100E50000830C821FFF743FB206846F20001C4F2C6
:100E60000101884202D036B010BD00BF10200390AF
:100E7000002002903020339002A800F0EBFF002801
:100E800018BFFFF7A5FC00F00FF840F6A440C4F22D
:100E90000240016841F080710160006800F08070DC
:100EA0000190019836B010BD40F63800C4F20240FF
:100EB000016841F0007101607047000010B540F614
:100EC000284CC4F2024CDCF80C20DCF800E0DCF822
:100ED0000010C1F30523DCF80010DCF81040002BF3
:100EE0003CD0E408C90604EAE1716FF35F3100EE1B
:100EF000101A0EF003016FF35F22B8EE400ADFE82C
:100F000001F00303333900BF5CF8281C49F20004E8
:100F1000C1F3C101C0F2D03424FA01F101EE101A7C
:100F200002EE103AB8EE411AB8EE422A9FED493A65
:100F300081EE021A02EE102A20EE030AB8EE422ACF
:100F400030EE020AB7EE002A30EE020A20EE010A65
:100F50005CF8281C89012DD528E000BF0021C0E9DC
:100F60000011816010BD00BF01EE103A9FED3B2AD9
:100F700004E000BF01EE103A9FED372AB8EE411AA7
:100F800082EE011A02EE102A9FED323AB8EE422AA2
:100F900020EE030A30EE020AB7EE002A30EE020A13
:100FA00021EE000A5CF8281C890103D5DCF800104A
:100FB000C90307D4002101605CF8281C890115D4FD
:100FC00018E000BFDCF80C10C1F34621013101EE3E
:100FD000101AB8EE411A80EE011ABCEEC11A11EED9
:100FE000101A01605CF8281C890103D5DCF8001098
:100FF000890301D400210EE0DCF80C10C1F3064196
:10100000013101EE101AB8EE411A80EE011ABCEE61
:10101000C11A11EE101A41605CF8281C890144BF06
:10102000DCF800105FEA413102D40021816010BD7C
:10103000DCF80C10C1F30661013101EE101AB8EEB4
:10104000411A80EE010ABCEEC00A10EE101A81604F
:1010500010BD00BF0000003920BCBE4B0024744A04
:1010600010B540F62C4CC4F2024CDCF81020DCF831
:1010700000E0DCF80010C1F30523DCF80010DCF818
:101080001440002B3CD0E408C90604EAE1716FF378
:101090005F3100EE101A0EF003016FF35F22B8EE1D
:1010A000400ADFE801F00303333900BF5CF82C1C71
:1010B00049F20004C1F3C101C0F2D03424FA01F1B5
:1010C00001EE101A02EE103AB8EE411AB8EE422ABA
:1010D0009FED493A81EE021A02EE102A20EE030A31
:1010E000B8EE422A30EE020AB7EE002A30EE020ACB
:1010F00020EE010A5CF82C1C09012DD528E000BF68
:101100000021C0E90011816010BD00BF01EE103A5E
:101110009FED3B2A04E000BF01EE103A9FED372A15
:10112000B8EE411A82EE011A02EE102A9FED323A11
:10113000B8EE422A20EE030A30EE020AB7EE002A89
:1011400030EE020A21EE000A5CF82C1C090103D5DE
:10115000DCF80010C90307D4002101605CF82C1CE6
:10116000090115D418E000BFDCF81010C1F34621C6
:10117000013101EE101AB8EE411A80EE011ABCEEF0
:10118000C11A11EE101A01605CF82C1C090103D57C
:10119000DCF80010890301D400210EE0DCF8101007
:1011A000C1F30641013101EE101AB8EE411A80EE8A
:1011B000011ABCEEC11A11EE101A41605CF82C1C29
:1011C000090144BFDCF800105FEA413102D400217C
:1011D000816010BDDCF81010C1F30661013101EE31
:1011E000101AB8EE411A80EE010ABCEEC00A10EEE9
:1011F000101A816010BD00BF0000003920BCBE4B3A
:101200000024744A10B540F6304CC4F2024CDCF8AD
:101210001420DCF800E0DCF80010C1F30523DCF852
:101220000010DCF81840002B3CD0E408C90604EAA2
:10123000E1716FF35F3100EE101A0EF003016FF3EE
:101240005F22B8EE400ADFE801F00303333900BF44
:101250005CF8301C49F20004C1F3C101C0F2D03483
:1012600024FA01F101EE101A02EE103AB8EE411A1A
:10127000B8EE422A9FED493A81EE021A02EE102A98
:1012800020EE030AB8EE422A30EE020AB7EE002A38
:1012900030EE020A20EE010A5CF8301C89002DD5E0
:1012A00028E000BF0021C0E90011816010BD00BF2F
:1012B00001EE103A9FED3B2A04E000BF01EE103A28
:1012C0009FED372AB8EE411A82EE011A02EE102A7B
:1012D0009FED323AB8EE422A20EE030A30EE020ABF
:1012E000B7EE002A30EE020A21EE000A5CF8301C4C
:1012F000890003D5DCF80010C90307D40021016080
:101300005CF8301C890015D418E000BFDCF814101C
:10131000C1F34621013101EE101AB8EE411A80EEF8
:10132000011ABCEEC11A11EE101A01605CF8301CF3
:10133000890003D5DCF80010890301D400210EE0F8
:10134000DCF81410C1F30641013101EE101AB8EEB9
:10135000411A80EE011ABCEEC11A11EE101A41605A
:101360005CF8301C890044BFDCF800105FEA4131B2
:1013700002D40021816010BDDCF81410C1F30661B5
:10138000013101EE101AB8EE411A80EE010ABCEEEE
:10139000C00A10EE101A816010BD00BF00000039B5
:1013A00020BCBE4B0024744A80B584B04FF6FF7356
:1013B0000246C0F23F0300209B1A70EB0103C0F20B
:1013C000618041F6FF739B1A70EB0103C0F29080BD
:1013D000B2F1010E61F1000CDEF11F034FF00003CA
:1013E00073EB0C03C0F0CE81DFE81EF02000A602F4
:1013F0009A03EA019A039A039A0346029A039A030C
:101400009A039A039A039A039A0376029A039A0319
:101410009A039A039A039A039A039A039A039A03E4
:101420009A039A039A039A039A03160240F600401D
:10143000C4F20240D0F8D81011F0070100F0008487
:101440000268012903D112F0006240F01D84026895
:10145000022903D112F0005240F0D38303680268DE
:10146000032903D113F0020340F0A984042903D116
:1014700012F4007240F0D584D0F8F000052900F095
:1014800063BC00BF6FF040439B1A70EB01036FDA3F
:10149000072940F3CD80B1F5007F80F2218181F0F2
:1014A0000803134300F0EC8281F01001114340F077
:1014B000378340F60040C4F20240D0F8E41001F057
:1014C0003001102900F0DA830268202903D112F0DC
:1014D000005240F09683006810F400501CBF46F69E
:1014E0000040C0F2DC20302918BF002018E300BF04
:1014F0004FF6FF739B1A4FF0000C7CEB010380F258
:10150000BB804FF6FF73C0F203039B1A7CEB010311
:10151000C0F2028182F480330B4300F0E58282F452
:101520000032114340F0FC8240F60040C4F2024019
:10153000D0F8DC10C1F30221052900F2AB83DFE80B
:1015400011F0390105037903CD03C303070000BF80
:10155000D0F8E810036802689B0701F0404102D50B
:10156000002900F02C84920500F1368400F037BC8D
:101570006FF078439B1A4FF000038B4124DB82F419
:1015800080030B4300F0568282F000730B4300F09F
:10159000F98182F08062114340F0C28240F600403F
:1015A000C4F20240D0F8E810026801F03001920461
:1015B00040F14C83002940F0498346F60040C0F2D8
:1015C000DC2004B080BD00BF82F000630B4300F05C
:1015D0003B8282F080530B4300F0068282F000527F
:1015E000114340F09D8240F60041C4F20241D1F81F
:1015F000E000C0F38212042A00F24C8348F200009B
:10160000C0F2BB00DFE812F03A03A20236028C02FD
:10161000060000BFD1F8E8200B6808689B0702F0BD
:10162000404240F10282002A00F0A083FDE100BFA9
:1016300082F080430B4300F0CB8281F0020313431E
:1016400000F08A8281F00401114340F0698240F683
:101650000040C4F20240D0F8E8100068800301F4B2
:10166000407040F10583002840F0028347F64000B7
:10167000C0F27D1004B080BD82F400530B4300F033
:10168000C78282F480430B4300F07E8282F40042E2
:10169000114340F0458240F60040C4F20240D0F8C9
:1016A000E41001F44011B1F5801F00F0C38200295D
:1016B00000F0808002680068B1F5001F03D112F0CD
:1016C000020240F0538310F400701CBF40F600107B
:1016D000C0F23D00B1F5401F18BF002004B080BD2E
:1016E00081F40073134300F0E78181F480511143CA
:1016F00040F0168240F60041C4F20241D1F8E40005
:1017000000F04060B0F1806F00F09482002851D06A
:101710000A68B0F1006FF9E182F480230B4300F016
:10172000018282F40012114340F0FA8140F6004039
:10173000C4F20240D0F8E81001F00701022900F0DD
:101740001D82012900F0DC82002900F0118202686C
:10175000032902D112F4003288D1026800680429FA
:1017600003D112F0020240F0018310F400701CBF9C
:1017700040F60010C0F23D00052918BF002004B05B
:1017800080BD00BF82F48052114340F0C98140F611
:101790000040C4F20240D0F8E01001F0E061B1F185
:1017A000007F00F02E82B1F1807F00F06D82002971
:1017B00040F0B88204B0BDE8804001F0FFB900BF3E
:1017C00040F60040C4F20240D0F8D81011F4E071A5
:1017D00000F02A820268402903D112F0006240F032
:1017E00053820268802903D112F0005240F009822E
:1017F00003680268C02903D113F0020340F0DF82BE
:10180000B1F5807F03D112F4007240F00A83D0F862
:10181000F000B1F5A07F97E240F60040C4F202402C
:10182000D0F8D81011F4603100F0FE810268B1F5F3
:10183000004F03D112F0006240F026820268B1F539
:10184000803F03D112F0005240F0DB810368026850
:10185000B1F5C03F03D113F0020340F0B082B1F5FF
:10186000003F03D112F4007240F0DB82D0F8F000A8
:10187000B1F5203F68E200BF40F60040C4F20240EC
:10188000D0F8D81011F4606100F0CE810268B1F593
:10189000007F03D112F0006240F0F6810268B1F5DA
:1018A000806F03D112F0005240F0AB8103680268F0
:1018B000B1F5C06F03D113F0020340F08082B1F59F
:1018C000006F03D112F4007240F0AB82D0F8F00048
:1018D000B1F5206F38E200BF40F60040C4F202408C
:1018E000D0F8D81011F4E04100F09E810268B1F503
:1018F000805F03D112F0006240F0C6810268B1F54A
:10190000005F03D112F0005240F07B81036802684F
:10191000B1F5405F03D113F0020340F05082B1F5FE
:10192000804F03D112F4007240F07B82D0F8F000B7
:10193000B1F5A04F08E200BF40F60040C4F20240FB
:10194000D0F8D81011F0380100F06E810268082933
:1019500003D112F0006240F09781102900F051810C
:1019600003680268182903D113F0020340F02782AC
:10197000202903D112F4007240F05382D0F8F00015
:101980002829E1E140F60041C4F20241D1F8F0001B
:10199000D1F8F020920700F4407203D5B2F5807FB1
:1019A00000F06181D1F8F000000103D5B2F5007FAD
:1019B00000F07D80086880034FF0000040F1B080A7
:1019C000B2F5407F40F0AC80C86910F4785F00F059
:1019D0006181C86947F64001C0F30520C0F27D115E
:1019E000B1FBF0F004B080BD40F60041C4F202410A
:1019F000D1F8E000C0F3C202042A00F24B8148F2A1
:101A00000000C0F2BB00DFE812F03901A100350090
:101A10008B000500D1F8E8200B6808689B0702F0EE
:101A2000404202D5002A00F0A181800500F1F68134
:101A3000FEE100BF40F60040C4F20240D0F8E400EE
:101A4000400640F11B8199E040F60041C4F202419A
:101A5000D1F8E00000F00702042A00F21B8148F2EE
:101A60000000C0F2BB00DFE812F0090171000500C0
:101A70005B00770101A8FFF7C5FB019804B080BDAA
:101A800040F60040C4F20240D0F8E810D0F8F02050
:101A900001F0C001920702D5002900F0E480D0F8DF
:101AA000F020120140F12281402940F01F814FF4C3
:101AB000FA4004B080BD00BF40F60041C4F20241CC
:101AC000D1F8E800D1F8F02000F00800920702D524
:101AD000002800F0C880D1F8F010002818BF4FF49B
:101AE000FA4001F00061AFE140F60041C4F202416A
:101AF000D1F8E40000F04070B0F1807F00F09A80EF
:101B0000002800F091800A68B0F1007F4FF00000DB
:101B100006D112F0020203D00868C0F3C10050E100
:101B200004B080BD40F60040C4F20240D0F8DC10A2
:101B3000C1F30231052900F2AD80DFE811F0750034
:101B400007007B00CF00C500370100BF01A8FFF7E9
:101B500087FA019804B080BD40F60040C4F202400C
:101B6000D0F8E41001F00301DFE801F0028808D0AA
:101B700004B0BDE8804000F0C1BF00BF01A8FFF77E
:101B80006FFA039804B080BD40F60040C4F20240F2
:101B9000D0F8E41001F44021B1F5802F4AD000299B
:101BA00042D002680068B1F5002F03D112F00202A2
:101BB00040F0DC8010F400701CBF40F60010C0F252
:101BC0003D00B1F5402F18BF002004B080BD00BF1C
:101BD00040F60040C4F20240D0F8E01011F4606119
:101BE0002ED00268B1F5007F02D112F000624BD115
:101BF0000268B1F5806F40F0BD8012F0005200F035
:101C0000B98001A8FFF7FEFA029804B080BD00BFBA
:101C100040F60040C4F20240D0F8E41001F4403134
:101C2000B1F5803F06D0C9BB04B0BDE8804000F0EC
:101C30007DBF00BF01A8FFF7E5FA039804B080BD9F
:101C400004B0BDE8804000F095BF00BF026892017B
:101C500001D5102912D0D0F8F020920740F1CC80A5
:101C6000202940F0C9804FF4004004B080BD00BF7F
:101C7000B0F5007F08D0B0F5807F0BD101A8FFF749
:101C80001DF9029804B080BD01A8FFF7E9F9029898
:101C900004B080BD002004B080BD00BF02680068B1
:101CA000B1F5003F02D112F002025FD110F40070D2
:101CB0001CBF40F60010C0F23D00B1F5403F18BF18
:101CC000002004B080BD00BFD0F8F0004FF4FA410E
:101CD000000101EAE07004B080BD00BFD0F8F00060
:101CE0004FF4004101EA803004B080BD00688029D3
:101CF00000F400724FF0000008BF48F2120085E0C7
:101D000004B0BDE8804000F07DBF00BFD0F8E8100F
:101D1000036802689B0701F040415BD500294ED063
:101D200058E000BF03680268B1F1407F02D113F0B0
:101D3000020344D1B1F1806F02D112F4007270D16C
:101D4000D0F8F000B1F1A06F00F002024FF00000F7
:101D500008BF900304B080BDD1F8E8200B68086884
:101D60009B0702F0404257D5002A55D1C0F3C1006D
:101D700027E000BF03680268B1F5C06F02D113F01D
:101D800002031CD1B1F5006F02D112F4007248D1E8
:101D9000006810F400301CBF47F64000C0F27D1010
:101DA000B1F5206F18BF002004B080BDD0F8E81056
:101DB000036802689B0701F040410BD551B9C2F39B
:101DC000C10049F20001C0F2D03121FA00F004B0A4
:101DD00080BD00BF920502D5B1F1804F21D00068CF
:101DE000B1F1004F00F400324FF0000004BF47F69D
:101DF0004000C0F27D1009E0D0F8F000302900F07A
:101E000000624FF0000008BF4FF4FA40002A08BFFC
:101E1000104604B080BD00BF800509D5B2F1804FE7
:101E200006D140F60010C0F23D0004B080BD00BFF6
:101E30000868B2F1004F00F400314FF0000004BF19
:101E400047F64000C0F27D10002908BF084604B0E4
:101E500080BD00002DE9F0470446006840F62848A0
:101E6000C101C4F2024807D5D8F8C010A26D21F014
:101E700040411143C8F8C010C00712D0E06D0528DA
:101E800000F25482DFE810F00600B404EA01060014
:101E900006000600D8F8B01021F007010843C8F882
:101EA000B00000252078800702D428461BE000BF40
:101EB000206E4FEAF001052900F23A822846DFE859
:101EC00011F00700A304D70107000700070000BFB7
:101ED000064648B9D8F8B000216E20F03800084313
:101EE000C8F8B00000202E462178490719D5616E48
:101EF0004FEAB111052900F22382DFE811F0070053
:101F00008B04BF0107000700070000BF054648B962
:101F1000D8F8B000616E20F4E0700843C8F8B00053
:101F2000002035462178090719D5A16E4FEA7121A5
:101F3000052900F20D82DFE811F007007304A70104
:101F400007000700070000BF064648B9D8F8B000F0
:101F5000A16E20F460600843C8F8B00000202E464F
:101F60002178C90619D5E16E4FEA3131052900F211
:101F7000F781DFE811F007005B048F01070007001D
:101F8000070000BF054648B9D8F8B000E16E20F45C
:101F9000E0400843C8F8B0000020354621788906A3
:101FA00019D5216F4FEAF131052900F2E181DFE80F
:101FB00011F007004304770107000700070000BF86
:101FC000064648B9D8F8B000216F20F460300843C5
:101FD000C8F8B00000202E466178C90619D5616F97
:101FE0004FEA3161052900F2CB81DFE811F00700EB
:101FF0002B045F0107000700070000BF054648B932
:10200000D8F8B800616F20F0E0600843C8F8B80065
:1020100000203546617889061AD5A16F6FF001025C
:1020200002EB3142022A08D34FEA314129B101299A
:102030002ED104F1300001F0D3FA064648B9D8F8A1
:10204000BC00A16F20F440300843C8F8BC00002059
:102050002E466178490620D5E16F6FF0010202EB50
:10206000B142022A08D34FEAB14129B1012937D13F
:1020700004F1300001F0B4FA054678B9D8F8BC0094
:10208000E16F20F440200843C8F8BC00002004E0C1
:102090000120012661784906DED4354661780906BB
:1020A00023D5D4F880106FF0010202EB3152022ADE
:1020B00008D34FEA315129B1012939D104F1300057
:1020C00001F08EFA064688B9D8F8BC00D4F8801022
:1020D00020F440100843C8F8BC00002005E000BF11
:1020E0000120012561780906DBD42E46A178C907B5
:1020F00023D0D4F88410002918BFB1F1007F0DD18E
:102100000746D8B9D8F8BC00D4F8841020F0407045
:102110000843C8F8BC0000200FE000BFB1F1807F89
:1021200030D104F1300001F05BFA074630B9E9E73D
:1021300001200126A178C907DBD137466179C9069C
:1021400025D5D4F88810002918BFB1F1006F0DD142
:102150000546E8B9D8F8BC00D4F8881020F04060F3
:102160000843C8F8BC00002011E000BFB1F1806F47
:1021700040F0708004F1300001F032FA054638B9C1
:10218000E8E700BF012001276179C906D9D43D469F
:10219000D4E9001240F61C47C4F20247120508D5E4
:1021A0003A6822F400423A60D4F8C8203B681A43E7
:1021B0003A6089031AD5D4F88C104FEA31210529E9
:1021C00000F2E680DFE811F0060044037800060024
:1021D00006000600064650B9D8F8B400D4F88C10B2
:1021E00020F4E0600843C8F8B40000202E46A1782F
:1021F00049071BD5D4F890104FEA3131052900F278
:10220000CF80DFE811F007002B035F000700070015
:10221000070000BF054650B9D8F8B400D4F89010B4
:1022200020F4E0400843C8F8B40000203546A17807
:1022300089065ED5D4F8A010052900F2B9800229DC
:1022400046D0002802464AD0D4E900139B0555D455
:10225000B4E000BF012001259AE700BF04F130007F
:1022600001F0BEF9054600287FF41CAEC8E200BFAD
:1022700004F1300001F0B4F92AE600BF04F13000A7
:1022800001F0AEF942E600BF04F1300001F0A8F918
:102290005AE600BF04F1300001F0A2F972E600BF77
:1022A00004F1300001F09CF98AE600BF04F130002F
:1022B00001F096F9A2E600BF04F1300001F090F9B8
:1022C00088E700BF04F1300001F08AF9A2E700BFFF
:1022D00004F1080001F00EF900280246B4D1D8F844
:1022E000C000D4F8A01020F007000843C8F8C000D0
:1022F00000202A46D4E900139B055FD5D4F8A4300A
:1023000043F00806082E0BD1814660B9D8F8C0000A
:1023100020F008001843C8F8C00000204EE000BFBD
:1023200001204FF0010989014BD4A6E00125B9E550
:1023300001200126217849073FF5D9ADF1E500BF1D
:1023400001200125217809073FF5EFAD07E600BF21
:10235000012001262178C9063FF505AE1DE600BF24
:1023600001200125217889063FF51BAE33E600BF29
:10237000012001266178C9063FF531AE49E600BF6C
:1023800001200125617889063FF547AE60E600BF70
:1023900001200126A17849073FF52CAF46E700BF91
:1023A00001200125A17889063FF544AFA1E700BFD0
:1023B00001200122D4E900139B059FD49146890195
:1023C0005BD54FF60846CFF6FF768246B85940F007
:1023D0000100B851FEF712FB054600BFB859C0070F
:1023E00008D1FEF70BFB401B0228F7D9032003217D
:1023F00044E000BF5046BAF1000F51463ED1D8F834
:10240000C80010F4407018D0D4F8BC10884211D025
:10241000D8F8C800D8F8C81020F4407041F48031D2
:10242000C8F8C810D8F8C81021F48031C8F8C8100E
:10243000C8F8C800C00740F01D82D4F8BC00396855
:102440004FF6CF7300F4407221F47C51C0F2FF03C9
:1024500003EA1013B2F5407F08BF19433960D8F87A
:10246000C8106FF31F3021F44071C8F8C810D8F8B5
:10247000C8100843C8F8C800002049462268530124
:102480001CD5D4F898306FF0010707EB3317022FF3
:102490000AD34FEA33173FB1012F17D1D8F8007094
:1024A00047F40037C8F80070054640B9D8F8C000B6
:1024B00020F030001843C8F8C00000200D4651023B
:1024C00008D42E46E178090714D451E001200125F3
:1024D0005102F6D5D4F89C10402921D091BBD8F8F0
:1024E000001041F40031C8F800100646F8B1E17858
:1024F00009073DD5D4F8AC10042900F25F81DFE86C
:1025000011F005003F0127002B002B00D8F8001028
:1025100041F40031C8F80010054650BB1EE000BF72
:1025200004F1080000F0E6FF00280646DFD1D8F8E5
:10253000BC00D4F89C1020F040000843C8F8BC0050
:102540000020BEE701200126E1780907D2D40FE080
:1025500004F1300001F044F8054650B9D8F8B8004D
:10256000D4F8AC1020F007000843C8F8B8000020E9
:102570003546E178C90627D5D4F8B0104FEAF10105
:10258000042900F21F81DFE811F0050005010F00AA
:1025900013001300D8F8001041F40031C8F80010FF
:1025A000064690B906E000BF04F1300001F018F8CB
:1025B000064650B9D8F8B800D4F8B01020F038006A
:1025C0000843C8F8B80000202E46E178890627D5D0
:1025D000D4F8B4104FEAB111042900F2F780DFE813
:1025E00011F00500E3000F0013001300D8F80010ED
:1025F00041F40031C8F80010054690B906E000BF6C
:1026000004F1300000F0ECFF054650B9D8F8B800EE
:10261000D4F8B41020F4E0700843C8F8B8000020E3
:102620003546E17849061BD5D4F8B8104FEA712138
:10263000052900F2D580DFE811F007001701CD0071
:1026400007000700070000BF064650B9D8F8B800D9
:10265000D4F8B81020F460600843C8F8B80000202F
:102660002E46217989071BD5D4F8A810032900F23A
:102670008380DFE801F00903770900BFD8F8001074
:1026800041F40031C8F80010054650B9D8F8BC0034
:10269000D4F8A81020F003000843C8F8BC000020BC
:1026A00035462179490721D5D4F8941059B1B1F5AF
:1026B000007F0BD0B1F5807F3CD1D8F8001041F4F9
:1026C0000031C8F80010064688B905E004F108009A
:1026D00000F010FF064650B9D8F8C000D4F89410A6
:1026E00020F440700843C8F8C00000202E4621792D
:1026F000C90624D5D4F8C410302909D0202909D01E
:1027000010292DD1D8F8001041F40031C8F800107C
:10271000B0B904E004F1300000F062FF80B9D8F8ED
:10272000BC00D4F8C41020F030000843C8F8BC0046
:1027300005E000BF012001262179C906DAD4304620
:102740002179090758BFBDE8F087D8F8C010D4F840
:10275000C02021F0C0011143C8F8C010BDE8F087C7
:102760000120EDE704F1080000F0C4FE0028054652
:102770007FF497AF8AE700BF0120012591E700BFF2
:1027800004F1080000F0B6FE002805467FF4F1AE23
:10279000E4E600BF04F1080000F0ACFE00280646A5
:1027A0007FF413AF06E700BF04F1080000F0A2FEBB
:1027B000002805467FF435AF28E700BF012001253A
:1027C000D7E600BF01200126FFE600BF012001255A
:1027D00027E700BF04F1300000F002FF34E700BF3C
:1027E00001200126217989073FF53EAF58E700BF58
:1027F00004F1080000F07EFE054600287FF452AB8D
:10280000E06DFFF747BB00BF04F1080000F072FE67
:10281000FFF75EBB04F1080000F06CFEFFF776BB2B
:1028200004F1080000F066FEFFF78EBB04F108001B
:1028300000F060FEFFF7A6BB04F1080000F05AFEAE
:10284000FFF7BEBB04F1080000F054FEFFF7D6BB53
:1028500004F1080000F04EFEFFF7BCBC04F10800D4
:1028600000F048FED6E400BF04F1080000F042FE8C
:10287000EAE600BFFEF7C2F8054641F2883600BF1F
:10288000D8F8C80080073FF5D8ADFEF7B7F8411B70
:102890000320B1424FF00301F2D9EFE52DE9F043F7
:1028A00081B0002800F0D08042F20008C4F2020893
:1028B0000446D8F800000D4600F00F0081420DD903
:1028C000D8F8000020F00F002843C8F80000D8F81E
:1028D000000000F00F00A84240F0B680206840F6EB
:1028E0002047C106C4F202470CD561693A687023DB
:1028F00003EA1222914205D93A6822F4E04242EA00
:102900000121396001070CD521693A68702303EA77
:102910001212914205D93A6822F4E06242EA0111AA
:10292000396041070AD5E1683A6802F070029142C5
:1029300004D93A6822F070021143396081070AD540
:10294000A1683A6802F00F02914204D93A6822F075
:102950000F0211433960C00768D1206881070AD58A
:10296000A1683A6802F00F02914204D23A6822F05C
:102970000F0211433960D8F8001001F00F018D42A9
:102980000CD2D8F8001021F00F012943C8F800102C
:10299000D8F8001001F00F01A94255D141070AD51E
:1029A000E1683A6802F07002914204D23A6822F07B
:1029B00070021143396001070CD521693A68702310
:1029C00003EA1212914205D23A6822F4E06242EA26
:1029D00001113960C0060CD560693968702202EABD
:1029E0001121884205D2396821F4E04141EA0020F2
:1029F000386000F007F9396848F2201201F00F0141
:102A0000C0F60002525C40F21001C2F200010968F7
:102A100040F2300320FA02F2C2F2000308461A60C4
:102A200001B0BDE8F043FEF72DB800BF606857F86D
:102A3000201C01280CD0022804D003285AD1890177
:102A400002D507E0890305D4012001B0BDE8F08379
:102A50008905F9D557F8041C21F00301084347F80C
:102A6000040CFDF7CBFF61680646032941F2883963
:102A700039D0022929D0012910D100BF57F8040C00
:102A800000F0180008283FF468AFFDF7B7FF801B7F
:102A900048454FF00300F1D90DE000BF57F8040C92
:102AA00010F0180F3FF459AFFDF7A8FF801B484501
:102AB0004FF00300F2D901B0BDE8F083FDF79EFFAF
:102AC000801B48454FF00300F5D857F8040C00F080
:102AD00018001028F2D140E7FDF790FF801B484511
:102AE0004FF00300E7D857F8040C00F0180018283E
:102AF000F2D132E78907A7D5ACE7000080B500F036
:102B000081F840F62041C4F20241096848F22012DF
:102B100001F00F01C0F60002515C01F01F01C84036
:102B200040F23001C2F20001086080BD80B500F0C3
:102B300069F840F62041C4F202410A6848F22013C5
:102B400002F00F02C0F600039A5C02F01F02D040B0
:102B500040F23002C2F200021060096848F23012FE
:102B6000C1F30211C0F60002515C01F01F01C84020
:102B700080BD000080B500F045F840F62041C4F269
:102B800002410A6848F2201302F00F02C0F6000367
:102B90009A5C02F01F02D04040F23002C2F2000202
:102BA0001060096848F23012C1F30221C0F6000239
:102BB000515C01F01F01C84080BD000080B500F0ED
:102BC00021F840F62041C4F202410A6848F220137D
:102BD00002F00F02C0F600039A5C02F01F02D04020
:102BE00040F23002C2F200021060096848F230126E
:102BF000C1F30231C0F60002515C01F01F01C84070
:102C000080BD000080B540F60041C4F20241C869B1
:102C100000F01800082802BF40F60010C0F23D0086
:102C200080BDC86910F0180F34D0C86900F01800D2
:102C3000102802BF47F64000C0F27D1080BDC86971
:102C400000F01800182849F20000C0F2D03066D118
:102C5000D1F828E08A6AC2F3052C8A6A8B6BBCF132
:102C6000000F04BF002080BDDB08D20603EAE27239
:102C70006FF35F3200EE102A0EF00302B8EE400A46
:102C8000032A15D0012A17D10A68920618D49FED9D
:102C9000251A1DE00868800649F20000C0F2D03015
:102CA00058BF80BD0968C1F3C101C84080BD00BFE5
:102CB0009FED1B1A0CE000BF9FED1B1A08E000BF40
:102CC0000A68C2F3C102D04001EE100AB8EE411A00
:102CD00002EE10CA486BB8EE422A6FF35F2081EE15
:102CE000021A02EE100A9FED113AB8EE422A20EEC7
:102CF000030A486B30EE020AB7EE002AC0F3462002
:102D000030EE020A013021EE000A01EE100AB8EEA0
:102D1000411A80EE010ABCEEC00A10EE100A80BD16
:102D200020BCBE4B0024744C0024744A00000039BF
:102D3000002804BF012070472DE9F04381B040F620
:102D4000004740F6F0490446C4F20247C4F2024983
:102D5000F86959F8C81C227800F01808D00601F06C
:102D600003062AD5B8F1080F1CD0B8F1180F08BF18
:102D7000022E17D0E1693868002900F06D8140F417
:102D800080703860FDF73AFE054600BF3868800560
:102D90000CD4FDF733FE401B02284FF00300F5D999
:102DA00058E200BFE069002800F0E480B869216AB9
:102DB00020F47C1040EA0140B8612078C00719D0A7
:102DC000B8F1100F12D0B8F1180F08BF032E0DD0B4
:102DD00061683868B1F5A02F60DA002900F0B08191
:102DE000B1F5803F00F0CE819EE100BF6068002811
:102DF00000F0C0802078800777D5B8F1000F21D08F
:102E0000E068B8F1180F08BF012E55D039680028C6
:102E100000F06681206921F01801084338603868A5
:102E200040F001003860FDF7E9FD0546386880078D
:102E300054D4FDF7E3FD401B02284FF00300F5D901
:102E400008E200BFE068002800F09480396820693B
:102E500001F01801814231D0396821F0180108438E
:102E60003860FFF7CFFE396A48F2201201F00F01F7
:102E7000C0F60002515C40F2300201F01F0120FA5E
:102E800001F140F21000C2F200000068C2F200023C
:102E90001160FDF7F7FD00286CD10FE000F06A81AA
:102EA000B1F5A81F40F0408140F4802038603868B8
:102EB00040F4801064E100BF00285BD0FDF79EFD68
:102EC000054600BF3868800708D4FDF797FD401B12
:102ED0000228F7D9032001B0BDE8F08338696169A1
:102EE00020F4FE0040EA014038612078000745D414
:102EF000207840075CD42078800600F17F80A56AA6
:102F0000A5B3B8F1180F40F0C98059F8C81C59F89A
:102F1000BC0C012D2ED0E26A01F00303934229D1AB
:102F2000C1F30521226B914224D1626B01466FF3FC
:102F30005F21013A91421DD1A16BC0F346220139B4
:102F40008A4217D1E16BC0F3064201398A4211D19E
:102F5000216CC0F30660013988420BD159F8B80CD6
:102F6000E16CC0F3CC00884240F0E881002001B061
:102F7000BDE8F083012001B0BDE8F083A169D9F874
:102F80000000002952D040F08060C9F80000FDF731
:102F900035FD0546D9F800000001A9D4FDF72EFD46
:102FA000401B0228F6D9032001B0BDE8F08300BF22
:102FB0004FF62446CFF6FF76B859C00712D1B8595C
:102FC00040F00100B851FDF719FD0546B859C0079A
:102FD00008D1FDF713FD401B02284FF00300F5D97F
:102FE00038E100BFA168D9F80000042946DC0029B7
:102FF00000F0EA80012900F01781D5E0616A3868A5
:10300000002900F07F8040F480503860FDF7F6FC26
:10301000054600BF386880043FF571AFFDF7EEFC50
:10302000401B02284FF00300F4D913E120F0806028
:10303000C9F80000FDF7E2FC054600BFD9F8000022
:1030400000017FF555AFFDF7D9FC401B02284FF07A
:103050000300F3D9FEE000BF20F480703860FDF774
:10306000CDFC0546386880057FF5A7AEFDF7C6FCA8
:10307000401B02284FF00300F4D9EBE0052900F0D3
:10308000C780852940F0908040F00400C9F8000016
:10309000D9F8000040F08000C2E000BF386820F09E
:1030A00080703860FDF7AAFC022D05460CD100BFE8
:1030B0003868800140F1D280FDF7A0FC401B022857
:1030C0004FF00300F4D9C5E03868800140F1288151
:1030D000FDF794FC401B02284FF00300F4D9B9E03F
:1030E00021F001003860FDF789FC0546386880074B
:1030F0007FF5FBAEFDF782FC401B02284FF003007A
:10310000F4D9A7E020F480503860FDF777FC05463D
:10311000386880047FF5F3AEFDF770FC401B022891
:103120004FF00300F4D995E020F48030386038681F
:1031300020F480203860386820F4801024E000BF3C
:1031400020F480303860386820F4801038603868A7
:1031500020F480203860FDF751FC05463868800374
:103160007FF548AEFDF74AFC401B64284FF0030092
:10317000F4D96FE040F480203860386820F4801083
:103180003860386840F480303860FDF737FC054619
:10319000386880033FF52EAEFDF730FC401B6428F5
:1031A0004FF00300F4D955E020F00100C9F8000009
:1031B000D9F8000020F00400C9F80000D9F8000098
:1031C00020F0800032E000BF20F00100C9F80000CC
:1031D000D9F8000020F08000C9F80000D9F80000FC
:1031E00020F00400C9F80000FDF708FC054641F294
:1031F000883600BFD9F8000080077FF57CAEFDF768
:10320000FDFB401BB0424FF00300F3D922E000BFAA
:1032100040F00400C9F80000D9F8000020F0800058
:10322000C9F80000D9F8000040F00100C9F800001A
:10323000FDF7E4FB054641F2883600BFD9F80000EF
:1032400080073FF558AEFDF7D9FB401BB0424FF069
:103250000300F3D901B0BDE8F08300BF59F8C80CF2
:1032600043F6037104F12C0388430ECB084340EA74
:103270000220A16B49F8C80C4FF47E4202EB4121B9
:10328000E26B581E4FF4FE0389B203EB02426FF368
:103290005F20084402F4FE01226C4FF0FE4303EB72
:1032A0000262084402F0FE41084449F8BC0C59F897
:1032B000C80C20F0100049F8C80CE06CC00049F8B8
:1032C000B80C59F8C80C40F0100049F8C80C59F86F
:1032D000C80C616C20F00C00084349F8C80C59F880
:1032E000C80CA16C20F02000084349F8C80C59F81C
:1032F000C80C40F4803049F8C80C386840F0807041
:103300003860FDF77BFB0446386880013FF52EAE40
:10331000FDF774FB001B02284FF00300F4D999E776
:1033200059F8C80C4FF6FC71CFF6F871084049F80F
:10333000C80C002001B0BDE8F08300BF59F8C80CEC
:1033400020F0100049F8C80CFDF758FB0546FDF7C2
:1033500055FBA842FBD0E06CC00049F8B80C59F806
:10336000C80C40F0100049F8C80C002001B0BDE8BE
:10337000F0830000042888BF7047DFE800F0031BDB
:1033800013352D004EF21000CEF20000016821F03E
:103390000401016040F6E440C4F20240016821F0FB
:1033A0000C0120E04EF21000CEF200000168022273
:1033B00006E000BF4EF21000CEF2000001680122CC
:1033C00021F00401016040F6E440C4F202400168CB
:1033D00062F3830107E000BF4EF21000CEF200005E
:1033E000016841F00401016070470000411E0020A7
:1033F000B0EB116F1CBF012070474EF21002CEF2ED
:10340000000251609060116841F003011160704743
:103410004EF21000CEF200000068400744BF0420C6
:10342000704740F6E440C4F20240006802A100F098
:103430000C000858704700BF0000000001000000A9
:10344000020000000000000010B5D8B10446D0F81A
:10345000880028B9002084F88400204600F026F86F
:103460002420C4F888002068A16A0268002922F09C
:10347000010202601CBF204600F084F9204600F0E3
:10348000ABFA08B1012010BD2168486820F49040D3
:103490004860886820F02A008860086840F00102CF
:1034A00020460A60BDE8104000F0E0B97047000017
:1034B000FEE7000040F22C02C2F200021268D1E9DD
:1034C000003CC0E900234B890C22C0E904320A8980
:1034D0008989C0F808C081614FF40041C1610021B1
:1034E000C2604162FFF7B0BFFEE70000FEE70000E8
:1034F0007047000070B540F62C46C4F2024656F8FC
:103500002C1C044621F0806046F82C0CFDF776FA5E
:10351000054600BF56F82C0C000105D5FDF76EFAE4
:10352000401B0228F6D958E0306843F603718843FF
:1035300094E80E00084340EA0220E16830604FF44E
:103540007E4202EB41212269581E4FF4FE0389B2EC
:1035500003EB02426FF35F20084402F4FE0162694C
:103560004FF0FE4303EB0262084402F0FE410844C0
:1035700030613068A16920F00C0008433060306889
:10358000E16920F0200008433060606A3168084338
:10359000306030684FF6F87120F0100030607069CC
:1035A000226A884340EAC2007061306840F010002F
:1035B000306056F82C0C40F0806046F82C0CFDF77B
:1035C0001DFA044656F82C0C000144BF002070BDC3
:1035D000FDF714FA001B0328F4D3032070BD00008C
:1035E00070B540F63046C4F2024656F8301C044628
:1035F00021F0805046F8300CFDF700FA054600BF78
:1036000056F8300C800005D5FDF7F8F9401B02286C
:10361000F6D958E0306843F60371884394E80E0009
:10362000084340EA0220E16830604FF47E4202EB3A
:1036300041212269581E4FF4FE0389B203EB024276
:103640006FF35F20084402F4FE0162694FF0FE430D
:1036500003EB0262084402F0FE41084470613068E6
:10366000A16920F00C00084330603068E16920F067
:10367000200008433060606A316808433060306879
:103680004FF6F87120F010003060B069226A88436C
:1036900040EAC200B061306840F01000306056F877
:1036A000300C40F0805046F8300CFDF7A7F9044686
:1036B00056F8300C800044BF002070BDFDF79EF925
:1036C000001B0328F4D3032070BD000070470000E6
:1036D000FDF7A4B94EF6885CCEF2000CDCF80010C1
:1036E000012241F47001CCF8001040F60041C4F210
:1036F00002410A600022CA610A620B684EF6E320AA
:10370000CEF6E2201840086040F28020C0F201109E
:103710008A62CA620A6348638A63C8630A64486447
:103720008A64086820F4802008600A654FF0006011
:1037300042F21C01C4F202014CF8800C51F8040C56
:10374000420F062A05D800F06040B0F1404F18BF84
:1037500070470868C0070BD042F63B20C0F619003E
:1037600041F8100C46F67F60C4F65D4041F8100C3D
:10377000086840F002000860086840F00100086036
:1037800070470000816A0A070CD4CA0715D18A075E
:103790001ED44A0727D4CA0630D48A0639D44A062A
:1037A00042D457E00268D0F838C0536823F400438D
:1037B00043EA0C035360CA07E9D00268D0F82CC072
:1037C000536823F4003343EA0C0353608A07E0D5BF
:1037D0000268D0F830C0536823F4803343EA0C0306
:1037E00053604A07D7D50268D0F834C0536823F431
:1037F000802343EA0C035360CA06CED50268D0F892
:103800003CC0936823F4805343EA0C0393608A0618
:10381000C5D50268D0F840C0936823F4005343EA4A
:103820000C0393604A0615D5D0F800C0436CDCF851
:103830000420B3F5801F22F4801242EA0302CCF880
:10384000042007D1DCF80420836C22F4C0021A4360
:10385000CCF80420090658BF70470168C06C4A685C
:1038600022F400221043486070470000B0B582B0D7
:1038700004460020C4F89000FDF7C0F82168054612
:103880000A68120737D56FF07E4C20464FF40011BE
:1038900000222B46CDF800C000F0BCF950B300BFA9
:1038A000206850E8000F216820F0800041E8000205
:1038B000DAB1206850E8000F216820F0800041E86C
:1038C000000292B1206850E8000F216820F08000CB
:1038D00041E800024AB1206850E8000F216820F05A
:1038E000800041E80002002ADAD10320202188224A
:1038F0006BE000BF2168086840075DD56FF07E4C23
:1039000020464FF4800100222B46CDF800C000F085
:1039100081F9002850D000BF206850E8000F2168CE
:1039200020F4907041E80002BAB3206850E8000F1C
:10393000216820F4907041E8000272B3206850E8DA
:10394000000F216820F4907041E800022AB320683B
:1039500050E8000F216820F4907041E80002002A2E
:10396000DAD11AE0206850E8020F216820F0010047
:1039700041E80202DAB1206850E8020F216820F025
:10398000010041E8020292B1206850E8020F21686C
:1039900020F0010041E802024AB1206850E8020F1D
:1039A000216820F0010041E80202002ADAD1032058
:1039B00020218C2209E000BF2020C4F88800C4F830
:1039C0008C00002170220020E166A150002184F8C3
:1039D000841002B0B0BD000070B504462269D4E97D
:1039E0000213006811436269E6690568114346F6EF
:1039F000F312CCF6FF722A40114331430160416853
:103A00004FF2FF4521F440511943416042F2004119
:103A1000A26940F08053C5F200418B421CBF236A6B
:103A20001A438368C1F2FF152B401A438260C26AB1
:103A3000636A22F00F021A4346F2FF33C4F2000316
:103A40009842C2621ADC44F6FF31C4F20001884297
:103A500030DC44F20041C4F20001884250D044F608
:103A60000001C4F20001884240F0CC800420002113
:103A7000FDF79AFCB6F5004F67D048E042F2FF32FE
:103A8000C4F2004290422BDC46F20041C4F2000135
:103A9000884253D043F60001C4F20101884240F04D
:103AA000B18001200021FDF77FFCB6F5004F4CD01E
:103AB0002DE000BF44F60041C4F20001884263D00B
:103AC00045F20001C4F20001884240F09B801020C2
:103AD0000021FDF769FCB6F5004F36D017E000BFB6
:103AE00042F20042C4F20042904255D0884240F077
:103AF000898000200021FDF757FC002852D177E093
:103B000002200021FDF750FCB6F5004F1DD0002823
:103B10006ED0616A48F23812C0F6000232F8111015
:103B20006268B0FBF1F000EB5200B0FBF2F04FF630
:103B3000EF72A0F1100191425CD857E020200021E3
:103B4000FDF732FCB6F5004FE1D1002850D0616A94
:103B500048F23812C0F6000232F811106268B0FB69
:103B6000F1F0510801EB4000B0FBF2F04FF6EF72BC
:103B7000A0F1100191423DD84FF6F071C0F342021E
:103B80000840104432E000BF08200021FDF70CFC83
:103B9000B6F5004FBBD1D8E74FF480500021FDF7B8
:103BA00003FC28B3616A48F23812C0F6000232F80A
:103BB00011106268B0FBF1F102EB420081424FF05C
:103BC000010018D31303994215D808020B0E10EB0D
:103BD000520043F100010023FCF7C4FB4FF60052F2
:103BE000A0F54071C0F20F02914203D22168C86073
:103BF000002000E001204FF00111A1660021C4E97E
:103C00001D1170BD00200021FDF7CEFBB6F5004F61
:103C10009BD07CE72DE9F041804600681546C269DB
:103C20000E461140891BB1FA81F149098D4223D119
:103C3000069C2CB3611C29D1C1693140891BB1FAA2
:103C400081F149098D4217D1C1693140891BB1FA0F
:103C500081F149098D420FD1C1693140891BB1FA07
:103C600081F149098D4207D1C1693140891BB1FAFF
:103C700081F149098D42DFD00020BDE8F08100BF0D
:103C8000FCF7BCFE0320BDE8F08100BF1F4607E043
:103C9000C0693040801BB0FA80F040098542EBD10A
:103CA000FCF7ACFEC01BA04284BF0320BDE8F0813E
:103CB000D8F8000001684907EAD5402E18BF802EC9
:103CC000E6D0C169090700F1A180C1690905DFD506
:103CD0004FF400610162D8F8000050E8000FD8F8F6
:103CE000001020F4907041E800020AB3D8F80000F8
:103CF00050E8000FD8F8001020F4907041E800025E
:103D0000B2B1D8F8000050E8000FD8F8001020F445
:103D1000907041E800025AB1D8F8000050E8000F56
:103D2000D8F8001020F4907041E80002002AD2D1A7
:103D30004FF6FE70CEF6FF70D8F8001051E8021F63
:103D4000D8F80020014042E80213F3B1D8F800107F
:103D500051E8021FD8F80020014042E80213A3B145
:103D6000D8F8001051E8021FD8F80020014042E8BE
:103D7000021353B1D8F8001051E8021FD8F8002000
:103D8000014042E80213002BD6D1D8F86C0001287C
:103D90002CD1D8F8000050E8000FD8F8001020F01F
:103DA000100041E800020AB3D8F8000050E8000F04
:103DB000D8F8001020F0100041E80002B2B1D8F8A5
:103DC000000050E8000FD8F8001020F0100041E883
:103DD00000025AB1D8F8000050E8000FD8F80010DF
:103DE00020F0100041E80002002AD2D1202000215A
:103DF000C8F88C00C8F86C10C8F87410C8F89000A7
:103E0000032088F88410BDE8F08100BF082101621A
:103E1000D8F8000050E8000FD8F8001020F4907097
:103E200041E800020AB3D8F8000050E8000FD8F8C3
:103E3000001020F4907041E80002B2B1D8F8000000
:103E400050E8000FD8F8001020F4907041E800020C
:103E50005AB1D8F8000050E8000FD8F8001020F44C
:103E6000907041E80002002AD2D14FF6FE70CEF6E3
:103E7000FF70D8F8001051E8021FD8F80020014068
:103E800042E80213F3B1D8F8001051E8021FD8F845
:103E90000020014042E80213A3B1D8F8001051E815
:103EA000021FD8F80020014042E8021353B1D8F8AD
:103EB000001051E8021FD8F80020014042E8021328
:103EC000002BD6D1D8F86C0001282CD1D8F80000EE
:103ED00050E8000FD8F8001020F0100041E8000270
:103EE0000AB3D8F8000050E8000FD8F8001020F00E
:103EF000100041E80002B2B1D8F8000050E8000F0D
:103F0000D8F8001020F0100041E800025AB1D8F8AB
:103F1000000050E8000FD8F8001020F0100041E831
:103F20000002002AD2D12020C8F88C0000200821ED
:103F3000C8F86C00C8F87400C8F8901088F88400BD
:103F40000120BDE8F0810000002804BF0120704777
:103F5000016C21F000410164016C41F00101016438
:103F60000021416400207047002000F05BBE00008B
:103F70000146806D20F4004200208A6570470000F1
:103F8000014601200864086C002220F0010008644A
:103F9000086C20F00040086400204A64704700006C
:103FA0000146006C4BF6807220EA020200200A648F
:103FB00070470000012909D000291CBF012070476B
:103FC000016C21F00041016400207047016C41F058
:103FD0000041016400207047FEE7000080B54FF00B
:103FE000010C01233E2A84BF1F234FF0050C13440C
:103FF00023FA0CFCC0005FFA8CF300EB810046F260
:1040000000414FF0FF3E3E2A88BF5EFA8CF34FEA34
:104010008322C4F201014FF4004C88BF4CEA832292
:10402000435812049BB208BF4FF000421A4442505A
:1040300080BD00002DE9F04140F27015C2F200058C
:104040006978FF291CD048F2501804460026C0F6B3
:10405000000800270DE000BF40462BD1C168204674
:10406000884769780137481CC0B2874206F12406A8
:1040700006D2C8B28742EFD2A868D8B13044EDE783
:1040800005F10C003721FCF72AFA4FF0FF30C5F894
:104090002F00C5F82B00C5F82700C5F82300C5F888
:1040A0001F00C5F81B00C5F81700C5F81300BDE8D0
:1040B000F08100BF4EF6F050CEF200000068C0075D
:1040C00008BFBDE8F08100BEBDE8F0810878400679
:1040D00004D0002001210822FFF780BF487805287E
:1040E000F7D14888012161F3DF1046F24C01C4F298
:1040F00001010860002001210822FFF76FBF0000C6
:1041000080B540F2047301F00F001022C2F20003E8
:1041100002EAD10203EB401046F2000C1044807B0F
:10412000C4F2010C49B25CF8203048F6FF7248F244
:10413000800EC0F2FF72B1F1FF3FC4BF4FF68F7225
:10414000C0F2FF7243EA0E0101EA020103F4C06209
:104150004FF02003C8BF4FF40053B2F5806F4EF20A
:10416000081218BF5940CEF200024FF48063C2F823
:104170008030BFF34F8FBFF36F8F4CF82010BFF329
:104180004F8FBFF36F8F136080BD000080B54EF27C
:10419000081CCEF2000C4FF4806ECCF880E046F2A2
:1041A000040240F2EC00BFF34F8FC4F2010200237F
:1041B000C2F200004FF6FF71BFF36F8F1360C0F8BB
:1041C00006105360C0F80A109360C0F80E10D36058
:1041D000C0F812101361C0F816105361C0F81A101D
:1041E0009361C0F81E10BFF34F8FBFF36F8FCCF8F1
:1041F00000E0C021018080BD2DE9F04F81B08D78B5
:10420000C8780E468C8800F00301284600F084F937
:10421000082819D246F20008C4F2010858F8201004
:1042200047F27002CFF600026FB21140F27807F049
:104230000F0602F00302022A314411D0032A75D17D
:10424000824648F280600EE04EF6F050CEF200005A
:104250000068C00700D000BE002001B0BDE8F08FAC
:10426000824648F280006FF3DF2441EA00090DF135
:1042700003010DF1020220464FEAD51B01F082FE38
:1042800040F2EC02C2F200021188084483B21080AE
:10429000B3F5006F504609D94EF6F051CEF2000149
:1042A0000968C9074FF6FF7100D000BE08EBC002D5
:1042B0008BF0010302EB83024FF6FF75D2F8003456
:1042C00021F00301AB4340F20475C2F2000505EB97
:1042D0004616194406EB0B13C2F8001420219C81EA
:1042E0009873B7F1FF3FC8BF4FF400516FF07002F1
:1042F00081EA0901002F48BF6FF4E04211404EF2FD
:104300000812CEF200024FF48063C2F88030BFF38F
:104310004F8FBFF36F8F48F82010BFF34F8FBFF35D
:104320006F8F1360012001B0BDE8F08F4EF6F050A2
:10433000CEF200000068C0078ED000BE002001B0A1
:10434000BDE8F08F80B540F2047001F00F0C102230
:10435000C2F2000002EAD10300EB4C1049B218444B
:10436000807B46F2000CC4F2010C5CF82030B1F105
:10437000FF3F48F6BF7148F2800EC0F2FF7143EA7A
:104380000E03C4BF4BF68F71C0F2FF7101EA030147
:10439000C8BF4FF4805251404EF20812CEF20002D4
:1043A0004FF48063C2F88030BFF34F8FBFF36F8F3D
:1043B0004CF82010BFF34F8FBFF36F8F136080BD99
:1043C000F0B581B040F2047601F00F001027C2F280
:1043D000000607EAD10706EB401649B2F019847BC4
:1043E000F2510022B1F1FF3F42600381428137DD8B
:1043F00046F20006C4F2010656F82410858943F6F9
:104400000F72AB4238BF1D4601F4C060C0F2FF72AC
:10441000B0F5806F01EA020704D1204600212A4648
:10442000FFF7DCFD204601212A46FFF7D7FD4EF2BB
:104430000811CEF200014FF480624BF28000C1F807
:1044400080207840BFF34F8FBFF36F8F46F8240072
:10445000BFF34F8FBFF36F8F0A60012001B0F0BD33
:10446000214600F0B7FD012001B0F0BDF0B581B0EC
:1044700040F2047601F00F001027C2F2000607EAAE
:10448000D10706EB401649B2F019847B0025B1F143
:10449000FF3FF55142600381458137DD46F200065A
:1044A000C4F2010656F82410858943F60F72AB4218
:1044B00038BF1D4601F4C060C0F2FF72B0F5806FD6
:1044C00001EA020704D1204600212A46FFF786FDB3
:1044D000204601212A46FFF781FD4EF20811CEF257
:1044E00000014FF480624BF28000C1F880207840D8
:1044F000BFF34F8FBFF36F8F46F82400BFF34F8F8A
:10450000BFF36F8F0A60012001B0F0BD214600F0BB
:1045100061FD012001B0F0BD70B540F2EC03C2F2C4
:10452000000303EBD01200F00F06147901294FEAC3
:10453000D01C0BD1012282EAD01E7CB1D878012890
:104540001FD19878B0421CD1002070BD34B3D87808
:10455000884231D19878B042F6D02DE003EB0E00BE
:10456000007970B99878FF2818BFB04209D1DA787D
:104570009C1C012A4FF0000000F09E81FF2A00F0F1
:104580009B8103EB0C05287A20B3D879012833D11D
:104590009879B04204BF012070BD2DE09878FF28C3
:1045A00018BFB04208D1DD789C1CFF2D4FF00000F1
:1045B00018BF8D4200F0808103EB0C05287A38B3D8
:1045C000D879884232D19879B04204BF012070BDB9
:1045D0002CE000BF03EB0E00007A68B99879FF2841
:1045E00018BFB04208D1DA799C1D012A4FF00100B2
:1045F00018BFFF2A00F06081287B18B3D87A012801
:1046000033D1987AB04204BF022070BD2DE000BFC4
:104610009879FF2818BFB04208D1DA799C1DFF2A8B
:104620004FF0010018BF8A4200F04681287B002825
:1046300044D0D87A884250D1987AB04204BF022040
:1046400070BD4AE003EB0E00007B70B9987AFF283A
:1046500018BFB04209D1DA7A03F10A04012A4FF0F7
:10466000020018BFFF2A00F02781287C40B1D87BC8
:10467000012818D1987BB04204BF032070BD12E01E
:1046800003EB0E00007C70B9987BFF2818BFB04286
:1046900009D1DA7B03F10E04012A4FF0030018BFA1
:1046A000FF2A00F00981287D20B3D87C012834D16D
:1046B000987CB04204BF042070BD2EE0987AFF2899
:1046C00018BFB04209D1DA7A03F10A04FF2A4FF089
:1046D000020018BF8A4200F0EF80287C002845D0F5
:1046E000D87B884251D1987BB04204BF032070BD73
:1046F0004BE000BF03EB0E00007D70B9987CFF28F3
:1047000018BFB04209D1DA7C03F11204012A4FF03C
:10471000040018BFFF2A00F0CF80287E40B1D87D6A
:10472000012818D1987DB04204BF052070BD12E069
:1047300003EB0E00007E70B9987DFF2818BFB042D1
:1047400009D1DA7D03F11604012A4FF0050018BFE4
:10475000FF2A00F0B180287F10B3D87E012831D124
:10476000987EB04204BF062070BD2BE0987BFF28E6
:1047700018BFB04209D1DA7B03F10E04FF2A4FF0D3
:10478000030018BF8A4200F09780287DC0B3D87C10
:10479000884243D1987CB04204BF042070BD3DE004
:1047A00003EB0E00007F68B9987EFF2818BFB04267
:1047B00008D1DA7E03F11A04012A4FF0060018BF6F
:1047C000FF2A79D095F8200020B1D87F01285FD04A
:1047D0007AE000BF03EB0E0090F82000002873D1B0
:1047E000987FFF2818BFB0426ED1DA7F03F11E0414
:1047F000012A4FF007005FD0FF2A5DD064E000BFC0
:10480000987CFF2818BFB04208D1DA7C03F112046B
:10481000FF2A4FF0040018BF8A424DD0287E48B1CD
:10482000D87D884214D1987DB04204BF052070BD68
:104830000EE000BF987DFF2818BFB04208D1DA7D96
:1048400003F11604FF2A4FF0050018BF8A4233D047
:10485000287F48B1D87E884214D1987EB04204BFE8
:10486000062070BD0EE000BF987EFF2818BFB04242
:1048700008D1DA7E03F11A04FF2A4FF0060018BFB0
:104880008A4219D095F8200040B1D87F88421BD1C8
:10489000987FB04204BF072070BD15E0987FFF28C5
:1048A00018BFB04210D1DA7F03F11E04FF2A4FF087
:1048B000070018BF8A4207D104EB0C026170012186
:1048C0002670917070BD00BF4EF6F050CEF2000021
:1048D0000068C0073FF438AE00BE002070BD000085
:1048E0002DE9F04383B00546407888460238052814
:1048F00000F20B81DFE800F0042E16220E8400BFC8
:1049000040F27010C2F20000002101734173017483
:104910008173FAE040F27010C2F2000001780131B8
:104920000170F2E040F27010C2F20000017B002939
:1049300000F0238101218173E7E000BF40F2701095
:10494000C2F20000017B002900F017810021817371
:10495000DBE000BF40F27019C2F2000999F80100D3
:10496000FF2823D048F250140026C0F60004002788
:1049700007E000BF411C0137C9B28F4206F124068F
:1049800014D2C1B28F4205D2D9F808100029F1D053
:10499000314401E02146EDD10A6A002AEAD02878A4
:1049A0006968904799F80100E4E700BF99F80E00A4
:1049B00000285ED0002089F80E002978D9F804403C
:1049C0008DF800100521B8F1000F8DF8011002904C
:1049D000019033D040F21400C2F20000028904F1C9
:1049E00008006946002302F0BFF90646CEB39DF8E1
:1049F00000009DF80110424602F090FD39E000BF32
:104A0000297911F00F0000F0808040F27013C2F29B
:104A1000000303EB40005F7800EBD11292F82320F3
:104A2000BA4251D29B68002B6FD002EBC20203EB5B
:104A30008202D369002B4ED167E000BF40F214061A
:104A4000C2F2000671688847328904F1080069469D
:104A5000002302F089F97168064601208847002E7C
:104A6000C5D14EF6F050CEF200000068C00700D06D
:104A700000BE99F81200C00700F07F802878D9F8AE
:104A800004408DF8000003208DF801006868B8F13B
:104A9000000F019078D040F21400C2F200000289A9
:104AA00004F108006946002302F05EF90546002D76
:104AB00000F07F809DF800009DF80110424602F052
:104AC0002DFD03B0BDE8F0831FD148F25012C0F6AF
:104AD0000002D369CBB1CB09C41814F8330F00F02E
:104AE000FE002070207800F0FB002070D769287845
:104AF0006A79AB68B84700283FD1207840F00100C0
:104B00002070207840F00400207040F27010C2F253
:104B100000004468B8F1000F14D040F21400C2F253
:104B20000000028904F108002946002302F01CF964
:104B30000646DEB128786978424603B0BDE8F04306
:104B400002F0ECBC40F21406C2F2000671680020CC
:104B50008847328904F108002946002302F004F94D
:104B60007168064601208847002EE3D14EF6F050CA
:104B7000CEF200000068C00702D103B0BDE8F083A8
:104B800000BE03B0BDE8F08340F21405C2F2000598
:104B90006968002088472A8904F1080069460023D3
:104BA00002F0E2F86968054601208847002D7FF48D
:104BB00081AF4EF6F050CEF200000068C007DCD0A6
:104BC00000BE03B0BDE8F08310B500F06BFA46F20A
:104BD0004004C4F2010400202060206840F45D40DD
:104BE000206000F0AFFAA06940F400410120A1610B
:104BF00010BD00004EF28810CEF200004FF480612C
:104C00000160BFF34F8FBFF36F8F7047BFF34F8FBC
:104C10004EF20810BFF36F8FCEF200004FF48061A8
:104C2000016070472DE9F04F89B046F24005C4F2AB
:104C300001056C68A0050ED56FF400706860A86867
:104C40004FF440716FF3DF20ADF81810079006A8FD
:104C50000121FFF745FE60050AD4E0041CD42005BD
:104C60002FD4E00542D401946868000453D563E072
:104C70006FF48060686000F065FA4FF48070ADF802
:104C8000180000208DF81C0006A80121FFF728FE5F
:104C900009B0BDE8F08F00BF2868012120F00400B2
:104CA0002860286820F0080028606FF48050686051
:104CB0004FF4A060ADF8180006A8FFF711FE20051C
:104CC000CFD52868012140F008002860286840F00E
:104CD000040028606FF4006068604FF48060ADF8F5
:104CE000180006A8FFF7FCFDE005BCD540F2FC600B
:104CF000C2F20000017839B1012903D12A6822F0FB
:104D000010022A60013901706FF4807068600194AC
:104D10006868000410D4019840040AD54EF6F0509B
:104D2000CEF200000068C00700D000BE6FF48040E3
:104D3000686009B0BDE8F08F40F60F79A5F1400436
:104D40004FF0140805F57070C0F2FF79029012E080
:104D500001F180004FF4E0618DF81C000020ADF8F7
:104D600018108DF81D0006A801210892FFF7B8FD64
:104D700068680004CFD5686800F00F0654F826A0D4
:104D80005FEA0A4040F1D480CDF80C800398A0B1CE
:104D9000039801380390039878B103980138039081
:104DA000039850B1039801380390039828B10398F1
:104DB0000138039003980028EAD15FEA0A502FD403
:104DC00054F8260040F2047700EA090040F0800021
:104DD00044F8260054F826B0029B0BF00F090BF4A0
:104DE0008C4003EBC601C2F20007B0F5884007EB28
:104DF000491818BF012051F8202051F82010D8F888
:104E00000400C2F3094713FA81F100283CD00022C4
:104E10000792042206923A4606AB01F0A5FF3EE057
:104E2000029A002302EBC60041684068C1F30947BB
:104E300012FA80F004A93A4602F0D4F954F8260098
:104E4000082F00EA090040F0800044F826000DD148
:104E5000DDE904014FF4C062ADF81820CDE9070187
:104E600006A80121FFF73CFD62E000BF4EF6F050BE
:104E7000CEF200000068C00700D000BE0020012173
:104E80000822FFF7ABF853E0D8F80000B8F80A2082
:104E900000230244084611463A4602F0A3F9B8F846
:104EA0000A00B8F80C2038449742A8F80A0023D327
:104EB000B8F8081083B299421ED90BF4C063B3F559
:104EC000806F08D0081A80B20121904238BF024694
:104ED0003046FFF783F840F60F79C0F2FF7909F505
:104EE000405000EA0B004BF2800148404FF014089C
:104EF00044F826001CE000BF30460121FFF76EF8A1
:104F0000B8F80A004FF4E061ADF8181008900027D7
:104F100006A801218DF81C908DF81D70FFF7E0FCAC
:104F200040F60F79C8F808704FF01408C0F2FF7906
:104F30005FEA0A607FF51CAF54F8260000EA09001A
:104F400040F4004044F8260054F8262040F2047053
:104F500002F00F01C2F2000000EB411002F4C06346
:104F6000B3F5806F00F1100012D1C37B012B7FF4E9
:104F7000FFAE012323EA921205EBC60303EB820284
:104F80000023C373D2F8C0336FF31943C2F8C033A0
:104F9000028943899A423FF4DBAE314600F01AF8A9
:104FA000E6E6000040F20470C2F20000002240F881
:104FB000102F817B4260826000F00CB846F2400006
:104FC000C4F20100026822F4007261F34922026017
:104FD000704700002DE9F04782B0054600896A89D4
:104FE0008A4646F20041C4F20101801AA1F58068A8
:104FF00080B2AE8958F82A70B04238BF064607F42E
:10500000C0690020B9F5806F08BFC7F380104FEA70
:10501000CA0343EA800043584418686811FA83F1D0
:105020004FF0000340B10422019300926B463246D8
:1050300001F07AFE07E000BF2868024408461146E6
:10504000324602F025F96889B9F5806F30446881ED
:1050500020686FF39F266FF3194040EA064048F23C
:10506000B001206004BF0120E87340F63F70C0F239
:10507000FF70384048404EF20811CEF200014FF464
:105080008062C1F88020BFF34F8FBFF36F8F48F865
:105090002A00BFF34F8FBFF36F8F0A6002B0BDE8E5
:1050A000F087000082B046F24000C4F20100032104
:1050B000016000210191019AC72A1BD800BF019A03
:1050C00001320192019AC72A14D800BF019A013215
:1050D0000192019AC72A0DD800BF019A01320192AC
:1050E000019AC72A06D800BF019A01320192019A9B
:1050F000C82AE3D3026822F00202026000910099FC
:10510000C7291BD800BF0099013100910099C72918
:1051100014D800BF0099013100910099C7290DD81A
:1051200000BF0099013100910099C72906D800BF3E
:105130000099013100910099C829E3D30021416011
:1051400002B070472DE9F04182B046F2000440F20F
:10515000EC054FF6FF70C4F201040027C2F200050F
:10516000E764C5F80200C5F80600C5F80A00C5F8EE
:105170000E00C5F81200C5F81600C5F81A00C5F8EB
:105180001E0040264EF6F05800200021CEF2000806
:105190002E80FFF7C1F980200021FFF7BDF940F212
:1051A0000470C2F2000086818773868387770DF1D1
:1051B000050101AA402000F0E5FE2F88384481B2A5
:1051C0002880B1F5006F06D9D8F800004FF6FF77B8
:1051D000C00700D000BE0DF107010DF1060240200E
:1051E00000F0D0FE2988084482B22880B2F5006F12
:1051F00006D9D8F80000C00700D000BE4FF6FF71F6
:1052000046F20440C4F2010002684FF6FF739A436D
:1052100027F003031A440260D4F8000421F00301CC
:105220006FF30F000844C4F80004206847F27001CF
:10523000CFF60001084042F2202180EA010500205B
:1052400001210822FEF7CAFE80202560E06402B03A
:10525000BDE8F08110B582B040F2101472B6C2F20F
:10526000000494F8300000F0AFFF94F8310000F033
:10527000ABFF94F8320000F0A7FF94F8330000F081
:10528000A3FF94F8340000F09FFF94F8350000F07D
:105290009BFF94F8360000F097FF94F8370000F079
:1052A00093FF94F8380000F08FFF94F8390000F075
:1052B0008BFF94F83A0000F087FF94F83B0000F071
:1052C00083FF94F83C0000F07FFF94F83D0000F06D
:1052D0007BFF94F83E0000F077FF94F83F0000F069
:1052E00073FF94F8400000F06FFF94F8410000F065
:1052F0006BFF94F8420000F067FF94F8430000F061
:1053000063FF94F8440000F05FFF94F8450000F05C
:105310005BFF94F8460000F057FF94F8470000F058
:1053200053FF94F8480000F04FFF94F8490000F054
:105330004BFF94F84A0000F047FF94F84B0000F050
:1053400043FF94F84C0000F03FFF94F84D0000F04C
:105350003BFF94F84E0000F037FF94F84F0000F048
:1053600033FF94F8500000F02FFF94F8510000F044
:105370002BFF94F8520000F027FF94F8530000F040
:1053800023FF94F8540000F01FFF94F8550000F03C
:105390001BFF94F8560000F017FF94F8570000F038
:1053A00013FF94F8580000F00FFF94F8590000F034
:1053B0000BFF94F85A0000F007FF94F85B0000F030
:1053C00003FF94F85C0000F0FFFE94F85D0000F02D
:1053D000FBFE94F85E0000F0F7FE94F85F0000F02A
:1053E000F3FE002062B60190019840097C281FD886
:1053F00000BF019801300190019840097C2817D81E
:1054000000BF019801300190019840097C280FD815
:1054100000BF019801300190019840097C2807D80D
:1054200000BF0198013001900198B0F57A6FDFD389
:1054300002B010BD9CB040F61404C4F20244FBF765
:10544000FBFA08A85021FBF74AF80020CDE9060036
:10545000CDE90400CDE9020054F8040C20F030003E
:1054600044F8040C54F8040C00F03000019001984A
:105470002068000709D4206800075CBF20685FEA45
:10548000007002D420680007F2D522200890012085
:105490000B9008200C9040200D904FF480501190FC
:1054A000002408A81294FDF743FC18B172B600BF9F
:1054B000FEE700BF1F20CDE9020402A80121CDE9CB
:1054C0000444CDE906444FF00108FDF7E7F918B1AF
:1054D00072B600BFFEE700BF42F20000C4F2020055
:1054E0000168002721F03001016040F68C400C97E4
:1054F000CDE90A77CDE90877C4F2024001680026B9
:1055000041F0040101600168C4F2022601F00401C7
:10551000029102990168002241F0010101600168D5
:105520004FF4807401F0010102910299016841F089
:105530000201016000684FF4807100F002000290E7
:1055400002983046FBF754FA102008ADCDE9080761
:1055500006F5006029460A97FBF780F9CDE908486F
:105560000224304629460A970B94FBF777F9FBF79C
:105570004BFA18B172B600BFFEE700BF40F2184008
:1055800046F20001C2F20000C4F2010101600821EC
:105590000171C4714472C0F80A70C0F80D70FBF755
:1055A00027FB18B172B600BFFEE700BFA02008AD10
:1055B0004FF0000B08904FF00108022430462946B6
:1055C000CDF830B0CDE9098B0B94FBF747F94020BB
:1055D000CDE9080B30462946CDF82880FBF73EF987
:1055E0004FF4806008A981E80109304629460B94F0
:1055F000FBF734F93046202100222024FBF7F8F98C
:10560000304680210022FBF7F3F930464FF48061E9
:105610000122FBF7EDF930464FF480610022FBF7E1
:10562000E7F9402000F026FF002000F023FF0F20C4
:1056300000F020FF30464FF480610122FBF7D8F9DB
:1056400030464FF480610022FBF7D2F9402000F091
:1056500011FF0C2000F00EFF0F2000F00BFF304672
:105660004FF480610122FBF7C3F930464FF48061AB
:105670000022FBF7BDF9402000F0FCFE012000F005
:10568000F9FE002000F0F6FE30464FF48061012262
:10569000FBF7AEF930464FF480610022FBF7A8F922
:1056A000402000F0E7FE132000F0E4FE0F2000F0A1
:1056B000E1FE30464FF480610122FBF799F940F298
:1056C0001015C2F2000505F1300738463021FAF70F
:1056D00006FFFFF7BFFD4AF60120ADF8080002A95A
:1056E000002002F00BFB0020FAF7E2FF002001216E
:1056F000FBF716F84FF4E130294641F8100F00206F
:10570000C1E901BBA1F80CB0FAF780FF10B172B685
:10571000FEE700BF0DF1200A00970DE07068009FC2
:10572000B0600026C4F202264FF0010820244FF09A
:10573000FF30002101F0AEFFFBF760F9A968401AC5
:10574000782814D3FBF75AF9A86038463021FAF7C5
:10575000C6FE287800EB400039183C5481F802B0AE
:10576000FFF778FD2878013000F00F002870FBF774
:1057700045F9E968401A1428D9D3FBF73FF9E860E6
:1057800030464FF480610022FBF732F9402000F0F0
:1057900071FE132000F06EFE0E2000F06BFE30460E
:1057A0004FF480610122FBF723F930464FF480610A
:1057B0000022FBF71DF9412000F05CFE122000F0F2
:1057C00059FE002000F056FE074630464FF4806137
:1057D0000122FBF70DF930464FF48061002207F0FB
:1057E0000F04FBF705F9412000F044FE122000F001
:1057F00041FE002000F03EFE074630464FF4806137
:105800000122FBF7F5F807F00F00844214D140F2B3
:105810000001C2F200010878844211D1687804289E
:1058200003D800F1010068700DD140F20000C2F20F
:105830000000047107E000BF85F801B003E000BF7D
:105840000C7085F8018030464FF480610022FBF730
:10585000CFF8402000F00EFE132000F00BFE0D20CC
:1058600000F008FE30464FF480610122FBF7C0F8DB
:1058700030464FF480610022FBF7BAF8412000F077
:10588000F9FD122000F0F6FD002000F0F3FD0746C0
:1058900030464FF480610122FBF7AAF830464FF4FE
:1058A0008061002207F00F04FBF7A2F8412000F00E
:1058B000E1FD122000F0DEFD002000F0DBFD0746D8
:1058C00030464FF480610122FBF792F807F00F0099
:1058D000844213D140F20001C2F2000148788442B0
:1058E00010D1A878042803D800F10100A8700CD1C9
:1058F00040F20000C2F20000447106E085F802B0F8
:1059000003E000BF4C7085F8028030464FF48061A0
:105910000022FBF76DF8402000F0ACFD132000F0F2
:10592000A9FD0B2000F0A6FD30464FF48061012256
:10593000FBF75EF830464FF480610022FBF758F821
:10594000412000F097FD122000F094FD002000F0AF
:1059500091FD074630464FF480610122FBF748F87D
:1059600030464FF48061002207F00F04FBF740F847
:10597000412000F07FFD122000F07CFD002000F0AF
:1059800079FD074630464FF480610122FBF730F87D
:1059900007F00F00844213D140F20001C2F200016F
:1059A0008878844210D1E878042803D800F10100F7
:1059B000E8700CD140F20000C2F20000847106E0F1
:1059C00085F803B003E000BF8C7085F80380304693
:1059D0004FF480610022FBF70BF8402000F04AFDF5
:1059E000132000F047FD072000F044FD30464FF43F
:1059F00080610122FAF7FCFF30464FF480610022FB
:105A0000FAF7F6FF412000F035FD122000F032FDDC
:105A1000002000F02FFD074630464FF48061012240
:105A2000FAF7E6FF30464FF48061002207F00F04DA
:105A3000FAF7DEFF412000F01DFD122000F01AFDF4
:105A4000002000F017FD074630464FF48061012228
:105A5000FAF7CEFF07F00F00844213D140F20001A5
:105A6000C2F20001C878844210D12879042803D8F2
:105A700000F1010028710CD140F20000C2F20000D8
:105A8000C47106E085F804B003E000BFCC7085F86F
:105A9000048030464FF480610022FAF7A9FF4020CD
:105AA00000F0E8FC132000F0E5FC0F2000F0E2FC21
:105AB00030464FF480610122FAF79AFF01F058FD59
:105AC00040F200060028C2F200063FF427AE00278D
:105AD0004FF0030906E000BF0137042F09F1040964
