:020000040800F2
:10000000780B002021030008C54F0008894F000825
:10001000C14F000849080008B15D0008330300081B
:10002000000000000000000000000000A5510008D2
:10003000210A000800000000C94F0008A95100086B
:100040003D0300083D0300083D0300083D03000890
:100050003D0300083D0300083D0300083D03000880
:100060003D0300083D0300083D0300083D03000870
:100070003D0300083D0300083D0300083D03000860
:100080003D0300083D0300083D0300083D03000850
:100090003D0300083D0300083D0300083D03000840
:1000A000250A00083D0300083D030008350A000842
:1000B0003D0300083D0300083D0300083D03000820
:1000C0003D0300083D0300083D0300083D03000810
:1000D0003D0300083D0300083D0300083D03000800
:1000E0003D0300083D0300083D0300083D030008F0
:1000F0003D0300083D0300083D0300083D030008E0
:100100003D0300083D0300083D0300083D030008CF
:100110003D0300083D0300083D0300083D030008BF
:100120003D0300083D0300083D0300083D030008AF
:100130003D0300083D0300083D0300083D0300089F
:100140003D0300083D0300083D0300083D0300088F
:100150003D0300083D0300083D0300083D0300087F
:1001600000000000000000003D0300083D030008FF
:100170003D0300083D0300083D0300083D0300085F
:100180003D0300083D0300083D0300080000000097
:10019000000000003D030008000000000000000017
:1001A00000000000000000003D0300083D030008BF
:1001B0003D0300083D0300083D0300083D0300081F
:1001C0003D0300083D03000800000000000000009F
:1001D0000000000000000000000000003D030008D7
:1001E0003D0300083D03000800000000000000007F
:1001F0003D0300083D0300083D0300080000000027
:10020000000000003D0300083D0300083D03000816
:100210003D0300083D0300083D0300083D030008BE
:100220003D03000800000000000000003D0300083E
:100230003D03000800000000000000000000000076
:100240000000000000000000000000003D03000866
:100250003D03000800F002F800F052F814A696E8FA
:10026000000CB244B344DA4501D100F049F8BAE8D1
:100270000F000FA696E83000A5EB040504EB060777
:10028000AAEB0704A7F101074FEA15154FEA34144A
:10029000A4F10104AC4201D300F032F813F0010FD5
:1002A00018BFFB1A43F0010300F001F8DBE7184721
:1002B000385D0000585D0000103A24BF78C878C14E
:1002C000FAD8520724BF30C830C144BF04680C605C
:1002D000704700007047000000230024002500261E
:1002E000103A28BF78C1FBD8520728BF30C148BF99
:1002F0000B6070471FB505F052FE1FBD10B510BD55
:1003000000F0D2F81146FFF7F5FF05F053FD00F0BD
:10031000F0F803B4FFF7F2FF03BC00F0F7F80000B9
:100320000A4880470A480047FEE7FEE7FEE7FEE787
:10033000FEE7FEE7FEE7FEE7FEE7FEE7FEE700007A
:1003400004480549054A064B7047000079520008E9
:100350005502000878050020780B0020780700205F
:100360007807002053EA020C00F069802DE9F04B79
:100370004FF00006002B1FBFB3FA83F503FA05F414
:1003800024FA05F65E4012BF1643B2FA82F502FA6D
:1003900005F4C5F120051EBF22FA05FC44EA0C0451
:1003A000203556EA044C4FEA144418BF641C4FF041
:1003B00000084FF00009904271EB030C39D300297B
:1003C00019BFB1FA81F701FA07F6B0FA80F700FA1F
:1003D00007F6C7F120071EBF20FA07FC46EA0C0605
:1003E0002037B6FBF4FCA7EB0507103F07F01F0B07
:1003F000CBF120062CFA06F60CFA0BFB44BFB346F1
:100400000026202FA4BF5E464FF0000B5BEA060CCF
:1004100008BF4FF0010B19EB0B0948EB0608ABFBCB
:10042000027C06FB02CC0BFB03CCC01B71EB0C0166
:10043000C1E70B46024641464846BDE8F08B13B57E
:10044000084318BF4FF0FF300146AFF30080BDE80E
:100450001C4070474FF0000200B513469446964684
:10046000203922BFA0E80C50A0E80C50B1F12001C7
:10047000BFF4F7AF090728BFA0E80C5048BF0CC075
:100480005DF804EB890028BF40F8042B08BF7047D3
:1004900048BF20F8022B11F0804F18BF00F8012B45
:1004A0007047704770477047754600F02BF8AE46AE
:1004B00005006946534620F00700854618B020B570
:1004C000FFF73EFFBDE820404FF000064FF0000769
:1004D0004FF000084FF0000BAC46ACE8C009ACE8A8
:1004E000C009ACE8C009ACE8C00921F007018D469D
:1004F000704710B50446AFF300802046BDE81040B9
:10050000FFF707BF0048704710000020014918207E
:10051000ABBEFEE726000200704700000146C06D3A
:10052000836D826D13F0500F08D0D20648BF00F0E3
:1005300077BC006D826E0846104700BF42F4007120
:10054000816501680B68CA681B0703D4910707D54A
:1005500000F062BC12F4406FFAD1C9688904F7D484
:10056000816D21F480718165816DC90448BF00F0FF
:1005700053BC816D41F00101816500F04DBC00006C
:10058000C06D816D41F040018165C16D41F0040194
:10059000C16500F045BC0000C06D00F03FBC00002C
:1005A00070B582B004460020019021688A68D207A5
:1005B00011D14FF6C076C7F6FF76886806F17F0244
:1005C00010420BD0A06D40F01000A065E06D40F02F
:1005D0000100E065012002B070BD00BF88683040B6
:1005E00040F00100886048F20830C4F20220006840
:1005F000000221D401F0BEFD21680A68D20717D19C
:10060000054602E00868C00712D18868C00704D117
:100610008868304040F00100886001F0ABFD401B6D
:1006200021680328EED30868C007EBD1CAE700BFF2
:10063000002002B070BD00BF40F20C00C2F200000A
:10064000006842F663518009C0F23E51A0FB0101EF
:100650008809022101EB4000019001980028C9D0CF
:1006600001980138019001980028C3D00198013801
:10067000019001980028BDD001980138019001989F
:100680000028B7D001980138019001980028E7D1DF
:10069000B0E7000000281CBF6FF0010070472DE993
:1006A000F04186B040F68C40C4F20240026800245B
:1006B00042F0010202600268C4F2022402F0010268
:1006C0000192019A026801AD42F0010202600268E3
:1006D000022702F001020192019A02694FF0070815
:1006E00042F40032026100690E4600F400300190CD
:1006F000019804200190012003902046294602978A
:100700000497CDF8148001F06BFC0820CDE90107B7
:1007100020462946CDF8148001F062FC40F2EC102E
:10072000C2F20000314604F031FC002818BF6FF01F
:10073000030006B0BDE8F081B0B586B020B16FF01F
:100740000104204606B0B0BD40F68C40C4F2024021
:100750000168002541F0010101600068C4F2022532
:1007600000F00100019001982020019001200290EA
:1007700003200024049001A92846039401F030FCD2
:1007800028462021002201F0EFFC204606B0B0BD33
:100790007047000000EB400040F28021C2F20001EF
:1007A00001EB800001F0E0BB10B586B040F68C4252
:1007B000C4F202421368044643F004031360126853
:1007C00002F00400019001984FF40050019040F6AF
:1007D00000004FF00202C4F202200392049239B3E7
:1007E0000021C1F21101029101A901F0F9FB04EB12
:1007F000440040F28021C2F2000101EB80040D218F
:10080000C0F20061204601F0A9FB40F641022046FB
:10081000C0F60002002101F0D1FB18200F210022B8
:1008200001F054FD182001F03FFD002006B010BD7E
:100830000021029101A901F0D3FB002006B010BDF8
:100840000020FFF7A5BF0000FEE700002DE9F04300
:10085000D2F800C0D0F808E0002953D0BEF1000F54
:100860004FF0000464D04FF6FC7311EA03094FF017
:1008700000074FF0000300F0B58005684FF6FC73E9
:100880002B40BEF1020F4FF0010455D34B4553D01E
:100890004FF6FF7425EA040605274FF6FC7800BFE3
:1008A00046EA030454F82C50FC1E744505EA08057A
:1008B0004ED24D454CD046EA050353F82C30BC1EB1
:1008C000744503EA08031AD24B4518D046EA0304DC
:1008D00054F82C507C1E744505EA080538D24D4565
:1008E00036D046EA050353F82C30774503EA08036F
:1008F00007F1040402D24B452746D1D1043C1F46E0
:100900002B466FE0BEF1000F1AD004684FF6FC755D
:10091000BEF1010304EA050716D04FF6FF75AC439C
:10092000AEF10205032D03F0030813D230E000BF3F
:100930000027002356E000BF1F46002352E000BFFF
:1009400000230027002456E00124002353E000BFC9
:100950002F4647E023F003054FF6FC7644EA0703F1
:1009600053F82C30043D03EA060343EA040353F82A
:100970002C3003EA060343EA040353F82C3003EA5D
:10098000060344EA030757F82C7007EA0607E5D187
:100990003D46B8F1000F24D044EA050353F82C601B
:1009A0004FF6FC73B8F1010F06EA030604D1744652
:1009B00037462B4616E000BF44EA060555F82C5092
:1009C000B8F1020F03EA050304D174461F4633460B
:1009D00008E000BF1C4354F82C404FF6FC7504EAB5
:1009E0000507744639B14FF6FC7631408F421CBF83
:1009F0000120BDE8F0834088946043EA004147EA63
:100A000000435160D36053F82C1029B14FF6FC73AA
:100A100000041940084310610020BDE8F083000085
:100A2000704700000020FFF7B5BE000072B600BF9F
:100A3000FEE7000040F27410C2F2000001F060B95D
:100A4000F0B581B00022009290F85420012A03D121
:100A50000221084601B0F0BD0123076880F8543038
:100A6000BB685B0750D40B6848F2083C012BC4F20A
:100A7000022C0AD00226C0F23046B3420FD1CE6813
:100A80000025C4F27F05AE4209D14FF6C056CFF61D
:100A9000FF765CF8065045F001054CF806504E68AC
:100AA0001F22C6F3012506F01F0607EB8505C3F3D9
:100AB00084632C6BB24024EA0202B3401A432A63D7
:100AC000BA68BB6802F0040203F00803D21840F0D1
:100AD000BC800A6807F11403C2F3406404268D68E1
:100AE00006EAD25E53F82460C2F304540722A240FF
:100AF000B5F1004F26EA02060CD143F80E601A68E1
:100B000042F000430EE000BF816D41F0200181659D
:100B100001217BE105FA04F2324343F80E201A6802
:100B200022F000437B61D1E90435FE68042B5FD1DC
:100B30003A6E3A6E0B68C2F3846293FAA3F4B4FA85
:100B400084F5C3F3846E6FF31F532C46002B08BF4C
:100B50007446A2424FF6FF74C0F20F040CD13A6EF5
:100B600022F000423A660A6802EA0403C2F3846E85
:100B700092FAA2F2B2FA82F57A6E7A6E002BC2F382
:100B800084622E4608BF7646B2420CD17A6E22F0BD
:100B900000427A660A6802EA0403C2F3846E92FA9B
:100BA000A2F2B2FA82F5BA6EBA6E002BC2F3846278
:100BB0002E4608BF7646B2420CD1BA6E22F00042F1
:100BC000BA660A6802EA0403C2F3846E92FAA2F2D9
:100BD000B2FA82F5FA6EFA6E002B08BF7546C2F3C0
:100BE0008462AA4231D1FA6E22F00042FA662CE009
:100BF000062202EA960207F16004D1F800E054F8F8
:100C0000236005FA02F24FF20005C0F2FF353540CD
:100C10000EF0F84632432A4342F0004244F82320C3
:100C20000A698B6954F8226026F08076334344F8D1
:100C300022300A690B7F54F82260012B26F00076DF
:100C400008BF06F1007644F82260BA680C68D20743
:100C500052D1CA68D7F8B06023466FF31F5326EA13
:100C6000030E4FF6FF7602F01805C0F20F0626FAC3
:100C700005F5254045EA0E060025C4F27F05AA4287
:100C8000C7F8B06038D18BB194FAA4F2B2FA82F20C
:100C9000013202F01E03092B02F01F030FD80122BC
:100CA00003EB43069A4042EA065315E0012202EBA9
:100CB000946202F01E030A2B02F01F03EFD303EB32
:100CC00043020025CFF62065012605EB025206FA05
:100CD00003F31A4342F00073C3F34062C3F30453B7
:100CE00007EB82028E68556907249C40A54306FAEB
:100CF00003F32B4353610C680021C8F208010C4236
:100D000000F08380DCF800500021CCF221318C42CD
:100D100005F0E07108BF15F4000215D00022C4F2FE
:100D2000293294424AD10022B2EB116F46D1ACF580
:100D30000272974269D1DCF8002022F0E072114380
:100D400041F080715FE000BFACF5427297425CD128
:100D5000DCF8002022F0E072114341F40001CCF8ED
:100D6000001040F20C01C2F20001096842F6635221
:100D70008909C0F23E52A1FB02129109022202EB44
:100D800041010091009900293FD00099013900915B
:100D90000099D1B30099013900910099A9B3009944
:100DA00001390091009981B30099013900910099AE
:100DB00000294FF00001E8D128E000BF0022CCF26A
:100DC0005272944208BF15F4800211D0ACF5427102
:100DD0008F424FF0000119D00022C4F25A7294429F
:100DE00014D1D7F8C81041F00101C7F8C8100CE0C1
:100DF000ACF54272974208D1DCF8002022F0E07294
:100E0000114341F48001CCF800100021002280F849
:100E10005420084601B0F0BD704700007047000044
:100E200070470000B0B582B000210028019155D074
:100E3000816D39B9044600F0F3F820460021E165E0
:100E400084F854100268916889004FF6C071C5F6A5
:100E5000FF7102D593680B4093609368DB002ED43A
:100E6000936801F18051194041F08051916040F246
:100E70000C01C2F20001096842F663538909C0F20D
:100E80003E53A1FB03139909022303EB4101019196
:100E90000199A1B1019901390191019979B10199A2
:100EA00001390191019951B10199013901910199DA
:100EB00029B101990139019101990029EAD191687B
:100EC000C90011D4816D4FF0010E41F01001816510
:100ED000C16D41F00101C16508E000BF4FF0010E96
:100EE000704602B0B0BD00BF4FF0000E9368846D35
:100EF00003F0040304F010041B19836D72D123F472
:100F00008173023383659368DB071AD148F2083C8A
:100F10004FF600544FF60063C4F2022CCFF6FF7474
:100F2000CFF6FF735CF804405CF803302343DB0723
:100F300007D14368DCF8004024F47C142343CCF848
:100F40000030437E846BD0E902C144EA433390F819
:100F50002040194341EA0C0141EA0443012C06D127
:100F6000416A0024CFF6FE7404EB41410B43846ACE
:100F700024B1C16A04F4787421430B43D16844F26C
:100F80000704CFF6F07421401943D1601169036B57
:100F900021F0406119431161916809072DD490F83F
:100FA0003430017E5B0090F83CC043EA8131D36865
:100FB00044F20204A3431943D1601369BCF1010F49
:100FC00018D140F2FD7123EA010CD0E91034D0E9C8
:100FD000121543EA0C0323431943294341F001034B
:100FE0000AE000BF43F010024FF0010E8265704628
:100FF00002B0B0BD23F0010313610169136B012935
:1010000023F00F0302BFC16901390B431363826DE3
:10101000012161F301028265704602B0B0BD00009B
:10102000F0B5D5B004466846002600250830C82132
:101030005496CDE95266CDE95066C4F20225FFF719
:1010400009FA206805F50041884201D055B0F0BD8D
:101050004FF4001000906846019602F0B7FA00289D
:1010600018BFFFF7E3FC40F68C40C4F20240016871
:10107000012641F4806101600168002701F480616C
:1010800035913599016841F001010160006850A96E
:1010900000F0010035903598032051902846509675
:1010A000529700F09DFF212040F2E801CDE935077D
:1010B00035A8C2F20001CDE93777CDE93977CDE91E
:1010C0003B77CDE93E664697CDE94077CDE942775B
:1010D000449700F0FBF8002818BFFFF7A7FC40F288
:1010E000D00040F2E802C2F20000C2F20002002189
:1010F00000F0DEFB002818BFFFF798FC40F2D0009C
:10110000C2F2000000F0E6FC002818BFFFF78EFCDA
:1011100040F274105021C2F20000C4F202010160DA
:1011200000218122C0E90E11C0E91011826400F093
:1011300033FA002818BFFFF779FC40F27415C2F2A9
:10114000000540F2D001C2F20001284600F046FC42
:10115000002818BFFFF76AFC284610212565EC65BA
:1011600000F0B0FD002818BFFFF760FC55B0F0BDDF
:101170002DE9F0419CB048F20017C4F20227D7F8DD
:1011800008320668B668760703D490F85460012EDA
:1011900004D102201CB0BDE8F08100BF03F01F04A1
:1011A0000123092C80F8543056D8A34040F2212660
:1011B000334251D0884615460646FFF7F1F938B15B
:1011C000002086F8540001201CB0BDE8F08100BF6B
:1011D0003168B06D40F601739843324600F5807077
:1011E000B0650CB1B94203D0906D20F480109065C9
:1011F000906D40F21D54C0044FF0000044BFD06D0C
:1012000020F00600D065106DC0F6000440F299573A
:10121000046640F28154C0F60007C0F600044FF0A7
:10122000000CC0E919741C270F6082F854C04A688A
:101230002B4642F010024A60CA6842F00102CA60BE
:1012400090F8502012060FD48269012A1ED0022A7B
:1012500008BF9D001BE000BF002180F85410012052
:101260001CB0BDE8F08100BF406F0028ABD0016822
:101270000029A8D001A800F0E3F80028A3D107981E
:10128000012815D0022808BFAD0012E05D004031F2
:1012900042462B4600F008FE31684FF6C0738A685C
:1012A000C7F6FF731A4004328A601CB0BDE8F081B3
:1012B0006D003146086D0968426F40311268C2E91D
:1012C0000251C2F8108000F091FCE5E700284FF0D1
:1012D000010218BF002901D110467047B0B5D0E90E
:1012E00004C2C369D0F818E01A43C36B1A4342EA38
:1012F0000C0242EA0E020A6003789B0616D5D0E97A
:1013000009C34FF07C75D0F82CE0846B05EB0353D8
:101310004FF47C7505EB0C1503F07C7344EA0E0466
:1013200005F47C7523432B431A430A604268036B20
:1013300040F2FF252A401A434A60C368B3F5007F94
:1013400005D0B3F5806F04D10578AD0601D51A43F9
:101350004A60436B1A434A60436C43B1856C046C2A
:1013600005F03F0544EA05452A431A434A60B0F8B0
:10137000683040F2000C8B600278C0F2FF7C92076C
:1013800022D5C56C4FF080540CEB054505EA0C05E1
:101390002B438B60056D04EAD5054FF000542B44B8
:1013A0008B60456D04EA95054FF080442B448B60BB
:1013B000856D04EA55052B448B60C56DB5F1FF3F83
:1013C000DCBF03F100438B60036ECB60436E0B61A7
:1013D00003789B0702D4142323E000BF036D0CF1B4
:1013E000C052002B48BF5B426FF35F334B61456DCA
:1013F0002C04002D48BF05FB02F422401A434A6129
:10140000836D0CF17844002B48BF5B429AB28A612D
:10141000C36D1D04002B48BF03FB04F52A431C23A6
:101420008A610022CA50006883074FF4E06358BF06
:101430004FF4A06318430862BDE8B04010467047FF
:1014400000284FF0010218BF002901D11046704753
:1014500091F820C042F20002C0F800C00B68C0F64C
:10146000004203F0080303610B6803F400234361A7
:101470000B6803F0030383610B6803F44033C3611B
:101480000B68C3F30513013343620B68C3F30553C1
:10149000013383620B6803F04023C3620B681A4078
:1014A00082630A6802F4C052C2634B689A0509D489
:1014B000DAB242604A79520754BF00224FF4806288
:1014C00003E000BF4FF400724260C2604A685FEA06
:1014D0008C7302F4006282604A6802F44042026443
:1014E0004A6802F040724264CA8802F03F02826495
:1014F0004A6802F0404202630A8982660CD40122E3
:10150000C264CA680266096900224166C0E9142201
:10151000C0E916221046704780B54A896FF3DF2272
:101520000132C264CA6802660A6942664B696FF397
:101530005F330365B1F816C06FF35F3CC0F854C069
:10154000D1F808E05FEACE0203D55A420265D1F82D
:1015500008E05FEA8E0244BFCCF100024265B1F8B8
:1015600018E0C0F858E08A694FEA124CC0F85CC035
:101570008A68530003D5CEF1000282658A68B2F111
:10158000FF3FBDE88040C4BF00207047CCF10001A0
:10159000C165002070470000B0B5044600F0EAFDC8
:1015A000002C04BF0120B0BD00210546206884F84E
:1015B0004C10022184F85410416941F00601416148
:1015C00020684169C9070BD000F0D4FD401B0528F5
:1015D000F6D9012003221021A16584F85420B0BD62
:1015E000D4E90E124F23C5F20203984242EA0102E7
:1015F00040F24F31C5F202011CDC41F24F03C4F24C
:101600000203984232DC40F24F23C4F202039842B4
:101610005ADC40F24F13C4F20203984200F3948064
:101620005023C4F20203984200F0E880D023C4F2B1
:101630000203E1E041F24F03C5F2020398422DDCC0
:1016400040F24F23C5F2020398424FDC40F24F13A1
:10165000C5F20203984200F383805023C5F20203CF
:10166000984200F0CB80D023C4E000BF41F24F236A
:10167000C4F20203984245DC41F24F13C4F2020364
:10168000984277DC41F25003C4F20203984200F022
:10169000B58041F2D003C4F20203ADE041F24F2322
:1016A000C5F2020398423FDC41F24F13C5F2020338
:1016B00098426BDC41F25003C5F20203984200F0FD
:1016C0009D8041F2D00395E040F24F33C4F2020313
:1016D000984265DC40F25023C4F20203984200F0C5
:1016E0008D8040F2D023C4F2020385E0884263DC9F
:1016F00040F25023C5F20203984200F07F8040F28E
:10170000D02377E041F24F33C4F2020398425DDC0C
:1017100041F25023C4F2020398426FD041F2D02329
:10172000C4F2020368E000BF41F24F33C5F2020386
:10173000984257DC41F25023C5F2020398425DD033
:1017400041F2D02356E000BF40F25013C4F202032E
:10175000984253D040F2D013C4F202034CE000BFD1
:1017600040F25013C5F20203984247D040F2D01322
:1017700040E000BF41F25013C4F2020398423DD052
:1017800041F2D013C4F2020336E000BF41F250131D
:10179000C5F20203984231D041F2D0132AE000BFD3
:1017A00040F25033C4F20203984227D040F2D033C3
:1017B000C4F2020320E000BF40F25033C5F202033E
:1017C00098421BD040F2D03314E000BF41F25033B6
:1017D000C4F20203984211D041F2D033C4F20203A2
:1017E0000AE000BF41F2D033C5F20203984205D0AF
:1017F00041F25033C5F20203984201D1236C1A43DF
:101800004369884223F4430342EA030242614FF0F2
:1018100000020264636C43648264C264026511DC8A
:1018200041F24F31C4F2020188421BDC40F25031D8
:10183000C4F2020188422DD040F2D031C4F202013C
:1018400026E000BF41F24F31C5F20201884215DCAB
:1018500040F25031C5F2020188421BD040F2D03133
:1018600014E000BF41F25031C4F20201884211D0AD
:1018700041F2D031C4F202010AE000BF41F2D0319E
:10188000C5F20201884205D041F25031C5F2020191
:10189000884202D10021416581650021C167A06CA9
:1018A000012220650020A16584F85420B0BD00000D
:1018B00000284FF0010318BF002A01D118467047D5
:1018C0004369012B04D104210123016118467047AB
:1018D0002DE9F04186B0036842EA01070E461F4336
:1018E000002908BF1646002B18BF1E467740B7F5E3
:1018F000803F09D253B193F8206051B191F8207024
:10190000BE4206D028E000BF052126E029B191F8AB
:10191000206092F82070BE421ED102270773002774
:101920000761176A00247E08CFF6010466F3596444
:1019300007F0020766F39A6407F10505A3B1E9B160
:10194000904601AA019506460F46FEF77FFFE8B1D3
:101950000620306102E000BF04210161012306B0CE
:10196000BDE8F04118467047E1B14FF6FC731A40EC
:101970002243016041F82520022124E04FF6FC714A
:101980001940214342F8251002601AE00399B26819
:10199000304691420AD1416861B14FF6FC72114064
:1019A000214305E0026001210DE000BF57F825103A
:1019B00048F825104FF6FC7101EA0801214347F869
:1019C00025108168013181600023012103610173C9
:1019D00006B0BDE8F04118467047000000284FF0FF
:1019E000010218BF002901D110467047D0F850C03D
:1019F000BCF1000FF8D090F8543090F85420022A2F
:101A000018BF052B06D140218165002180F84C10BC
:101A1000012070470A7B022A04D101220A61104684
:101A2000704700BF036840F24F32C5F20202934292
:101A300010DC41F24F32C4F2020293421ADC40F24F
:101A40005032C4F2020293422CD040F2D032C4F29F
:101A5000020225E041F24F32C5F20202934215DC48
:101A600040F25032C5F2020293421BD040F2D03213
:101A700014E000BF41F25032C4F20202934211D08E
:101A800041F2D032C4F202020AE000BF41F2503209
:101A9000C5F20202934205D041F2D032C5F20202F1
:101AA00093420DD14B68BCF1810F03D123B1416743
:101AB00000207047002BFAD00420086101207047F5
:101AC0000A6892F820209207ECD5032008610120D3
:101AD00070470000002804BF01207047016839B139
:101AE00042684AB18A4204BF0020704707E000BF45
:101AF00002210161012070474269012A04D10421B9
:101B000001610120704700BFF0B50222027300227C
:101B100002610A6A40F2000E5308CFF6010E63F329
:101B2000596E02F00202856863F39A6E531D4FF6F8
:101B3000FC72002D01EA020C47D0012D02D165464E
:101B400043E000BF4FF6FF726E1EAC1E21EA020298
:101B5000032C06F0030401D265461EE026F00306BE
:101B60004FF6FC77654600BF154355F82350043EF9
:101B700005EA070545EA020555F8235005EA070579
:101B800045EA020555F8235005EA070545EA02052E
:101B900055F8235005EA0705E6D1B4B1154355F8C9
:101BA00023504FF6FC76012C05EA06050DD01543AF
:101BB00055F82350022C05EA060506D02A4352F8B0
:101BC00023204FF6FC7402EA04054FF6FF7221EA67
:101BD00002022A434EEA0C074160002142F82370BA
:101BE0000161012101730020F0BD000000285DD0DB
:101BF000436F002B5AD0016D002957D080B590F863
:101C00005410D0F800E00129DEF814C004D00229F5
:101C10004ED11CF480314BD090F8541001293AD1A8
:101C200090F84C1001294FF002013BD0012280F8BE
:101C30004C2080F854101973002181651961DEF879
:101C4000141041F4BA41CEF81410416E29B1DEF8F7
:101C5000141041F40071CEF81410006F28B1DEF8B2
:101C6000140040F40050CEF8140018680022016AF5
:101C7000CFF60102490861F3596261F39A624FF6A7
:101C8000FF7120EA0101CEF800104FF6FC71084008
:101C90001044CEF87C00DEF81400002140F0010072
:101CA000CEF81400BDE88040084670470120704718
:101CB00040218165002180F84C100121BDE8804061
:101CC00008467047024600284FF0010008BF7047E1
:101CD000CB0612D5136840F6FF7223EA020203F521
:101CE0007B63C3F3C41301F01101984011295168BB
:101CF00014BF21EA00000843506000207047000034
:101D000010B504680C23214604F57B6263F30B01D4
:101D1000C2F3C4120968D140C9074BD021694905F3
:101D200044BF61695FEA415146D42169090544BF56
:101D300061695FEA015147D42169C90444BF6169FF
:101D40005FEAC14148D42169490444BF61695FEA3F
:101D5000414149D42169890544BF61695FEA8151E4
:101D60004AD42169890444BF61695FEA81414FD443
:101D70002169C90544BF61695FEAC15164D4816DBD
:101D8000C1B101684A6942F002024A61012180F84A
:101D9000541090F85020120644BF426F1173816EA8
:101DA0000022002980F84C2008BF10BDBDE810407B
:101DB000084700BF10BD00BF4FF48061E160816D36
:101DC00041F001018165B0E74FF40061E160816D90
:101DD00041F002018165AFE74FF48051E160816D10
:101DE00041F004018165AEE74FF48041E160816D0F
:101DF00041F008018165ADE74FF40071E160426E8A
:101E0000002AAED00446904720462468A9E700BFC8
:101E10004FF40051E16090F8541004291ED161691B
:101E2000012221F400516161616941F002016161A7
:101E300080F8542090F85010090603D5416F0A73BA
:101E40000021A164C16EABE790F85010090611D4CF
:101E5000A16CD9B900F1540216E000BF052180F849
:101E60005410026F002A3FF483AF04469047204687
:101E700024687DE7E16F49B9A16C39B9012180F887
:101E80005410416F01F10C02012111704FF44071A7
:101E9000E160016E0022002980F84C203FF46FAF12
:101EA0000446884720466AE720B1D0F850C0BCF10C
:101EB000000F01D00120704790F84CC0BCF1010F19
:101EC00004BF022070474FF0010C80F84CC090F81E
:101ED00054C0BCF1010F39D110B54FF0020C80F89D
:101EE00054C04FF0000CC0F858C0D0F800C0D0F873
:101EF00064E0DCF84840BEF1000FC3EA0403CCF80C
:101F000048304FF4FE43CCF80C30CCF84C10CCF8F1
:101F10005020DCF8141041F4BA41CCF8141005D06C
:101F2000DCF8141041F40071CCF81410006F28B1E3
:101F3000DCF8140040F40050CCF81400DCF8140075
:101F400040F00100CCF81400002010BD4021816554
:101F5000002180F84C1001207047000000280EBFBF
:101F60000120016000207047F0B581B00446006890
:101F7000082202EA503542F20C07C4F2024700F090
:101F80001F01012057F8252000FA01F6164205D05E
:101F900047F825606068002818BF8047381D50F852
:101FA0002510314208D040F82560A06820B101B06A
:101FB000BDE8F040004700BF01B0F0BD022906D0E7
:101FC000012909D000291CBF012070474260082167
:101FD00042500020704700BF04214250002070474B
:101FE0000A68002A08BF70472DE9F04F83B000F15E
:101FF0002003019347F67F73C0F22F0303EA902377
:102000004FF0000A4FF0010B00274FF0000C0025A5
:1020100000930BE00A68013532FA05F30CF1040C69
:1020200007F102070AF1080A00F09A800BFA05F995
:1020300012EA0902EED0D1F80480029248F01006AC
:10204000122E1BD16FF0030202EA5506DDF804B030
:102050000CF01C025BF80640D1F810800F2303FA45
:1020600002FE08F00F0324EA0E0403FA02F22243F0
:102070004BF80620D1F804804FF0010B02680323CF
:10208000BB4008F0030EDC439A430EFA07F31A43F1
:10209000B8F1120F02605BD80BFA08F212F0061FBB
:1020A00056D08368D1E902262340BE403343836083
:1020B00043684FEA181623EA0903AE4033434360EE
:1020C000C368BA4023401A43C260029C5FEAC80258
:1020D000A0D542F2000E25F00302C4F2024E724473
:1020E000D2F860800AF018060F23B34028EA0308EC
:1020F000009B03FA06F648EA06031366DEF8008042
:102100004B6848EA0406DA0258BF28EA0406CEF80B
:102110000060DEF804809A0248EA040658BF28EA04
:102120000406CEF80460DEF884809A0348EA0406C8
:1021300058BF28EA0406CEF88460DEF88020DB036E
:1021400042EA040658BF22EA0406CEF8806061E73E
:102150008A68BEF1030F08BF012AB1D1B5E700BFFD
:1021600003B0BDE8F04F70471823002A08BF2823AA
:10217000C150704740F27050C2F2000000687047D2
:1021800040F20041C4F20301086840F0010200205F
:102190000A60704740F2000040F27051C2F2000045
:1021A000C2F2000100780A6810440860704700001D
:1021B00080B5032000F0B6F802F0E0F840F62041C8
:1021C000C4F20241096845F6B87201F00F01C0F689
:1021D0000002515CC84040F20C01C2F200010860EC
:1021E000042002F083FC0F2000F008F800281CBF38
:1021F000012080BD00F056F8002080BDB0B540F24F
:102200000005C2F200052978E1B304464EF2100041
:10221000CEF200000068400710D402F0B5FC02289E
:1022200024D001281AD078BB40F20C00C2F2000082
:10223000006829784FF4FA5207E000BF40F20C0022
:10224000C2F2000000684FF47A72B2FBF1F1B0FB09
:10225000F1F002F087FCA8B91BE000BF28784FF42A
:102260007A71B1FBF0F04FF4FA4106E028784FF4B0
:102270007A71B1FBF0F04FF40041B1FBF0F002F0E5
:1022800071FC30B10120B0BD002002F06BFC0028D1
:10229000F8D14FF0FF302146002200F017F800205F
:1022A0006C60B0BD70470000002848BF704700F068
:1022B0001F010122C0F34A1002FA01F14EF200128E
:1022C000CEF2000242F820107047000010B54EF622
:1022D0000C5CCEF2000CDCF80030C3F3022E8EF062
:1022E0000704042C28BF0424BEF103034FF0FF3E73
:1022F00038BF00230EFA04F4A14399400EFA03F309
:102300009A43114300F00F0200F160430901043ABF
:1023100003F564436244002848BF02F10C031970BE
:1023200010BD00004EF60C51CEF200010A684FF6C7
:10233000FF031A4060F30A2242F0806040F0FD7013
:102340000860704701220168C0F8D822002280F896
:10235000CC22486D40F001004865486D40F0020213
:1023600000204A6570470000002804BF0120704724
:10237000F0B581B0044690F8950228B9002084F8A1
:102380009402204600F01CF9032084F8950220688E
:1023900003F0F2FC94E80F00267C009603F0C4FCE6
:1023A000002840F0F4802068002103F0EFFC0028B2
:1023B00040F0ED8094F804E0BEF1000F00F0E08002
:1023C0000EF0030CBEF1040F4FF0000238D30EF0F4
:1023D000FC03A4F1A0000321012500BFCE1E80F85C
:1023E000B4608E1E80F8DC604E1E80F8046180F8B8
:1023F0002C110E1D013180F8B55080F8B720C0E9CE
:102400003122C0F8CC2080F8DD5080F8DF20C0E910
:102410003B22C0F8F42080F8055180F80721C0E97C
:102420004522C0F81C2180F82D5180F82F21C0E9E9
:102430004F22C0F84421A03099423146CED1F21E3D
:10244000BCF1000F2ED002EB820104F1140000EB6E
:10245000C105012300F831200021BCF1010F6B7090
:10246000E970C5E90411A9611CD0551C05EB85066E
:10247000BCF1020F00EBC60700F836507B70F97014
:10248000C7E90411B9610DD0911C01EB810201254E
:1024900000EBC20300F8321000205D70D870C3E971
:1024A00004009861BEF1000F6AD0BEF1040F4FF036
:1024B000000235D30EF0FC0003212346CF1E83F823
:1024C00054718F1E83F87C714F1E83F8CC110D1D43
:1024D000013183F8552183F85721C3E95922C3F804
:1024E0006C2183F87D2183F87F21C3E96322C3F83F
:1024F000942183F8A52183F8A47183F8A721C3E967
:102500006D22C3F8BC2183F8CD2183F8CF21C3E924
:102510007722C3F8E421A03381422946CED1EA1EB6
:10252000BCF1000F2CD002EB820304F5AA7000EB83
:10253000C3070021BCF1010F797000F83320F97056
:10254000C7E90411B9611BD0531C03EB8307BCF12D
:10255000020F00EBC70600F837307170F170C6E962
:102560000411B1610CD0911C01EB8102002700EB3A
:10257000C20300F832105F70DF70C3E904779F6117
:1025800094E80F00277C009703F0E6FB30B10220AF
:1025900084F89502012001B0F0BD00BF00206074F6
:1025A000012084F89502207B012804BF2046FFF714
:1025B000C9FE206803F0C8FB002001B0F0BD000098
:1025C00010B5B6B0044602A80830C821FDF742FF96
:1025D000206846F20001C4F20101884202D036B000
:1025E00010BD00BF102003900020029030203390D7
:1025F00002A800F0EBFF002818BFFEF717FA00F062
:102600000FF840F6A440C4F20240016841F0807126
:102610000160006800F080700190019836B010BD34
:1026200040F63800C4F20240016841F000710160D8
:102630007047000010B540F6284CC4F2024CDCF89C
:102640000C20DCF800E0DCF80010C1F30523DCF816
:102650000010DCF81040002B3CD0E408C90604EA66
:10266000E1716FF35F3100EE101A0EF003016FF3AA
:102670005F22B8EE400ADFE801F00303333900BF00
:102680005CF8281C49F20004C1F3C101C0F2D03447
:1026900024FA01F101EE101A02EE103AB8EE411AD6
:1026A000B8EE422A9FED493A81EE021A02EE102A54
:1026B00020EE030AB8EE422A30EE020AB7EE002AF4
:1026C00030EE020A20EE010A5CF8281C89012DD5A3
:1026D00028E000BF0021C0E90011816010BD00BFEB
:1026E00001EE103A9FED3B2A04E000BF01EE103AE4
:1026F0009FED372AB8EE411A82EE011A02EE102A37
:102700009FED323AB8EE422A20EE030A30EE020A7A
:10271000B7EE002A30EE020A21EE000A5CF8281C0F
:10272000890103D5DCF80010C90307D4002101603A
:102730005CF8281C890115D418E000BFDCF80C10E7
:10274000C1F34621013101EE101AB8EE411A80EEB4
:10275000011ABCEEC11A11EE101A01605CF8281CB7
:10276000890103D5DCF80010890301D400210EE0B3
:10277000DCF80C10C1F30641013101EE101AB8EE7D
:10278000411A80EE011ABCEEC11A11EE101A416016
:102790005CF8281C890144BFDCF800105FEA413175
:1027A00002D40021816010BDDCF80C10C1F3066179
:1027B000013101EE101AB8EE411A80EE010ABCEEAA
:1027C000C00A10EE101A816010BD00BF0000003971
:1027D00020BCBE4B0024744A10B540F62C4CC4F209
:1027E000024CDCF81020DCF800E0DCF80010C1F34B
:1027F0000523DCF80010DCF81440002B3CD0E40882
:10280000C90604EAE1716FF35F3100EE101A0EF0B1
:1028100003016FF35F22B8EE400ADFE801F0030323
:10282000333900BF5CF82C1C49F20004C1F3C1012C
:10283000C0F2D03424FA01F101EE101A02EE103A7F
:10284000B8EE411AB8EE422A9FED493A81EE021ADB
:1028500002EE102A20EE030AB8EE422A30EE020AF7
:10286000B7EE002A30EE020A20EE010A5CF82C1CBA
:1028700009012DD528E000BF0021C0E900118160C9
:1028800010BD00BF01EE103A9FED3B2A04E000BFEF
:1028900001EE103A9FED372AB8EE411A82EE011A86
:1028A00002EE102A9FED323AB8EE422A20EE030AD9
:1028B00030EE020AB7EE002A30EE020A21EE000ADC
:1028C0005CF82C1C090103D5DCF80010C90307D4FF
:1028D000002101605CF82C1C090115D418E000BF30
:1028E000DCF81010C1F34621013101EE101AB8EEE8
:1028F000411A80EE011ABCEEC11A11EE101A0160E5
:102900005CF82C1C090103D5DCF80010890301D404
:1029100000210EE0DCF81010C1F30641013101EE98
:10292000101AB8EE411A80EE011ABCEEC11A11EE6F
:10293000101A41605CF82C1C090144BFDCF800103F
:102940005FEA413102D40021816010BDDCF8101033
:10295000C1F30661013101EE101AB8EE411A80EEA2
:10296000010ABCEEC00A10EE101A816010BD00BF53
:102970000000003920BCBE4B0024744A10B540F65C
:10298000304CC4F2024CDCF81420DCF800E0DCF837
:102990000010C1F30523DCF80010DCF81840002B10
:1029A0003CD0E408C90604EAE1716FF35F3100EE40
:1029B000101A0EF003016FF35F22B8EE400ADFE851
:1029C00001F00303333900BF5CF8301C49F2000406
:1029D000C1F3C101C0F2D03424FA01F101EE101AA2
:1029E00002EE103AB8EE411AB8EE422A9FED493A8B
:1029F00081EE021A02EE102A20EE030AB8EE422AF5
:102A000030EE020AB7EE002A30EE020A20EE010A8A
:102A10005CF8301C89002DD528E000BF0021C0E9FA
:102A20000011816010BD00BF01EE103A9FED3B2AFE
:102A300004E000BF01EE103A9FED372AB8EE411ACC
:102A400082EE011A02EE102A9FED323AB8EE422AC7
:102A500020EE030A30EE020AB7EE002A30EE020A38
:102A600021EE000A5CF8301C890003D5DCF8001068
:102A7000C90307D4002101605CF8301C890015D41B
:102A800018E000BFDCF81410C1F34621013101EE5B
:102A9000101AB8EE411A80EE011ABCEEC11A11EEFE
:102AA000101A01605CF8301C890003D5DCF80010B6
:102AB000890301D400210EE0DCF81410C1F30641B3
:102AC000013101EE101AB8EE411A80EE011ABCEE87
:102AD000C11A11EE101A41605CF8301C890044BF25
:102AE000DCF800105FEA413102D40021816010BDA2
:102AF000DCF81410C1F30661013101EE101AB8EED2
:102B0000411A80EE010ABCEEC00A10EE101A816074
:102B100010BD00BF0000003920BCBE4B0024744A29
:102B200080B584B04FF6FF730246C0F23F03002029
:102B30009B1A70EB0103C0F2618041F6FF739B1A90
:102B400070EB0103C0F29080B2F1010E61F1000C54
:102B5000DEF11F034FF0000373EB0C03C0F0CE81D6
:102B6000DFE81EF02000A6029A03EA019A039A0306
:102B70009A0346029A039A039A039A039A039A03C2
:102B80009A0376029A039A039A039A039A039A0382
:102B90009A039A039A039A039A039A039A039A034D
:102BA0009A03160240F60040C4F20240D0F8D81052
:102BB00011F0070100F000840268012903D112F02E
:102BC000006240F01D840268022903D112F0005215
:102BD00040F0D38303680268032903D113F0020392
:102BE00040F0A984042903D112F4007240F0D58486
:102BF000D0F8F000052900F063BC00BF6FF040433F
:102C00009B1A70EB01036FDA072940F3CD80B1F511
:102C1000007F80F2218181F00803134300F0EC82F1
:102C200081F01001114340F0378340F60040C4F2B8
:102C30000240D0F8E41001F03001102900F0DA83EE
:102C40000268202903D112F0005240F096830068F8
:102C500010F400501CBF46F60040C0F2DC203029C2
:102C600018BF002018E300BF4FF6FF739B1A4FF008
:102C7000000C7CEB010380F2BB804FF6FF73C0F2C7
:102C800003039B1A7CEB0103C0F2028182F48033C0
:102C90000B4300F0E58282F40032114340F0FC82E5
:102CA00040F60040C4F20240D0F8DC10C1F302212B
:102CB000052900F2AB83DFE811F039010503790340
:102CC000CD03C303070000BFD0F8E8100368026813
:102CD0009B0701F0404102D5002900F02C849205A9
:102CE00000F1368400F037BC6FF078439B1A4FF048
:102CF00000038B4124DB82F480030B4300F05682F7
:102D000082F000730B4300F0F98182F0806211437E
:102D100040F0C28240F60040C4F20240D0F8E81011
:102D2000026801F03001920440F14C83002940F028
:102D3000498346F60040C0F2DC2004B080BD00BFED
:102D400082F000630B4300F03B8282F080530B4320
:102D500000F0068282F00052114340F09D8240F65E
:102D60000041C4F20241D1F8E000C0F38212042A0B
:102D700000F24C8348F20000C0F2BB00DFE812F022
:102D80003A03A20236028C02060000BFD1F8E82006
:102D90000B6808689B0702F0404240F10282002A5B
:102DA00000F0A083FDE100BF82F080430B4300F000
:102DB000CB8281F00203134300F08A8281F0040188
:102DC000114340F0698240F60040C4F20240D0F85E
:102DD000E8100068800301F4407040F1058300288A
:102DE00040F0028347F64000C0F27D1004B080BD81
:102DF00082F400530B4300F0C78282F480430B43FC
:102E000000F07E8282F40042114340F0458240F699
:102E10000040C4F20240D0F8E41001F44011B1F5D2
:102E2000801F00F0C382002900F0808002680068E3
:102E3000B1F5001F03D112F0020240F0538310F4E9
:102E400000701CBF40F60010C0F23D00B1F5401FFD
:102E500018BF002004B080BD81F40073134300F05C
:102E6000E78181F48051114340F0168240F6004121
:102E7000C4F20241D1F8E40000F04060B0F1806F8C
:102E800000F09482002851D00A68B0F1006FF9E197
:102E900082F480230B4300F0018282F4001211437C
:102EA00040F0FA8140F60040C4F20240D0F8E81049
:102EB00001F00701022900F01D82012900F0DC82E7
:102EC000002900F011820268032902D112F40032B5
:102ED00088D102680068042903D112F0020240F090
:102EE000018310F400701CBF40F60010C0F23D00DA
:102EF000052918BF002004B080BD00BF82F48052B5
:102F0000114340F0C98140F60040C4F20240D0F8BD
:102F1000E01001F0E061B1F1007F00F02E82B1F12C
:102F2000807F00F06D82002940F0B88204B0BDE8D7
:102F3000804001F0FFB900BF40F60040C4F20240FB
:102F4000D0F8D81011F4E07100F02A82026840290C
:102F500003D112F0006240F053820268802903D14D
:102F600012F0005240F0098203680268C02903D1C0
:102F700013F0020340F0DF82B1F5807F03D112F439
:102F8000007240F00A83D0F8F000B1F5A07F97E21C
:102F900040F60040C4F20240D0F8D81011F460317D
:102FA00000F0FE810268B1F5004F03D112F000621B
:102FB00040F026820268B1F5803F03D112F0005242
:102FC00040F0DB8103680268B1F5C03F03D113F024
:102FD000020340F0B082B1F5003F03D112F4007259
:102FE00040F0DB82D0F8F000B1F5203F68E200BF8E
:102FF00040F60040C4F20240D0F8D81011F46061ED
:1030000000F0CE810268B1F5007F03D112F00062BA
:1030100040F0F6810268B1F5806F03D112F00052E2
:1030200040F0AB8103680268B1F5C06F03D113F0C3
:10303000020340F08082B1F5006F03D112F40072F8
:1030400040F0AB82D0F8F000B1F5206F38E200BF5D
:1030500040F60040C4F20240D0F8D81011F4E0412C
:1030600000F09E810268B1F5805F03D112F000622A
:1030700040F0C6810268B1F5005F03D112F0005242
:1030800040F07B8103680268B1F5405F03D113F023
:10309000020340F05082B1F5804F03D112F4007268
:1030A00040F07B82D0F8F000B1F5A04F08E200BFFD
:1030B00040F60040C4F20240D0F8D81011F03801B8
:1030C00000F06E810268082903D112F0006240F01E
:1030D0009781102900F0518103680268182903D1F3
:1030E00013F0020340F02782202903D112F400726A
:1030F00040F05382D0F8F0002829E1E140F6004189
:10310000C4F20241D1F8F000D1F8F020920700F4A7
:10311000407203D5B2F5807F00F06181D1F8F000F4
:10312000000103D5B2F5007F00F07D8008688003C0
:103130004FF0000040F1B080B2F5407F40F0AC802D
:10314000C86910F4785F00F06181C86947F64001F2
:10315000C0F30520C0F27D11B1FBF0F004B080BDDA
:1031600040F60041C4F20241D1F8E000C0F3C202CF
:10317000042A00F24B8148F20000C0F2BB00DFE8F5
:1031800012F03901A10035008B000500D1F8E820CC
:103190000B6808689B0702F0404202D5002A00F045
:1031A000A181800500F1F681FEE100BF40F60040FC
:1031B000C4F20240D0F8E400400640F11B8199E0DF
:1031C00040F60041C4F20241D1F8E00000F00702ED
:1031D000042A00F21B8148F20000C0F2BB00DFE8C5
:1031E00012F00901710005005B00770101A8FFF7EB
:1031F000C5FB019804B080BD40F60040C4F2024017
:10320000D0F8E810D0F8F02001F0C001920702D504
:10321000002900F0E480D0F8F020120140F1228172
:10322000402940F01F814FF4FA4004B080BD00BF38
:1032300040F60041C4F20241D1F8E800D1F8F02094
:1032400000F00800920702D5002800F0C880D1F8ED
:10325000F010002818BF4FF4FA4001F00061AFE110
:1032600040F60041C4F20241D1F8E40000F04070A1
:10327000B0F1807F00F09A80002800F091800A6809
:10328000B0F1007F4FF0000006D112F0020203D02F
:103290000868C0F3C10050E104B080BD40F60040B2
:1032A000C4F20240D0F8DC10C1F30231052900F26B
:1032B000AD80DFE811F0750007007B00CF00C5008E
:1032C000370100BF01A8FFF787FA019804B080BD5D
:1032D00040F60040C4F20240D0F8E41001F00301CF
:1032E000DFE801F0028808D004B0BDE8804000F0BB
:1032F000C1BF00BF01A8FFF76FFA039804B080BDFB
:1033000040F60040C4F20240D0F8E41001F440213D
:10331000B1F5802F4AD0002942D002680068B1F58B
:10332000002F03D112F0020240F0DC8010F4007094
:103330001CBF40F60010C0F23D00B1F5402F18BF91
:10334000002004B080BD00BF40F60040C4F202403F
:10335000D0F8E01011F460612ED00268B1F5007F62
:1033600002D112F000624BD10268B1F5806F40F0DB
:10337000BD8012F0005200F0B98001A8FFF7FEFAFC
:10338000029804B080BD00BF40F60040C4F2024085
:10339000D0F8E41001F44031B1F5803F06D0C9BB4C
:1033A00004B0BDE8804000F07DBF00BF01A8FFF77A
:1033B000E5FA039804B080BD04B0BDE8804000F099
:1033C00095BF00BF0268920101D5102912D0D0F834
:1033D000F020920740F1CC80202940F0C9804FF4C2
:1033E000004004B080BD00BFB0F5007F08D0B0F54C
:1033F000807F0BD101A8FFF71DF9029804B080BDB2
:1034000001A8FFF7E9F9029804B080BD002004B0DC
:1034100080BD00BF02680068B1F5003F02D112F024
:1034200002025FD110F400701CBF40F60010C0F221
:103430003D00B1F5403F18BF002004B080BD00BF83
:10344000D0F8F0004FF4FA41000101EAE07004B056
:1034500080BD00BFD0F8F0004FF4004101EA803099
:1034600004B080BD0068802900F400724FF00000B5
:1034700008BF48F2120085E004B0BDE8804000F0CB
:103480007DBF00BFD0F8E810036802689B0701F019
:1034900040415BD500294ED058E000BF0368026868
:1034A000B1F1407F02D113F0020344D1B1F1806F3A
:1034B00002D112F4007270D1D0F8F000B1F1A06F17
:1034C00000F002024FF0000008BF900304B080BD7E
:1034D000D1F8E8200B6808689B0702F0404257D5F6
:1034E000002A55D1C0F3C10027E000BF036802687D
:1034F000B1F5C06F02D113F002031CD1B1F5006F1A
:1035000002D112F4007248D1006810F400301CBFE0
:1035100047F64000C0F27D10B1F5206F18BF0020C3
:1035200004B080BDD0F8E810036802689B0701F082
:1035300040410BD551B9C2F3C10049F20001C0F2BC
:10354000D03121FA00F004B080BD00BF920502D551
:10355000B1F1804F21D00068B1F1004F00F400328A
:103560004FF0000004BF47F64000C0F27D1009E0B4
:10357000D0F8F000302900F000624FF0000008BFE2
:103580004FF4FA40002A08BF104604B080BD00BFC7
:10359000800509D5B2F1804F06D140F60010C0F287
:1035A0003D0004B080BD00BF0868B2F1004F00F4D8
:1035B00000314FF0000004BF47F64000C0F27D101C
:1035C000002908BF084604B080BD00002DE9F0477F
:1035D0000446006840F62848C101C4F2024807D5F5
:1035E000D8F8C010A26D21F040411143C8F8C010B6
:1035F000C00712D0E06D052800F25482DFE810F019
:103600000600B404EA01060006000600D8F8B0106F
:1036100021F007010843C8F8B00000252078800792
:1036200002D428461BE000BF206E4FEAF0010529B6
:1036300000F23A822846DFE811F00700A304D70120
:1036400007000700070000BF064648B9D8F8B000D9
:10365000216E20F038000843C8F8B00000202E4644
:103660002178490719D5616E4FEAB111052900F299
:103670002382DFE811F007008B04BF010700070079
:10368000070000BF054648B9D8F8B000616E20F4C5
:10369000E0700843C8F8B0000020354621780907DB
:1036A00019D5A16E4FEA7121052900F20D82DFE8DC
:1036B00011F007007304A70107000700070000BF0F
:1036C000064648B9D8F8B000A16E20F460600843FF
:1036D000C8F8B00000202E462178C90619D5E16E41
:1036E0004FEA3131052900F2F781DFE811F00700D8
:1036F0005B048F0107000700070000BF054648B9BB
:10370000D8F8B000E16E20F4E0400843C8F8B000FB
:10371000002035462178890619D5216F4FEAF1310D
:10372000052900F2E181DFE811F007004304770189
:1037300007000700070000BF064648B9D8F8B000E8
:10374000216F20F460300843C8F8B00000202E46F6
:103750006178C90619D5616F4FEA3161052900F218
:10376000CB81DFE811F007002B045F0107000700A1
:10377000070000BF054648B9D8F8B800616F20F0CF
:10378000E0600843C8F8B800002035466178890633
:103790001AD5A16F6FF0010202EB3142022A08D361
:1037A0004FEA314129B101292ED104F1300001F055
:1037B00083FC064648B9D8F8BC00A16F20F440301D
:1037C0000843C8F8BC0000202E466178490620D581
:1037D000E16F6FF0010202EBB142022A08D34FEA17
:1037E000B14129B1012937D104F1300001F064FC65
:1037F000054678B9D8F8BC00E16F20F440200843B2
:10380000C8F8BC00002004E00120012661784906C8
:10381000DED435466178090623D5D4F880106FF0E0
:10382000010202EB3152022A08D34FEA315129B189
:10383000012939D104F1300001F03EFC064688B977
:10384000D8F8BC00D4F8801020F440100843C8F821
:10385000BC00002005E000BF0120012561780906B9
:10386000DBD42E46A178C90723D0D4F884100029D0
:1038700018BFB1F1007F0DD10746D8B9D8F8BC0008
:10388000D4F8841020F040700843C8F8BC00002031
:103890000FE000BFB1F1807F30D104F1300001F0C2
:1038A0000BFC074630B9E9E701200126A178C907DA
:1038B000DBD137466179C90625D5D4F888100029AF
:1038C00018BFB1F1006F0DD10546E8B9D8F8BC00BA
:1038D000D4F8881020F040600843C8F8BC000020ED
:1038E00011E000BFB1F1806F40F0708004F1300052
:1038F00001F0E2FB054638B9E8E700BF01200127E7
:103900006179C906D9D43D46D4E9001240F61C4776
:10391000C4F20247120508D53A6822F400423A6020
:10392000D4F8C8203B681A433A6089031AD5D4F802
:103930008C104FEA3121052900F2E680DFE811F012
:10394000060044037800060006000600064650B94B
:10395000D8F8B400D4F88C1020F4E0600843C8F81C
:10396000B40000202E46A17849071BD5D4F890104A
:103970004FEA3131052900F2CF80DFE811F007006E
:103980002B035F0007000700070000BF054650B982
:10399000D8F8B400D4F8901020F4E0400843C8F8F8
:1039A000B40000203546A17889065ED5D4F8A01071
:1039B000052900F2B980022946D0002802464AD0E3
:1039C000D4E900139B0555D4B4E000BF01200125C4
:1039D0009AE700BF04F1300001F06EFB05460028B5
:1039E0007FF41CAEC8E200BF04F1300001F064FBBC
:1039F0002AE600BF04F1300001F05EFB42E600BFA2
:103A000004F1300001F058FB5AE600BF04F1300029
:103A100001F052FB72E600BF04F1300001F04CFBF4
:103A20008AE600BF04F1300001F046FBA2E600BFC9
:103A300004F1300001F040FB88E700BF04F13000E2
:103A400001F03AFBA2E700BF04F1080001F0BEFA62
:103A500000280246B4D1D8F8C000D4F8A01020F055
:103A600007000843C8F8C00000202A46D4E9001324
:103A70009B055FD5D4F8A43043F00806082E0BD17F
:103A8000814660B9D8F8C00020F008001843C8F893
:103A9000C00000204EE000BF01204FF00109890165
:103AA0004BD4A6E00125B9E501200126217849077C
:103AB0003FF5D9ADF1E500BF0120012521780907C7
:103AC0003FF5EFAD07E600BF012001262178C906CA
:103AD0003FF505AE1DE600BF0120012521788906CE
:103AE0003FF51BAE33E600BF012001266178C90611
:103AF0003FF531AE49E600BF012001256178890616
:103B00003FF547AE60E600BF01200126A1784907D6
:103B10003FF52CAF46E700BF01200125A1788906BB
:103B20003FF544AFA1E700BF01200122D4E9001313
:103B30009B059FD4914689015BD54FF60846CFF689
:103B4000FF768246B85940F00100B851FEF712FBEB
:103B5000054600BFB859C00708D1FEF70BFB401B54
:103B60000228F7D90320032144E000BF5046BAF1F0
:103B7000000F51463ED1D8F8C80010F4407018D05C
:103B8000D4F8BC10884211D0D8F8C800D8F8C810B2
:103B900020F4407041F48031C8F8C810D8F8C8103B
:103BA00021F48031C8F8C810C8F8C800C00740F038
:103BB0001D82D4F8BC0039684FF6CF7300F4407210
:103BC00021F47C51C0F2FF0303EA1013B2F5407FE9
:103BD00008BF19433960D8F8C8106FF31F3021F4BB
:103BE0004071C8F8C810D8F8C8100843C8F8C80011
:103BF00000204946226853011CD5D4F898306FF054
:103C0000010707EB3317022F0AD34FEA33173FB1EF
:103C1000012F17D1D8F8007047F40037C8F80070AA
:103C2000054640B9D8F8C00020F030001843C8F865
:103C3000C00000200D46510208D42E46E178090745
:103C400014D451E0012001255102F6D5D4F89C107E
:103C5000402921D091BBD8F8001041F40031C8F8B8
:103C600000100646F8B1E17809073DD5D4F8AC104C
:103C7000042900F25F81DFE811F005003F01270011
:103C80002B002B00D8F8001041F40031C8F80010C8
:103C9000054650BB1EE000BF04F1080001F096F994
:103CA00000280646DFD1D8F8BC00D4F89C1020F0DC
:103CB00040000843C8F8BC000020BEE701200126F0
:103CC000E1780907D2D40FE004F1300001F0F4F9F3
:103CD000054650B9D8F8B800D4F8AC1020F0070069
:103CE0000843C8F8B80000203546E178C90627D552
:103CF000D4F8B0104FEAF101042900F21F81DFE887
:103D000011F0050005010F0013001300D8F8001092
:103D100041F40031C8F80010064690B906E000BF33
:103D200004F1300001F0C8F9064650B9D8F8B800DF
:103D3000D4F8B01020F038000843C8F8B8000020CC
:103D40002E46E178890627D5D4F8B4104FEAB11190
:103D5000042900F2F780DFE811F00500E3000F000E
:103D600013001300D8F8001041F40031C8F8001017
:103D7000054690B906E000BF04F1300001F09CF95F
:103D8000054650B9D8F8B800D4F8B41020F4E07063
:103D90000843C8F8B80000203546E17849061BD52D
:103DA000D4F8B8104FEA7121052900F2D580DFE878
:103DB00011F007001701CD0007000700070000BF42
:103DC000064650B9D8F8B800D4F8B81020F46060AE
:103DD0000843C8F8B80000202E46217989071BD572
:103DE000D4F8A810032900F28380DFE801F009036A
:103DF000770900BFD8F8001041F40031C8F800106E
:103E0000054650B9D8F8BC00D4F8A81020F003003B
:103E10000843C8F8BC00002035462179490721D560
:103E2000D4F8941059B1B1F5007F0BD0B1F5807F73
:103E30003CD1D8F8001041F40031C8F80010064613
:103E400088B905E004F1080001F0C0F8064650B951
:103E5000D8F8C000D4F8941020F440700843C8F893
:103E6000C00000202E462179C90624D5D4F8C410FC
:103E7000302909D0202909D010292DD1D8F80010D7
:103E800041F40031C8F80010B0B904E004F130008A
:103E900001F012F980B9D8F8BC00D4F8C41020F0B1
:103EA00030000843C8F8BC0005E000BF012001262F
:103EB0002179C906DAD430462179090758BFBDE80F
:103EC000F087D8F8C010D4F8C02021F0C001114309
:103ED000C8F8C010BDE8F0870120EDE704F1080044
:103EE00001F074F8002805467FF497AF8AE700BF19
:103EF0000120012591E700BF04F1080001F066F8F8
:103F0000002805467FF4F1AEE4E600BF04F10800A6
:103F100001F05CF8002806467FF413AF06E700BF07
:103F200004F1080001F052F8002805467FF435AF8F
:103F300028E700BF01200125D7E600BF01200126A8
:103F4000FFE600BF0120012527E700BF04F1300094
:103F500001F0B2F834E700BF01200126217989077A
:103F60003FF53EAF58E700BF04F1080001F02EF81E
:103F7000054600287FF452ABE06DFFF747BB00BF5A
:103F800004F1080001F022F8FFF75EBB04F108001D
:103F900001F01CF8FFF776BB04F1080001F016F8F9
:103FA000FFF78EBB04F1080001F010F8FFF7A6BB85
:103FB00004F1080001F00AF8FFF7BEBB04F10800A5
:103FC00001F004F8FFF7D6BB04F1080000F0FEFF93
:103FD000FFF7BCBC04F1080000F0F8FFD6E400BF16
:103FE00004F1080000F0F2FFEAE600BFFEF7C2F8B5
:103FF000054641F2883600BFD8F8C80080073FF573
:10400000D8ADFEF7B7F8411B0320B1424FF00301D2
:10401000F2D9EFE52DE9F04381B0002800F0D0801F
:1040200042F20008C4F202080446D8F800000D4627
:1040300000F00F0081420DD9D8F8000020F00F00E9
:104040002843C8F80000D8F8000000F00F00A8428C
:1040500040F0B680206840F62047C106C4F202470F
:104060000CD561693A68702303EA1222914205D99E
:104070003A6822F4E04242EA0121396001070CD596
:1040800021693A68702303EA1212914205D93A680D
:1040900022F4E06242EA0111396041070AD5E16881
:1040A0003A6802F07002914204D93A6822F0700234
:1040B0001143396081070AD5A1683A6802F00F02FE
:1040C000914204D93A6822F00F0211433960C007C7
:1040D00068D1206881070AD5A1683A6802F00F020A
:1040E000914204D23A6822F00F0211433960D8F8A5
:1040F000001001F00F018D420CD2D8F8001021F011
:104100000F012943C8F80010D8F8001001F00F0182
:10411000A94255D141070AD5E1683A6802F0700218
:10412000914204D23A6822F07002114339600107CB
:104130000CD521693A68702303EA1212914205D224
:104140003A6822F4E06242EA01113960C0060CD5F7
:1041500060693968702202EA1121884205D2396803
:1041600021F4E04141EA0020386000F007F93968A5
:1041700045F6B87201F00F01C0F60002525C40F241
:104180000401C2F20001096840F20C0320FA02F2B5
:10419000C2F2000308461A6001B0BDE8F043FEF722
:1041A0002DB800BF606857F8201C01280CD00228E9
:1041B00004D003285AD1890102D507E0890305D428
:1041C000012001B0BDE8F0838905F9D557F8041C3A
:1041D00021F00301084347F8040CFDF7CBFF6168A9
:1041E0000646032941F2883939D0022929D001290C
:1041F00010D100BF57F8040C00F0180008283FF455
:1042000068AFFDF7B7FF801B48454FF00300F1D9B9
:104210000DE000BF57F8040C10F0180F3FF459AF31
:10422000FDF7A8FF801B48454FF00300F2D901B00D
:10423000BDE8F083FDF79EFF801B48454FF003006B
:10424000F5D857F8040C00F018001028F2D140E718
:10425000FDF790FF801B48454FF00300E7D857F863
:10426000040C00F018001828F2D132E78907A7D50E
:10427000ACE7000080B500F081F840F62041C4F2C0
:104280000241096845F6B87201F00F01C0F600025C
:10429000515C01F01F01C84040F20C01C2F2000164
:1042A000086080BD80B500F069F840F62041C4F296
:1042B00002410A6845F6B87302F00F02C0F6000327
:1042C0009A5C02F01F02D04040F20C02C2F20002DF
:1042D0001060096845F6C872C1F30211C0F6000209
:1042E000515C01F01F01C84080BD000080B500F0A6
:1042F00045F840F62041C4F202410A6845F6B87319
:1043000002F00F02C0F600039A5C02F01F02D040D8
:1043100040F20C02C2F200021060096845F6C87251
:10432000C1F30221C0F60002515C01F01F01C84038
:1043300080BD000080B500F021F840F62041C4F2B5
:1043400002410A6845F6B87302F00F02C0F6000396
:104350009A5C02F01F02D04040F20C02C2F200024E
:104360001060096845F6C872C1F30231C0F6000258
:10437000515C01F01F01C84080BD000080B540F6CF
:104380000041C4F20241C86900F01800082802BFC9
:1043900040F60010C0F23D0080BDC86910F0180F53
:1043A00034D0C86900F01800102802BF47F640005A
:1043B000C0F27D1080BDC86900F01800182849F2CD
:1043C0000000C0F2D03066D1D1F828E08A6AC2F38A
:1043D000052C8A6A8B6BBCF1000F04BF002080BDE6
:1043E000DB08D20603EAE2726FF35F3200EE102AB6
:1043F0000EF00302B8EE400A032A15D0012A17D1A5
:104400000A68920618D49FED251A1DE008688006F8
:1044100049F20000C0F2D03058BF80BD0968C1F336
:10442000C101C84080BD00BF9FED1B1A0CE000BF5A
:104430009FED1B1A08E000BF0A68C2F3C102D0401A
:1044400001EE100AB8EE411A02EE10CA486BB8EE3F
:10445000422A6FF35F2081EE021A02EE100A9FEDEE
:10446000113AB8EE422A20EE030A486B30EE020AF7
:10447000B7EE002AC0F3462030EE020A013021EEEA
:10448000000A01EE100AB8EE411A80EE010ABCEEF5
:10449000C00A10EE100A80BD20BCBE4B0024744C34
:1044A0000024744A00000039002804BF012070472E
:1044B0002DE9F04381B040F6004740F6F04904464C
:1044C000C4F20247C4F20249F86959F8C81C2278BC
:1044D00000F01808D00601F003062AD5B8F1080F3D
:1044E0001CD0B8F1180F08BF022E17D0E169386848
:1044F000002900F06D8140F480703860FDF73AFECD
:10450000054600BF386880050CD4FDF733FE401B1C
:1045100002284FF00300F5D958E200BFE0690028F7
:1045200000F0E480B869216A20F47C1040EA014080
:10453000B8612078C00719D0B8F1100F12D0B8F1C7
:10454000180F08BF032E0DD061683868B1F5A02F91
:1045500060DA002900F0B081B1F5803F00F0CE8133
:104560009EE100BF6068002800F0C08020788007CE
:1045700077D5B8F1000F21D0E068B8F1180F08BF67
:10458000012E55D03968002800F06681206921F09D
:10459000180108433860386840F001003860FDF7C2
:1045A000E9FD05463868800754D4FDF7E3FD401B5C
:1045B00002284FF00300F5D908E200BFE0680028A8
:1045C00000F094803968206901F01801814231D0EF
:1045D000396821F0180108433860FFF7CFFE396AC7
:1045E00045F6B87201F00F01C0F60002515C40F2CE
:1045F0000C0201F01F0120FA01F140F20400C2F2A6
:1046000000000068C2F200021160FDF7F7FD00280B
:104610006CD10FE000F06A81B1F5A81F40F0408135
:1046200040F480203860386840F4801064E100BFB6
:1046300000285BD0FDF79EFD054600BF3868800767
:1046400008D4FDF797FD401B0228F7D9032001B0DD
:10465000BDE8F0833869616920F4FE0040EA01405A
:1046600038612078000745D4207840075CD4207852
:10467000800600F17F80A56AA5B3B8F1180F40F05D
:10468000C98059F8C81C59F8BC0C012D2ED0E26A1B
:1046900001F00303934229D1C1F30521226B91421A
:1046A00024D1626B01466FF35F21013A91421DD123
:1046B000A16BC0F3462201398A4217D1E16BC0F3E6
:1046C000064201398A4211D1216CC0F306600139DA
:1046D00088420BD159F8B80CE16CC0F3CC00884289
:1046E00040F0E881002001B0BDE8F083012001B076
:1046F000BDE8F083A169D9F80000002952D040F04C
:104700008060C9F80000FDF735FD0546D9F80000C6
:104710000001A9D4FDF72EFD401B0228F6D9032085
:1047200001B0BDE8F08300BF4FF62446CFF6FF7618
:10473000B859C00712D1B85940F00100B851FDF77F
:1047400019FD0546B859C00708D1FDF713FD401BF8
:1047500002284FF00300F5D938E100BFA168D9F86D
:104760000000042946DC002900F0EA80012900F05D
:104770001781D5E0616A3868002900F07F8040F435
:1047800080503860FDF7F6FC054600BF38688004AD
:104790003FF571AFFDF7EEFC401B02284FF0030020
:1047A000F4D913E120F08060C9F80000FDF7E2FCC5
:1047B000054600BFD9F8000000017FF555AFFDF7B1
:1047C000D9FC401B02284FF00300F3D9FEE000BFE4
:1047D00020F480703860FDF7CDFC05463868800510
:1047E0007FF5A7AEFDF7C6FC401B02284FF0030083
:1047F000F4D9EBE0052900F0C780852940F09080CE
:1048000040F00400C9F80000D9F8000040F0800032
:10481000C2E000BF386820F080703860FDF7AAFC65
:10482000022D05460CD100BF3868800140F1D280CE
:10483000FDF7A0FC401B02284FF00300F4D9C5E0AF
:104840003868800140F12881FDF794FC401B022864
:104850004FF00300F4D9B9E021F001003860FDF712
:1048600089FC0546386880077FF5FBAEFDF782FCC2
:10487000401B02284FF00300F4D9A7E020F4805039
:104880003860FDF777FC0546386880047FF5F3AEA5
:10489000FDF770FC401B02284FF00300F4D995E0AF
:1048A00020F480303860386820F480203860386820
:1048B00020F4801024E000BF20F480303860386895
:1048C00020F480103860386820F480203860FDF7CC
:1048D00051FC0546386880037FF548AEFDF74AFC79
:1048E000401B64284FF00300F4D96FE040F48020AF
:1048F0003860386820F480103860386840F48030C0
:104900003860FDF737FC0546386880033FF52EAE6A
:10491000FDF730FC401B64284FF00300F4D955E04C
:1049200020F00100C9F80000D9F8000020F00400D0
:10493000C9F80000D9F8000020F0800032E000BF84
:1049400020F00100C9F80000D9F8000020F0800034
:10495000C9F80000D9F8000020F00400C9F80000F0
:10496000FDF708FC054641F2883600BFD9F8000083
:1049700080077FF57CAEFDF7FDFB401BB0424FF09A
:104980000300F3D922E000BF40F00400C9F80000A2
:10499000D9F8000020F08000C9F80000D9F8000024
:1049A00040F00100C9F80000FDF7E4FB054641F2C4
:1049B000883600BFD9F8000080073FF558AEFDF7F4
:1049C000D9FB401BB0424FF00300F3D901B0BDE862
:1049D000F08300BF59F8C80C43F6037104F12C03AF
:1049E00088430ECB084340EA0220A16B49F8C80C6B
:1049F0004FF47E4202EB4121E26B581E4FF4FE035E
:104A000089B203EB02426FF35F20084402F4FE0117
:104A1000226C4FF0FE4303EB0262084402F0FE41B9
:104A2000084449F8BC0C59F8C80C20F0100049F8AB
:104A3000C80CE06CC00049F8B80C59F8C80C40F03C
:104A4000100049F8C80C59F8C80C616C20F00C0033
:104A5000084349F8C80C59F8C80CA16C20F0200094
:104A6000084349F8C80C59F8C80C40F4803049F89C
:104A7000C80C386840F080703860FDF77BFB044656
:104A8000386880013FF52EAEFDF774FB001B02284D
:104A90004FF00300F4D999E759F8C80C4FF6FC71B0
:104AA000CFF6F871084049F8C80C002001B0BDE805
:104AB000F08300BF59F8C80C20F0100049F8C80C6A
:104AC000FDF758FB0546FDF755FBA842FBD0E06C0F
:104AD000C00049F8B80C59F8C80C40F0100049F86B
:104AE000C80C002001B0BDE8F0830000042888BF96
:104AF0007047DFE800F0031B13352D004EF2100065
:104B0000CEF20000016821F00401016040F6E440AB
:104B1000C4F20240016821F00C0120E04EF21000C6
:104B2000CEF200000168022206E000BF4EF2100043
:104B3000CEF200000168012221F00401016040F67C
:104B4000E440C4F20240016862F3830107E000BF61
:104B50004EF21000CEF20000016841F00401016045
:104B600070470000411E0020B0EB116F1CBF0120F8
:104B700070474EF21002CEF2000251609060116850
:104B800041F00301116070474EF21000CEF20000B8
:104B90000068400744BF0420704740F6E440C4F278
:104BA0000240006802A100F00C000858704700BFE6
:104BB00000000000010000000200000000000000F2
:104BC00090F83C20012A4FF0020200F0C08010B59E
:104BD00080F83D20026842F6FF33D2F804E0D2F8B4
:104BE00008C0C5F201039A420CDC42F60043C4F24D
:104BF00001039A4212D043F20043C4F201039A42E5
:104C00000CD010E043F20043C5F201039A4205D0F4
:104C100042F60043C5F201039A4204D14C682EF4D7
:104C2000700344EA030E4FF68F73CFF6FF530C6800
:104C300003EA0E032343B2F1A04F536014DA41F2AA
:104C4000FF73C4F200039A4222DC40F2FF73C4F205
:104C500000039A423EDCB2F1804F6BD040F2004339
:104C6000C4F2000364E000BF41F2FF73C5F2000329
:104C70009A421FDC40F2FF73C5F200039A4235DC12
:104C8000B2F1A04F56D040F20043C5F200034FE00E
:104C900043F2FF33C4F201039A4233DC41F60003CE
:104CA000C4F200039A4245D042F60043C4F2010325
:104CB0003EE000BF43F2FF33C5F201039A422DDC10
:104CC00041F60003C5F200039A4233D042F6004396
:104CD0002CE000BF40F60003C4F200039A4229D042
:104CE00040F60043C4F2000322E000BF40F6000398
:104CF000C5F200039A421DD040F60043C5F20003FE
:104D000016E000BF43F20043C4F201039A4211D0FF
:104D100044F20003C4F201030AE000BF44F20003BE
:104D2000C5F201039A4205D043F20043C5F20103E4
:104D30009A4204D189682CF08003194391600121C3
:104D4000002280F83D1080F83C20BDE8104010465D
:104D500070470000002804BF0120704710B50446CA
:104D600090F83D0028B9002084F83C00204600F06F
:104D700023F8022084F83D002068211D00F0D4FAB9
:104D8000012084F8480084F83E0084F83F0084F84D
:104D9000400084F8410084F8420084F8430084F81D
:104DA000440084F8450084F8460084F8470084F8FD
:104DB0003D00002010BD0000006841F20001C4F277
:104DC0000001884218BF704781B040F69C40C4F291
:104DD0000240016841F010010160006800F010001D
:104DE0000090009801B0704790F83D1001291BD148
:104DF000022180F83D100168B1F1A04F16DA41F2AE
:104E0000FF70C4F20000814224DC40F2FF70C4F263
:104E10000000814240DCB1F1804F6DD040F2004093
:104E2000C4F2000066E000BF0120704741F2FF704D
:104E3000C5F2000081421FDC40F2FF70C5F20000A5
:104E4000814235DCB1F1A04F56D040F20040C5F2AE
:104E500000004FE043F2FF30C4F20100814233DC36
:104E600041F60000C4F20000814245D042F6004005
:104E7000C4F201003EE000BF43F2FF30C5F2010082
:104E800081422DDC41F60000C5F20000814233D0A2
:104E900042F600402CE000BF40F60000C4F20000E3
:104EA000814229D040F60040C4F2000022E000BF59
:104EB00040F60000C5F2000081421DD040F60040DF
:104EC000C5F2000016E000BF43F20040C4F201004A
:104ED000814211D044F20000C4F201000AE000BF98
:104EE00044F20000C5F20100814205D043F20040C7
:104EF000C5F2010081420DD188680722C0F201028B
:104F00000240062A4FF0000018BFB2F5803F01D1E1
:104F1000704700BF086840F001000860002070473B
:104F200010B5D8B10446D0F8880028B9002084F81C
:104F30008400204600F026F82420C4F88800206869
:104F4000A16A0268002922F0010202601CBF20460B
:104F500000F008FB204600F02FFC08B1012010BD36
:104F60002168486820F490404860886820F02A0052
:104F70008860086840F0010220460A60BDE81040E1
:104F800000F064BB70470000FEE7000040F208023A
:104F9000C2F200021268D1E9003CC0E900234B894B
:104FA0000C22C0E904320A898989C0F808C08161ED
:104FB0004FF40041C1610021C2604162FFF7B0BF00
:104FC000FEE70000FEE700007047000070B540F605
:104FD0002C46C4F2024656F82C1C044621F0806090
:104FE00046F82C0CFDF7C6F8054600BF56F82C0C09
:104FF000000105D5FDF7BEF8401B0228F6D958E0A0
:10500000306843F60371884394E80E00084340EA91
:105010000220E16830604FF47E4202EB41212269B8
:10502000581E4FF4FE0389B203EB02426FF35F2078
:10503000084402F4FE0162694FF0FE4303EB026292
:10504000084402F0FE41084430613068A16920F054
:105050000C00084330603068E16920F0200008430C
:105060003060606A31680843306030684FF6F8712C
:1050700020F0100030607069226A884340EAC20064
:105080007061306840F01000306056F82C0C40F031
:10509000806046F82C0CFDF76DF8044656F82C0C91
:1050A000000144BF002070BDFDF764F8001B032819
:1050B000F4D3032070BD000070B540F63046C4F252
:1050C000024656F8301C044621F0805046F8300C59
:1050D000FDF750F8054600BF56F8300C800005D5A6
:1050E000FDF748F8401B0228F6D958E0306843F62F
:1050F0000371884394E80E00084340EA0220E16807
:1051000030604FF47E4202EB41212269581E4FF479
:10511000FE0389B203EB02426FF35F20084402F4FE
:10512000FE0162694FF0FE4303EB0262084402F0A5
:10513000FE41084470613068A16920F00C0008430A
:1051400030603068E16920F0200008433060606A18
:1051500031680843306030684FF6F87120F0100075
:105160003060B069226A884340EAC200B0613068AA
:1051700040F01000306056F8300C40F0805046F897
:10518000300CFCF7F7FF044656F8300C800044BFA3
:10519000002070BDFCF7EEFF001B0328F4D30320B2
:1051A00070BD000070470000FCF7F4BF10B59CB064
:1051B00040F6140408A85021C4F20244FBF74AF94F
:1051C0000020CDE90600CDE90400CDE9020054F845
:1051D000040C40F0300044F8040C54F8040C00F0C7
:1051E0003000019001982068000709D4206800076A
:1051F0005CBF20685FEA007002D420680007F2D527
:10520000302008904FF4805011904FF480700F9030
:10521000202001211090022014917D21CDE912005F
:10522000CDE91510CDE9170008201990002408A831
:10523000CDE91A44FFF738F910B172B6FEE700BFA6
:105240001F2002900320CDE9030402A80521CDE927
:1052500005440794FEF7DEFE10B172B6FEE700BF0C
:1052600042F20000C4F202000168022262F305115A
:1052700001601CB010BD00004EF6885CCEF2000C40
:10528000DCF80010012241F47001CCF8001040F667
:105290000041C4F202410A600022CA610A620B683E
:1052A0004EF6E320CEF6E2201840086040F280205F
:1052B000C0F201108A62CA620A6348638A63C863E3
:1052C0000A6448648A64086820F4802008600A65DB
:1052D0004FF0006042F21C01C4F202014CF8800C55
:1052E00051F8040C420F062A05D800F06040B0F1D6
:1052F000404F18BF70470868C0070BD042F63B20EC
:10530000C0F6190041F8100C46F67F60C4F65D4007
:1053100041F8100C086840F002000860086840F08E
:1053200001000860704700000268B0F1A04F13DA76
:1053300040F6FF33C4F20003984221DCB0F1804F05
:1053400042D040F20043C4F2000398423CD040F601
:105350000003C4F2000335E040F6FF33C5F200035A
:1053600098421FDCB0F1A04F2ED040F20043C5F2AE
:105370000003984228D040F60003C5F2000321E064
:1053800040F60043C4F2000398421DD042F60043A9
:10539000C4F20103984217D043F20043C4F2010360
:1053A00010E000BF40F60043C5F2000398420BD066
:1053B00043F20043C5F20103984205D042F6004390
:1053C000C5F20103984203D14B6822F070021A43E0
:1053D000B0F1A04F14DA41F2FF73C4F20003984217
:1053E00022DC40F2FF73C4F2000398423EDCB0F1CD
:1053F000804F6BD040F20043C4F2000364E000BF72
:1054000041F2FF73C5F2000398421FDC40F2FF73C4
:10541000C5F20003984235DCB0F1A04F56D040F2FF
:105420000043C5F200034FE043F2FF33C4F201032F
:10543000984233DC41F60003C4F20003984245D0A1
:1054400042F60043C4F201033EE000BF43F2FF33E3
:10545000C5F2010398422DDC41F60003C5F20003BA
:10546000984233D042F600432CE000BF40F60003E0
:10547000C4F20003984229D040F60043C4F200036E
:1054800022E000BF40F60003C5F2000398421DD0A1
:1054900040F60043C5F2000316E000BF43F20043AC
:1054A000C4F20103984211D044F20003C4F2010394
:1054B0000AE000BF44F20003C5F20103984205D0A0
:1054C00043F20043C5F20103984203D1CB6822F4B2
:1054D00040721A4380B54B6922F0800E8A6843EA15
:1054E0000E03D1F800C00360C26242F6FF32C5F27B
:1054F00001029042C0F828C0BDE8804012DC42F6AC
:105500000042C4F2010290421ED043F20042C4F2B3
:105510000102904218D044F20002C4F2010290420B
:1055200012D013E042F60042C5F2010290420BD0C5
:1055300044F20002C5F20102904205D043F200425B
:10554000C5F20102904201D1096901630121416163
:105550000169C90708BF7047016921F001010161B4
:1055600070470000816A0A070CD4CA0715D18A0760
:105570001ED44A0727D4CA0630D48A0639D44A062C
:1055800042D457E00268D0F838C0536823F400438F
:1055900043EA0C035360CA07E9D00268D0F82CC074
:1055A000536823F4003343EA0C0353608A07E0D5C1
:1055B0000268D0F830C0536823F4803343EA0C0308
:1055C00053604A07D7D50268D0F834C0536823F433
:1055D000802343EA0C035360CA06CED50268D0F894
:1055E0003CC0936823F4805343EA0C0393608A061B
:1055F000C5D50268D0F840C0936823F4005343EA4D
:105600000C0393604A0615D5D0F800C0436CDCF853
:105610000420B3F5801F22F4801242EA0302CCF882
:10562000042007D1DCF80420836C22F4C0021A4362
:10563000CCF80420090658BF70470168C06C4A685E
:1056400022F400221043486070470000B0B582B0D9
:1056500004460020C4F89000FCF78CFD2168054644
:105660000A68120737D56FF07E4C20464FF40011C0
:1056700000222B46CDF800C000F0BCF950B300BFAB
:10568000206850E8000F216820F0800041E8000207
:10569000DAB1206850E8000F216820F0800041E86E
:1056A000000292B1206850E8000F216820F08000CD
:1056B00041E800024AB1206850E8000F216820F05C
:1056C000800041E80002002ADAD10320202188224C
:1056D0006BE000BF2168086840075DD56FF07E4C25
:1056E00020464FF4800100222B46CDF800C000F088
:1056F00081F9002850D000BF206850E8000F2168D1
:1057000020F4907041E80002BAB3206850E8000F1E
:10571000216820F4907041E8000272B3206850E8DC
:10572000000F216820F4907041E800022AB320683D
:1057300050E8000F216820F4907041E80002002A30
:10574000DAD11AE0206850E8020F216820F0010049
:1057500041E80202DAB1206850E8020F216820F027
:10576000010041E8020292B1206850E8020F21686E
:1057700020F0010041E802024AB1206850E8020F1F
:10578000216820F0010041E80202002ADAD103205A
:1057900020218C2209E000BF2020C4F88800C4F832
:1057A0008C00002170220020E166A150002184F8C5
:1057B000841002B0B0BD000070B504462269D4E97F
:1057C0000213006811436269E6690568114346F6F1
:1057D000F312CCF6FF722A40114331430160416855
:1057E0004FF2FF4521F440511943416042F200411C
:1057F000A26940F08053C5F200418B421CBF236A6E
:105800001A438368C1F2FF152B401A438260C26AB3
:10581000636A22F00F021A4346F2FF33C4F2000318
:105820009842C2621ADC44F6FF31C4F20001884299
:1058300030DC44F20041C4F20001884250D044F60A
:105840000001C4F20001884240F0CC800420002115
:10585000FDF766F9B6F5004F67D048E042F2FF3237
:10586000C4F2004290422BDC46F20041C4F2000137
:10587000884253D043F60001C4F20101884240F04F
:10588000B18001200021FDF74BF9B6F5004F4CD057
:105890002DE000BF44F60041C4F20001884263D00D
:1058A00045F20001C4F20001884240F09B801020C4
:1058B0000021FDF735F9B6F5004F36D017E000BFEF
:1058C00042F20042C4F20042904255D0884240F079
:1058D000898000200021FDF723F9002852D177E0CC
:1058E00002200021FDF71CF9B6F5004F1DD000285D
:1058F0006ED0616A45F6D072C0F6000232F811101F
:105900006268B0FBF1F000EB5200B0FBF2F04FF632
:10591000EF72A0F1100191425CD857E020200021E5
:10592000FDF7FEF8B6F5004FE1D1002850D0616ACE
:1059300045F6D072C0F6000232F811106268B0FB72
:10594000F1F0510801EB4000B0FBF2F04FF6EF72BE
:10595000A0F1100191423DD84FF6F071C0F3420220
:105960000840104432E000BF08200021FDF7D8F8BD
:10597000B6F5004FBBD1D8E74FF480500021FDF7BA
:10598000CFF828B3616A45F6D072C0F6000232F84B
:1059900011106268B0FBF1F102EB420081424FF05E
:1059A000010018D31303994215D808020B0E10EB0F
:1059B000520043F100010023FAF7D4FC4FF60052E5
:1059C000A0F54071C0F20F02914203D22168C86075
:1059D000002000E001204FF00111A1660021C4E980
:1059E0001D1170BD00200021FDF79AF8B6F5004F9B
:1059F0009BD07CE72DE9F041804600681546C269DE
:105A00000E461140891BB1FA81F149098D4223D11B
:105A1000069C2CB3611C29D1C1693140891BB1FAA4
:105A200081F149098D4217D1C1693140891BB1FA11
:105A300081F149098D420FD1C1693140891BB1FA09
:105A400081F149098D4207D1C1693140891BB1FA01
:105A500081F149098D42DFD00020BDE8F08100BF0F
:105A6000FCF788FB0320BDE8F08100BF1F4607E07C
:105A7000C0693040801BB0FA80F040098542EBD10C
:105A8000FCF778FBC01BA04284BF0320BDE8F08177
:105A9000D8F8000001684907EAD5402E18BF802ECB
:105AA000E6D0C169090700F1A180C1690905DFD508
:105AB0004FF400610162D8F8000050E8000FD8F8F8
:105AC000001020F4907041E800020AB3D8F80000FA
:105AD00050E8000FD8F8001020F4907041E8000260
