:020000040800F2
:10000000280D002021030008DD200008D52000086D
:10001000D920000831050008052400083303000832
:10002000000000000000000000000000BD220008E9
:100030003505000800000000E1200008C12200088A
:100040003D0300083D0300083D0300083D03000890
:100050003D0300083D0300083D0300083D03000880
:100060003D0300083D0300083D0300083D03000870
:100070003D0300083D0300083D0300083D03000860
:100080003D0300083D0300083D0300083D03000850
:100090003D0300083D0300083D0300083D03000840
:1000A000390500083D0300083D0300083D03000832
:1000B0003D0300083D0300083D0300083D03000820
:1000C0003D0300083D0300083D0300083D03000810
:1000D0003D0300083D0300083D0300083D03000800
:1000E0003D0300083D0300083D0300083D030008F0
:1000F0003D0300083D0300083D0300083D030008E0
:100100003D0300083D0300083D0300083D030008CF
:100110003D0300083D0300083D0300083D030008BF
:100120003D0300083D0300083D0300083D030008AF
:100130003D0300083D0300083D0300083D0300089F
:100140003D0300083D0300083D0300083D0300088F
:100150003D0300083D0300083D0300083D0300087F
:100160000000000000000000952300083D03000887
:100170003D0300083D0300083D0300083D0300085F
:100180003D0300083D0300083D0300080000000097
:10019000000000003D030008000000000000000017
:1001A00000000000000000003D0300083D030008BF
:1001B0003D0300083D0300083D0300083D0300081F
:1001C0003D0300083D03000800000000000000009F
:1001D0000000000000000000000000003D030008D7
:1001E0003D0300083D03000800000000000000007F
:1001F0003D0300083D0300083D0300080000000027
:10020000000000003D0300083D0300083D03000816
:100210003D0300083D0300083D0300083D030008BE
:100220003D03000800000000000000003D0300083E
:100230003D03000800000000000000000000000076
:100240000000000000000000000000003D03000866
:100250003D03000800F002F800F052F814A696E8FA
:10026000000CB244B344DA4501D100F049F8BAE8D1
:100270000F000FA696E83000A5EB040504EB060777
:10028000AAEB0704A7F101074FEA15154FEA34144A
:10029000A4F10104AC4201D300F032F813F0010FD5
:1002A00018BFFB1A43F0010300F001F8DBE7184721
:1002B000105E0000305E0000103A24BF78C878C19C
:1002C000FAD8520724BF30C830C144BF04680C605C
:1002D000704700007047000000230024002500261E
:1002E000103A28BF78C1FBD8520728BF30C148BF99
:1002F0000B6070471FB505F067FE1FBD10B510BD40
:1003000000F0D1F81146FFF7F5FF03F0B9F900F05E
:10031000EFF803B4FFF7F2FF03BC00F0F7F80000BA
:100320000A4880470A480047FEE7FEE7FEE7FEE787
:10033000FEE7FEE7FEE7FEE7FEE7FEE7FEE700007A
:1003400004480549054A064B70470000C5220008CD
:100350005502000828070020280D00202809002049
:1003600028090020032A40F2308010F0030C00F02E
:10037000158011F8013BBCF1020F624498BF11F8DF
:1003800001CB00F8013B38BF11F8013BA2F1040298
:1003900098BF00F801CB38BF00F8013B11F0030310
:1003A00000F04F80083AC0F0088051F8043B083A4A
:1003B00051F804CBA0E80810F5E7121D5CBF51F816
:1003C000043B40F8043BAFF30080D20724BF11F890
:1003D000013B11F801CB48BF11F8012B24BF00F8F5
:1003E000013B00F801CB48BF00F8012B70474FF0EC
:1003F000000200B5134694469646203922BFA0E875
:100400000C50A0E80C50B1F12001BFF4F7AF090780
:1004100028BFA0E80C5048BF0CC05DF804EB890071
:1004200028BF40F8042B08BF704748BF20F8022BB4
:1004300011F0804F18BF00F8012B704770477047CC
:10044000704710B5203AC0F00B80B1E81850A0E812
:100450001850B1E81850A0E81850203ABFF4F5AF92
:100460005FEA027C24BFB1E81850A0E8185044BFEE
:1004700018C918C0BDE810405FEA827C24BF51F85B
:10048000043B40F8043B08BF7047D20728BF31F84F
:10049000023B48BF11F8012B28BF20F8023B48BFA0
:1004A00000F8012B7047754600F02CF8AE460500A9
:1004B0006946534620F00700854618B020B5FFF77F
:1004C0003FFFBDE820404FF000064FF000074FF01F
:1004D00000084FF0000BAC46ACE8C009ACE8C0091E
:1004E000ACE8C009ACE8C00921F007018D467047AF
:1004F00010B50446AFF300802046BDE81040FFF77A
:1005000008BF000000487047300000200149182053
:10051000ABBEFEE7260002007047000000EB400083
:1005200040F22C31C2F2000101EB800000F00CB867
:10053000FEE70000704700000020FFF7EFBF00005B
:1005400072B600BFFEE70000F0B581B00446006857
:10055000082202EA503542F20C07C4F2024700F0CA
:100560001F01012057F8252000FA01F6164205D098
:1005700047F825606068002818BF8047381D50F88C
:100580002510314208D040F82560A06820B101B0A4
:10059000BDE8F040004700BF01B0F0BD0A68002A86
:1005A00008BF70472DE9F04F83B000F1200301939D
:1005B00047F67F73C0F22F0303EA90234FF0000A3F
:1005C0004FF0010B00274FF0000C002500930BE0CB
:1005D0000A68013532FA05F30CF1040C07F1020741
:1005E0000AF1080A00F09A800BFA05F912EA0902EA
:1005F000EED0D1F80480029248F01006122E1BD1E2
:100600006FF0030202EA5506DDF804B00CF01C029C
:100610005BF80640D1F810800F2303FA02FE08F0C1
:100620000F0324EA0E0403FA02F222434BF80620D9
:10063000D1F804804FF0010B02680323BB4008F09F
:10064000030EDC439A430EFA07F31A43B8F1120F74
:1006500002605BD80BFA08F212F0061F56D08368CE
:10066000D1E902262340BE403343836043684FEA0A
:10067000181623EA0903AE4033434360C368BA4007
:1006800023401A43C260029C5FEAC802A0D542F22E
:10069000000E25F00302C4F2024E7244D2F86080CC
:1006A0000AF018060F23B34028EA0308009B03FA58
:1006B00006F648EA06031366DEF800804B6848EA4F
:1006C0000406DA0258BF28EA0406CEF80060DEF815
:1006D00004809A0248EA040658BF28EA0406CEF8C5
:1006E0000460DEF884809A0348EA040658BF28EACA
:1006F0000406CEF88460DEF88020DB0342EA0406BC
:1007000058BF22EA0406CEF8806061E78A68BEF12D
:10071000030F08BF012AB1D1B5E700BF03B0BDE8A0
:10072000F04F70470069084018BF01207047000073
:100730001823002A08BF2823C150704740F22060C8
:10074000C2F200000068704740F20C0040F22061E5
:10075000C2F20000C2F2000100780A68104408608A
:100760007047000080B5032000F0B6F801F090F863
:1007700040F62041C4F20241096845F6E47201F0F6
:100780000F01C0F60002515CC84040F22C01C2F2D9
:1007900000010860042001F033FC0F2000F008F88D
:1007A00000281CBF012080BD00F056F8002080BD4D
:1007B000B0B540F20C05C2F200052978E1B3044659
:1007C0004EF21000CEF200000068400710D401F095
:1007D00065FC022824D001281AD078BB40F22C00F6
:1007E000C2F20000006829784FF4FA5207E000BF17
:1007F00040F22C00C2F2000000684FF47A72B2FBA3
:10080000F1F1B0FBF1F001F037FCA8B91BE000BF3B
:1008100028784FF47A71B1FBF0F04FF4FA4106E01A
:1008200028784FF47A71B1FBF0F04FF40041B1FB3E
:10083000F0F001F021FC30B10120B0BD002001F04A
:100840001BFC0028F8D14FF0FF302146002200F0B9
:1008500017F800206C60B0BD70470000002848BF4A
:10086000704700F01F010122C0F34A1002FA01F1A3
:100870004EF20012CEF2000242F820107047000043
:1008800010B54EF60C5CCEF2000CDCF80030C3F371
:10089000022E8EF00704042C28BF0424BEF10303AB
:1008A0004FF0FF3E38BF00230EFA04F4A1439940F5
:1008B0000EFA03F39A43114300F00F0200F1604374
:1008C0000901043A03F564436244002848BF02F179
:1008D0000C03197010BD00004EF60C51CEF2000151
:1008E0000A684FF6FF031A4060F30A2242F0806064
:1008F00040F0FD700860704701220168C0F8D822FE
:10090000002280F8CC22486D40F001004865486D17
:1009100040F0020200204A6570470000002804BF32
:1009200001207047F0B581B0044690F8950228B9CF
:10093000002084F89402204600F01CF9032084F87B
:100940009502206801F042FD94E80F00267C009695
:1009500001F010FD002840F0F4802068002101F033
:100960003FFD002840F0ED8094F804E0BEF1000F58
:1009700000F0E0800EF0030CBEF1040F4FF0000217
:1009800038D30EF0FC03A4F1A0000321012500BF21
:10099000CE1E80F8B4608E1E80F8DC604E1E80F89B
:1009A000046180F82C110E1D013180F8B55080F8DB
:1009B000B720C0E93122C0F8CC2080F8DD5080F8A3
:1009C000DF20C0E93B22C0F8F42080F8055180F810
:1009D0000721C0E94522C0F81C2180F82D5180F87C
:1009E0002F21C0E94F22C0F84421A030994231465E
:1009F000CED1F21EBCF1000F2ED002EB820104F129
:100A0000140000EBC105012300F831200021BCF1E6
:100A1000010F6B70E970C5E90411A9611CD0551C68
:100A200005EB8506BCF1020F00EBC60700F8365057
:100A30007B70F970C7E90411B9610DD0911C01EB0D
:100A40008102012500EBC20300F8321000205D7026
:100A5000D870C3E904009861BEF1000F6AD0BEF1FE
:100A6000040F4FF0000235D30EF0FC0003212346A3
:100A7000CF1E83F854718F1E83F87C714F1E83F84C
:100A8000CC110D1D013183F8552183F85721C3E99D
:100A90005922C3F86C2183F87D2183F87F21C3E9B3
:100AA0006322C3F8942183F8A52183F8A47183F805
:100AB000A721C3E96D22C3F8BC2183F8CD2183F8B7
:100AC000CF21C3E97722C3F8E421A033814229462C
:100AD000CED1EA1EBCF1000F2CD002EB820304F54C
:100AE000AA7000EBC3070021BCF1010F797000F878
:100AF0003320F970C7E90411B9611BD0531C03EB13
:100B00008307BCF1020F00EBC70600F837307170A5
:100B1000F170C6E90411B1610CD0911C01EB8102A6
:100B2000002700EBC20300F832105F70DF70C3E9EA
:100B300004779F6194E80F00277C009701F036FC52
:100B400030B1022084F89502012001B0F0BD00BF51
:100B500000206074012084F89502207B012804BFE6
:100B60002046FFF7C9FE206801F018FC002001B004
:100B7000F0BD000010B5B6B0044602A80830C82188
:100B8000FFF735FC206846F20001C4F201018842FB
:100B900002D036B010BD00BF10200390002002909C
:100BA0003020339002A800F01FF8002818BFFFF78C
:100BB000C7FC00F00FF840F6A440C4F20240016800
:100BC00041F080710160006800F080700190019830
:100BD00036B010BD40F63800C4F20240016841F062
:100BE00000710160704700002DE9F047044600687D
:100BF00040F62848C101C4F2024807D5D8F8C01011
:100C0000A26D21F040411143C8F8C010C00712D0B6
:100C1000E06D052800F25482DFE810F00600B4040D
:100C2000EA01060006000600D8F8B01021F007011E
:100C30000843C8F8B00000252078800702D4284671
:100C40001BE000BF206E4FEAF001052900F23A8256
:100C50002846DFE811F00700A304D70107000700CA
:100C6000070000BF064648B9D8F8B000216E20F052
:100C700038000843C8F8B00000202E462178490704
:100C800019D5616E4FEAB111052900F22382DFE820
:100C900011F007008B04BF0107000700070000BF29
:100CA000054648B9D8F8B000616E20F4E0700843FA
:100CB000C8F8B000002035462178090719D5A16E83
:100CC0004FEA7121052900F20D82DFE811F00700DB
:100CD0007304A70107000700070000BF064648B9D4
:100CE000D8F8B000A16E20F460600843C8F8B000E6
:100CF00000202E462178C90619D5E16E4FEA313120
:100D0000052900F2F781DFE811F007005B048F018D
:100D100007000700070000BF054648B9D8F8B00033
:100D2000E16E20F4E0400843C8F8B00000203546EA
:100D30002178890619D5216F4FEAF131052900F292
:100D4000E181DFE811F007004304770107000700A5
:100D5000070000BF064648B9D8F8B000216F20F45C
:100D600060300843C8F8B00000202E466178C906FC
:100D700019D5616F4FEA3161052900F2CB81DFE8B7
:100D800011F007002B045F0107000700070000BFF8
:100D9000054648B9D8F8B800616F20F0E060084314
:100DA000C8F8B80000203546617889061AD5A16FC9
:100DB0006FF0010202EB3142022A08D34FEA3141BF
:100DC00029B101292ED104F1300001F001FA0646C3
:100DD00048B9D8F8BC00A16F20F440300843C8F8E7
:100DE000BC0000202E466178490620D5E16F6FF0E7
:100DF000010202EBB142022A08D34FEAB14129B104
:100E0000012937D104F1300001F0E2F9054678B943
:100E1000D8F8BC00E16F20F440200843C8F8BC00BB
:100E2000002004E00120012661784906DED4354621
:100E30006178090623D5D4F880106FF0010202EB27
:100E40003152022A08D34FEA315129B1012939D14F
:100E500004F1300001F0BCF9064688B9D8F8BC00AE
:100E6000D4F8801020F440100843C8F8BC000020DB
:100E700005E000BF0120012561780906DBD42E467C
:100E8000A178C90723D0D4F88410002918BFB1F184
:100E9000007F0DD10746D8B9D8F8BC00D4F884102B
:100EA00020F040700843C8F8BC0000200FE000BFED
:100EB000B1F1807F30D104F1300001F089F90746AB
:100EC00030B9E9E701200126A178C907DBD137460F
:100ED0006179C90625D5D4F88810002918BFB1F169
:100EE000006F0DD10546E8B9D8F8BC00D4F88810D9
:100EF00020F040600843C8F8BC00002011E000BFAB
:100F0000B1F1806F40F0708004F1300001F060F9C1
:100F1000054638B9E8E700BF012001276179C90615
:100F2000D9D43D46D4E9001240F61C47C4F202472A
:100F3000120508D53A6822F400423A60D4F8C82075
:100F40003B681A433A6089031AD5D4F88C104FEAEB
:100F50003121052900F2E680DFE811F006004403A4
:100F60007800060006000600064650B9D8F8B4001E
:100F7000D4F88C1020F4E0600843C8F8B4000020D6
:100F80002E46A17849071BD5D4F890104FEA31318D
:100F9000052900F2CF80DFE811F007002B035F0086
:100FA00007000700070000BF054650B9D8F8B40095
:100FB000D4F8901020F4E0400843C8F8B4000020B2
:100FC0003546A17889065ED5D4F8A010052900F22F
:100FD000B980022946D0002802464AD0D4E900133D
:100FE0009B0555D4B4E000BF012001259AE700BF5E
:100FF00004F1300001F0ECF8054600287FF41CAE47
:10100000C8E200BF04F1300001F0E2F82AE600BFB8
:1010100004F1300001F0DCF842E600BF04F13000DA
:1010200001F0D6F85AE600BF04F1300001F0D0F824
:1010300072E600BF04F1300001F0CAF88AE600BF92
:1010400004F1300001F0C4F8A2E600BF04F1300062
:1010500001F0BEF888E700BF04F1300001F0B8F8F5
:10106000A2E700BF04F1080001F03CF800280246A6
:10107000B4D1D8F8C000D4F8A01020F0070008437D
:10108000C8F8C00000202A46D4E900139B055FD5AC
:10109000D4F8A43043F00806082E0BD1814660B97D
:1010A000D8F8C00020F008001843C8F8C00000209D
:1010B0004EE000BF01204FF0010989014BD4A6E0AA
:1010C0000125B9E501200126217849073FF5D9AD71
:1010D000F1E500BF01200125217809073FF5EFADBB
:1010E00007E600BF012001262178C9063FF505AEBD
:1010F0001DE600BF01200125217889063FF51BAEC2
:1011000033E600BF012001266178C9063FF531AE04
:1011100049E600BF01200125617889063FF547AE09
:1011200060E600BF01200126A17849073FF52CAFFA
:1011300046E700BF01200125A17889063FF544AFAD
:10114000A1E700BF01200122D4E900139B059FD431
:10115000914689015BD54FF60846CFF6FF76824669
:10116000B85940F00100B851FFF7E8FA054600BF52
:10117000B859C00708D1FFF7E1FA401B0228F7D998
:101180000320032144E000BF5046BAF1000F51464E
:101190003ED1D8F8C80010F4407018D0D4F8BC1074
:1011A000884211D0D8F8C800D8F8C81020F4407090
:1011B00041F48031C8F8C810D8F8C81021F4803143
:1011C000C8F8C810C8F8C800C00740F01D82D4F89D
:1011D000BC0039684FF6CF7300F4407221F47C51A3
:1011E000C0F2FF0303EA1013B2F5407F08BF1943B2
:1011F0003960D8F8C8106FF31F3021F44071C8F877
:10120000C810D8F8C8100843C8F8C80000204946DC
:10121000226853011CD5D4F898306FF0010707EB12
:101220003317022F0AD34FEA33173FB1012F17D1DB
:10123000D8F8007047F40037C8F80070054640B988
:10124000D8F8C00020F030001843C8F8C0000020D3
:101250000D46510208D42E46E178090714D451E016
:10126000012001255102F6D5D4F89C10402921D047
:1012700091BBD8F8001041F40031C8F800100646C0
:10128000F8B1E17809073DD5D4F8AC10042900F293
:101290005F81DFE811F005003F0127002B002B00E4
:1012A000D8F8001041F40031C8F80010054650BBD2
:1012B0001EE000BF04F1080000F014FF00280646FD
:1012C000DFD1D8F8BC00D4F89C1020F040000843CF
:1012D000C8F8BC000020BEE701200126E17809071C
:1012E000D2D40FE004F1300000F072FF054650B98F
:1012F000D8F8B800D4F8AC1020F007000843C8F8BC
:10130000B80000203546E178C90627D5D4F8B010DA
:101310004FEAF101042900F21F81DFE811F0050016
:1013200005010F0013001300D8F8001041F400313C
:10133000C8F80010064690B906E000BF04F130007E
:1013400000F046FF064650B9D8F8B800D4F8B010FF
:1013500020F038000843C8F8B80000202E46E17895
:10136000890627D5D4F8B4104FEAB111042900F248
:10137000F780DFE811F00500E3000F001300130011
:10138000D8F8001041F40031C8F80010054690B9B3
:1013900006E000BF04F1300000F01AFF054650B926
:1013A000D8F8B800D4F8B41020F4E0700843C8F8B6
:1013B000B80000203546E17849061BD5D4F8B810AE
:1013C0004FEA7121052900F2D580DFE811F007000E
:1013D0001701CD0007000700070000BF064650B9FF
:1013E000D8F8B800D4F8B81020F460600843C8F802
:1013F000B80000202E46217989071BD5D4F8A81003
:10140000032900F28380DFE801F00903770900BFB8
:10141000D8F8001041F40031C8F80010054650B962
:10142000D8F8BC00D4F8A81020F003000843C8F88E
:10143000BC00002035462179490721D5D4F8941005
:1014400059B1B1F5007F0BD0B1F5807F3CD1D8F810
:10145000001041F40031C8F80010064688B905E0D4
:1014600004F1080000F03EFE064650B9D8F8C0006E
:10147000D4F8941020F440700843C8F8C00000204D
:101480002E462179C90624D5D4F8C410302909D0B4
:10149000202909D010292DD1D8F8001041F40031AD
:1014A000C8F80010B0B904E004F1300000F090FE7C
:1014B00080B9D8F8BC00D4F8C41020F0300008433C
:1014C000C8F8BC0005E000BF012001262179C9064B
:1014D000DAD430462179090758BFBDE8F087D8F83B
:1014E000C010D4F8C02021F0C0011143C8F8C010CA
:1014F000BDE8F0870120EDE704F1080000F0F2FDFF
:10150000002805467FF497AF8AE700BF0120012538
:1015100091E700BF04F1080000F0E4FD0028054653
:101520007FF4F1AEE4E600BF04F1080000F0DAFD5C
:10153000002806467FF413AF06E700BF04F1080059
:1015400000F0D0FD002805467FF435AF28E700BF46
:1015500001200125D7E600BF01200126FFE600BFDC
:101560000120012527E700BF04F1300000F030FE24
:1015700034E700BF01200126217989073FF53EAFFE
:1015800058E700BF04F1080000F0ACFD0546002854
:101590007FF452ABE06DFFF747BB00BF04F10800DA
:1015A00000F0A0FDFFF75EBB04F1080000F09AFD1B
:1015B000FFF776BB04F1080000F094FDFFF78EBB47
:1015C00004F1080000F08EFDFFF7A6BB04F108004F
:1015D00000F088FDFFF7BEBB04F1080000F082FDBB
:1015E000FFF7D6BB04F1080000F07CFDFFF7BCBCA0
:1015F00004F1080000F076FDD6E400BF04F1080015
:1016000000F070FDEAE600BFFFF798F8054641F2EA
:10161000883600BFD8F8C80080073FF5D8ADFFF77F
:101620008DF8411B0320B1424FF00301F2D9EFE5E1
:101630002DE9F04381B0002800F0D08042F200088C
:10164000C4F202080446D8F800000D4600F00F006E
:1016500081420DD9D8F8000020F00F002843C8F8C7
:101660000000D8F8000000F00F00A84240F0B6805B
:10167000206840F62047C106C4F202470CD56169D4
:101680003A68702303EA1222914205D93A6822F49B
:10169000E04242EA0121396001070CD521693A682C
:1016A000702303EA1212914205D93A6822F4E062EB
:1016B00042EA0111396041070AD5E1683A6802F04F
:1016C0007002914204D93A6822F0700211433960E5
:1016D00081070AD5A1683A6802F00F02914204D945
:1016E0003A6822F00F0211433960C00768D12068C0
:1016F00081070AD5A1683A6802F00F02914204D22C
:101700003A6822F00F0211433960D8F8001001F056
:101710000F018D420CD2D8F8001021F00F0129439F
:10172000C8F80010D8F8001001F00F01A94255D1F7
:1017300041070AD5E1683A6802F07002914204D28A
:101740003A6822F070021143396001070CD5216913
:101750003A68702303EA1212914205D23A6822F4E1
:10176000E06242EA01113960C0060CD5606939684F
:10177000702202EA1121884205D2396821F4E04141
:1017800041EA0020386000F083F8396845F6E472D9
:1017900001F00F01C0F60002525C40F21001C2F2EB
:1017A0000001096840F22C0320FA02F2C2F20003A1
:1017B00008461A6001B0BDE8F043FEF7F9BF00BF6C
:1017C000606857F8201C01280CD0022804D0032898
:1017D0005AD1890102D507E0890305D4012001B05F
:1017E000BDE8F0838905F9D557F8041C21F0030101
:1017F000084347F8040CFEF7A1FF61680646032979
:1018000041F2883939D0022929D0012910D100BFED
:1018100057F8040C00F0180008283FF468AFFEF7F2
:101820008DFF801B48454FF00300F1D90DE000BF4C
:1018300057F8040C10F0180F3FF459AFFEF77EFF75
:10184000801B48454FF00300F2D901B0BDE8F0839A
:10185000FEF774FF801B48454FF00300F5D857F89A
:10186000040C00F018001028F2D140E7FEF766FFE4
:10187000801B48454FF00300E7D857F8040C00F0F0
:1018800018001828F2D132E78907A7D5ACE7000085
:1018900080B540F60041C4F20241C86900F018006A
:1018A000082802BF40F60010C0F23D0080BDC869A4
:1018B00010F0180F34D0C86900F01800102802BFCB
:1018C00047F64000C0F27D1080BDC86900F01800E6
:1018D000182849F20000C0F2D03066D1D1F828E0D3
:1018E0008A6AC2F3052C8A6A8B6BBCF1000F04BFB5
:1018F000002080BDDB08D20603EAE2726FF35F329C
:1019000000EE102A0EF00302B8EE400A032A15D0AA
:10191000012A17D10A68920618D49FED251A1DE0F6
:101920000868800649F20000C0F2D03058BF80BD80
:101930000968C1F3C101C84080BD00BF9FED1B1AFB
:101940000CE000BF9FED1B1A08E000BF0A68C2F35D
:10195000C102D04001EE100AB8EE411A02EE10CAE0
:10196000486BB8EE422A6FF35F2081EE021A02EE56
:10197000100A9FED113AB8EE422A20EE030A486B96
:1019800030EE020AB7EE002AC0F3462030EE020A1B
:10199000013021EE000A01EE100AB8EE411A80EE85
:1019A000010ABCEEC00A10EE100A80BD20BCBE4B7E
:1019B0000024744C0024744A00000039002804BF3D
:1019C000012070472DE9F04381B040F6004740F612
:1019D000F0490446C4F20247C4F20249F86959F8D2
:1019E000C81C227800F01808D00601F003062AD59A
:1019F000B8F1080F1CD0B8F1180F08BF022E17D08D
:101A0000E1693868002900F06D8140F48070386029
:101A1000FEF794FE054600BF386880050CD4FEF73B
:101A20008DFE401B02284FF00300F5D958E200BF9D
:101A3000E069002800F0E480B869216A20F47C1095
:101A400040EA0140B8612078C00719D0B8F1100F02
:101A500012D0B8F1180F08BF032E0DD06168386896
:101A6000B1F5A02F60DA002900F0B081B1F5803F18
:101A700000F0CE819EE100BF6068002800F0C080C9
:101A80002078800777D5B8F1000F21D0E068B8F151
:101A9000180F08BF012E55D03968002800F0668164
:101AA000206921F0180108433860386840F00100CF
:101AB0003860FEF743FE05463868800754D4FEF7C9
:101AC0003DFE401B02284FF00300F5D908E200BF9D
:101AD000E068002800F094803968206901F018015E
:101AE000814231D0396821F0180108433860FFF78E
:101AF000CFFE396A45F6E47201F00F01C0F600022C
:101B0000515C40F22C0201F01F0120FA01F140F279
:101B10001000C2F200000068C2F200021160FEF77D
:101B200047FE00286CD10FE000F06A81B1F5A81FD4
:101B300040F0408140F480203860386840F48010E4
:101B400064E100BF00285BD0FEF7F8FD054600BF4A
:101B50003868800708D4FEF7F1FD401B0228F7D94A
:101B6000032001B0BDE8F0833869616920F4FE000C
:101B700040EA014038612078000745D420784007CA
:101B80005CD42078800600F17F80A56AA5B3B8F107
:101B9000180F40F0C98059F8C81C59F8BC0C012D29
:101BA0002ED0E26A01F00303934229D1C1F305214B
:101BB000226B914224D1626B01466FF35F21013A9F
:101BC00091421DD1A16BC0F3462201398A4217D13F
:101BD000E16BC0F3064201398A4211D1216CC0F396
:101BE0000660013988420BD159F8B80CE16CC0F39A
:101BF000CC00884240F0E881002001B0BDE8F083CD
:101C0000012001B0BDE8F083A169D9F800000029E6
:101C100052D040F08060C9F80000FEF78FFD054605
:101C2000D9F800000001A9D4FEF788FD401B022866
:101C3000F6D9032001B0BDE8F08300BF4FF624467B
:101C4000CFF6FF76B859C00712D1B85940F001005D
:101C5000B851FEF773FD0546B859C00708D1FEF725
:101C60006DFD401B02284FF00300F5D938E100BF9D
:101C7000A168D9F80000042946DC002900F0EA80B8
:101C8000012900F01781D5E0616A3868002900F069
:101C90007F8040F480503860FEF750FD054600BF5D
:101CA000386880043FF571AFFEF748FD401B0228FD
:101CB0004FF00300F4D913E120F08060C9F8000070
:101CC000FEF73CFD054600BFD9F8000000017FF596
:101CD00055AFFEF733FD401B02284FF00300F3D948
:101CE000FEE000BF20F480703860FEF727FD054657
:101CF000386880057FF5A7AEFEF720FD401B02285F
:101D00004FF00300F4D9EBE0052900F0C7808529E6
:101D100040F0908040F00400C9F80000D9F80000BD
:101D200040F08000C2E000BF386820F0807038606A
:101D3000FEF704FD022D05460CD100BF3868800176
:101D400040F1D280FEF7FAFC401B02284FF003005E
:101D5000F4D9C5E03868800140F12881FEF7EEFC37
:101D6000401B02284FF00300F4D9B9E021F0010034
:101D70003860FEF7E3FC0546386880077FF5FBAE68
:101D8000FEF7DCFC401B02284FF00300F4D9A7E06B
:101D900020F480503860FEF7D1FC05463868800496
:101DA0007FF5F3AEFEF7CAFC401B02284FF003009C
:101DB000F4D995E020F480303860386820F4802031
:101DC0003860386820F4801024E000BF20F48030B0
:101DD0003860386820F480103860386820F480203B
:101DE0003860FEF7ABFC0546386880037FF548AEE7
:101DF000FEF7A4FC401B64284FF00300F4D96FE009
:101E000040F480203860386820F4801038603868EA
:101E100040F480303860FEF791FC05463868800356
:101E20003FF52EAEFEF78AFC401B64284FF00300FE
:101E3000F4D955E020F00100C9F80000D9F80000FD
:101E400020F00400C9F80000D9F8000020F080005C
:101E500032E000BF20F00100C9F80000D9F800000E
:101E600020F08000C9F80000D9F8000020F004003C
:101E7000C9F80000FEF762FC054641F2883600BF53
:101E8000D9F8000080077FF57CAEFEF757FC401BB9
:101E9000B0424FF00300F3D922E000BF40F004004D
:101EA000C9F80000D9F8000020F08000C9F800004F
:101EB000D9F8000040F00100C9F80000FEF73EFC30
:101EC000054641F2883600BFD9F8000080073FF58B
:101ED00058AEFEF733FC401BB0424FF00300F3D97D
:101EE00001B0BDE8F08300BF59F8C80C43F6037198
:101EF00004F12C0388430ECB084340EA0220A16B77
:101F000049F8C80C4FF47E4202EB4121E26B581EA7
:101F10004FF4FE0389B203EB02426FF35F200844E3
:101F200002F4FE01226C4FF0FE4303EB0262084410
:101F300002F0FE41084449F8BC0C59F8C80C20F0E6
:101F4000100049F8C80CE06CC00049F8B80C59F80A
:101F5000C80C40F0100049F8C80C59F8C80C616C66
:101F600020F00C00084349F8C80C59F8C80CA16CC3
:101F700020F02000084349F8C80C59F8C80C40F478
:101F8000803049F8C80C386840F080703860FEF73F
:101F9000D5FB0446386880013FF52EAEFEF7CEFB38
:101FA000001B02284FF00300F4D999E759F8C80C38
:101FB0004FF6FC71CFF6F871084049F8C80C0020C4
:101FC00001B0BDE8F08300BF59F8C80C20F0100044
:101FD00049F8C80CFEF7B2FB0546FEF7AFFBA84276
:101FE000FBD0E06CC00049F8B80C59F8C80C40F0C0
:101FF000100049F8C80C002001B0BDE8F0830000D3
:10200000042888BF7047DFE800F0031B13352D005C
:102010004EF21000CEF20000016821F004010160D0
:1020200040F6E440C4F20240016821F00C0120E0D7
:102030004EF21000CEF200000168022206E000BF5E
:102040004EF21000CEF200000168012221F00401DE
:10205000016040F6E440C4F20240016862F383018B
:1020600007E000BF4EF21000CEF20000016841F020
:102070000401016070470000411E0020B0EB116FA9
:102080001CBF012070474EF21002CEF200025160D8
:102090009060116841F00301116070474EF210002A
:1020A000CEF200000068400744BF0420704740F6AD
:1020B000E440C4F20240006802A100F00C0008589D
:1020C000704700BF00000000010000000200000097
:1020D00000000000FEE70000FEE70000FEE7000051
:1020E0007047000070B540F62C46C4F2024656F820
:1020F0002C1C044621F0806046F82C0CFEF71EFBD9
:10210000054600BF56F82C0C000105D5FEF716FB5E
:10211000401B0228F6D958E0306843F60371884323
:1021200094E80E00084340EA0220E16830604FF472
:102130007E4202EB41212269581E4FF4FE0389B210
:1021400003EB02426FF35F20084402F4FE01626970
:102150004FF0FE4303EB0262084402F0FE410844E4
:1021600030613068A16920F00C00084330603068AD
:10217000E16920F0200008433060606A316808435C
:10218000306030684FF6F87120F0100030607069F0
:10219000226A884340EAC2007061306840F0100053
:1021A000306056F82C0C40F0806046F82C0CFEF79E
:1021B000C5FA044656F82C0C000144BF002070BD3F
:1021C000FEF7BCFA001B0328F4D3032070BD000007
:1021D00070B540F63046C4F2024656F8301C04464C
:1021E00021F0805046F8300CFEF7A8FA054600BFF3
:1021F00056F8300C800005D5FEF7A0FA401B0228E7
:10220000F6D958E0306843F60371884394E80E002D
:10221000084340EA0220E16830604FF47E4202EB5E
:1022200041212269581E4FF4FE0389B203EB02429A
:102230006FF35F20084402F4FE0162694FF0FE4331
:1022400003EB0262084402F0FE410844706130680A
:10225000A16920F00C00084330603068E16920F08B
:10226000200008433060606A31680843306030689D
:102270004FF6F87120F010003060B069226A884390
:1022800040EAC200B061306840F01000306056F89B
:10229000300C40F0805046F8300CFEF74FFA044600
:1022A00056F8300C800044BF002070BDFEF746FA9F
:1022B000001B0328F4D3032070BD0000704700000A
:1022C000FEF742BA4EF6885CCEF2000CDCF8001045
:1022D000012241F47001CCF8001040F60041C4F234
:1022E00002410A600022CA610A620B684EF6E320CE
:1022F000CEF6E2201840086040F28020C0F20110C3
:102300008A62CA620A6348638A63C8630A6448646B
:102310008A64086820F4802008600A654FF0006035
:1023200042F21C01C4F202014CF8800C51F8040C7A
:10233000420F062A05D800F06040B0F1404F18BFA8
:1023400070470868C0070BD042F63B20C0F6190062
:1023500041F8100C46F67F60C4F65D4041F8100C61
:10236000086840F002000860086840F0010008605A
:1023700070470000002804BF01207047016C21F065
:1023800000410164016C41F00101016400214164DC
:1023900000207047002000F05BBE00000146806D09
:1023A00020F4004200208A657047000001460120A9
:1023B0000864086C002220F001000864086C20F01A
:1023C0000040086400204A64704700000146006C29
:1023D0004BF6807220EA020200200A647047000077
:1023E000012909D000291CBF01207047016C21F090
:1023F0000041016400207047016C41F0004101641C
:1024000000207047FEE7000080B54FF0010C01236B
:102410003E2A84BF1F234FF0050C134423FA0CFC03
:10242000C0005FFA8CF300EB810046F200414FF0F0
:10243000FF3E3E2A88BF5EFA8CF34FEA8322C4F245
:1024400001014FF4004C88BF4CEA83224358120428
:102450009BB208BF4FF000421A44425080BD0000BA
:102460002DE9F04140F22415C2F200056978FF29F8
:102470001CD045F6F47804460026C0F60008002774
:102480000DE000BF40462BD1C168204688476978DF
:102490000137481CC0B2874206F1240606D2C8B2F2
:1024A0008742EFD2A868D8B13044EDE705F10C00BF
:1024B0003721FDF79CFF4FF0FF30C5F82F00C5F81E
:1024C0002B00C5F82700C5F82300C5F81F00C5F884
:1024D0001B00C5F81700C5F81300BDE8F08100BF68
:1024E0004EF6F050CEF200000068C00708BFBDE80D
:1024F000F08100BEBDE8F0810878400604D00020DD
:1025000001210822FFF780BF48780528F7D14888C5
:10251000012161F3DF1046F24C01C4F201010860B1
:10252000002001210822FFF76FBF000080B540F2B4
:10253000246301F00F001022C2F2000302EAD1026C
:1025400003EB401046F2000C1044807BC4F2010CF7
:1025500049B25CF8203048F6FF7248F2800EC0F2B3
:10256000FF72B1F1FF3FC4BF4FF68F72C0F2FF722E
:1025700043EA0E0101EA020103F4C0624FF02003B6
:10258000C8BF4FF40053B2F5806F4EF2081218BF67
:102590005940CEF200024FF48063C2F88030BFF39E
:1025A0004F8FBFF36F8F4CF82010BFF34F8FBFF3E7
:1025B0006F8F136080BD000080B54EF2081CCEF214
:1025C000000C4FF4806ECCF880E046F2040240F23A
:1025D000E400BFF34F8FC4F201020023C2F20000F7
:1025E0004FF6FF71BFF36F8F1360C0F80610536092
:1025F000C0F80A109360C0F80E10D360C0F8121033
:102600001361C0F816105361C0F81A109361C0F836
:102610001E10BFF34F8FBFF36F8FCCF800E0C021C7
:10262000018080BD2DE9F04F81B08D78C8780E46CD
:102630008C8800F00301284600F084F9082819D29C
:1026400046F20008C4F2010858F8201047F2700260
:10265000CFF600026FB21140F27807F00F0602F0D9
:102660000302022A314411D0032A75D1824648F26E
:1026700080600EE04EF6F050CEF200000068C00719
:1026800000D000BE002001B0BDE8F08F824648F2C5
:1026900080006FF3DF2441EA00090DF103010DF121
:1026A000020220464FEAD51B01F0B8FC40F2E402DA
:1026B000C2F200021188084483B21080B3F5006FA3
:1026C000504609D94EF6F051CEF200010968C9070B
:1026D0004FF6FF7100D000BE08EBC0028BF0010383
:1026E00002EB83024FF6FF75D2F8003421F00301AC
:1026F000AB4340F22465C2F2000505EB46161944CF
:1027000006EB0B13C2F8001420219C819873B7F1DB
:10271000FF3FC8BF4FF400516FF0700281EA09011A
:10272000002F48BF6FF4E04211404EF20812CEF283
:1027300000024FF48063C2F88030BFF34F8FBFF3C5
:102740006F8F48F82010BFF34F8FBFF36F8F136068
:10275000012001B0BDE8F08F4EF6F050CEF200003F
:102760000068C0078ED000BE002001B0BDE8F08F29
:1027700080B540F2246001F00F0C1022C2F200007C
:1027800002EAD10300EB4C1049B21844807B46F2B8
:10279000000CC4F2010C5CF82030B1F1FF3F48F6A8
:1027A000BF7148F2800EC0F2FF7143EA0E03C4BF4E
:1027B0004BF68F71C0F2FF7101EA0301C8BF4FF4FD
:1027C000805251404EF20812CEF200024FF4806364
:1027D000C2F88030BFF34F8FBFF36F8F4CF82010DB
:1027E000BFF34F8FBFF36F8F136080BDF0B581B023
:1027F00040F2246601F00F001027C2F2000607EA3B
:10280000D10706EB401649B2F019847BF251002241
:10281000B1F1FF3F42600381428137DD46F200069D
:10282000C4F2010656F82410858943F60F72AB42B4
:1028300038BF1D4601F4C060C0F2FF72B0F5806F72
:1028400001EA020704D1204600212A46FFF7DCFDF9
:10285000204601212A46FFF7D7FD4EF20811CEF29D
:1028600000014FF480624BF28000C1F88020784074
:10287000BFF34F8FBFF36F8F46F82400BFF34F8F26
:10288000BFF36F8F0A60012001B0F0BD214600F058
:10289000B7FD012001B0F0BDF0B581B040F2246673
:1028A00001F00F001027C2F2000607EAD10706EB7D
:1028B000401649B2F019847B0025B1F1FF3FF55174
:1028C00042600381458137DD46F20006C4F201060D
:1028D00056F82410858943F60F72AB4238BF1D4667
:1028E00001F4C060C0F2FF72B0F5806F01EA020728
:1028F00004D1204600212A46FFF786FD204601210B
:102900002A46FFF781FD4EF20811CEF200014FF486
:1029100080624BF28000C1F880207840BFF34F8F77
:10292000BFF36F8F46F82400BFF34F8FBFF36F8F55
:102930000A60012001B0F0BD214600F061FD0120D8
:1029400001B0F0BD70B540F2E403C2F2000303EB46
:10295000D01200F00F06147901294FEAD01C0BD1D8
:10296000012282EAD01E7CB1D87801281FD1987844
:10297000B0421CD1002070BD34B3D878884231D128
:102980009878B042F6D02DE003EB0E00007970B9D4
:102990009878FF2818BFB04209D1DA789C1C012A28
:1029A0004FF0000000F09E81FF2A00F09B8103EBB6
:1029B0000C05287A20B3D879012833D19879B04210
:1029C00004BF012070BD2DE09878FF2818BFB042E9
:1029D00008D1DD789C1CFF2D4FF0000018BF8D4200
:1029E00000F0808103EB0C05287A38B3D87988424F
:1029F00032D19879B04204BF012070BD2CE000BFF5
:102A000003EB0E00007A68B99879FF2818BFB0422E
:102A100008D1DA799C1D012A4FF0010018BFFF2A66
:102A200000F06081287B18B3D87A012833D1987AD6
:102A3000B04204BF022070BD2DE000BF9879FF288E
:102A400018BFB04208D1DA799C1DFF2A4FF001006F
:102A500018BF8A4200F04681287B002844D0D87AEB
:102A6000884250D1987AB04204BF022070BD4AE03B
:102A700003EB0E00007B70B9987AFF2818BFB042B4
:102A800009D1DA7A03F10A04012A4FF0020018BFD3
:102A9000FF2A00F02781287C40B1D87B012818D17B
:102AA000987BB04204BF032070BD12E003EB0E0020
:102AB000007C70B9987BFF2818BFB04209D1DA7B3F
:102AC00003F10E04012A4FF0030018BFFF2A00F0A3
:102AD0000981287D20B3D87C012834D1987CB0426C
:102AE00004BF042070BD2EE0987AFF2818BFB042C2
:102AF00009D1DA7A03F10A04FF2A4FF0020018BF65
:102B00008A4200F0EF80287C002845D0D87B88429C
:102B100051D1987BB04204BF032070BD4BE000BF91
:102B200003EB0E00007D70B9987CFF2818BFB042FF
:102B300009D1DA7C03F11204012A4FF0040018BF16
:102B4000FF2A00F0CF80287E40B1D87D012818D11F
:102B5000987DB04204BF052070BD12E003EB0E006B
:102B6000007E70B9987DFF2818BFB04209D1DA7D88
:102B700003F11604012A4FF0050018BFFF2A00F0E8
:102B8000B180287F10B3D87E012831D1987EB04221
:102B900004BF062070BD2BE0987BFF2818BFB04211
:102BA00009D1DA7B03F10E04FF2A4FF0030018BFAE
:102BB0008A4200F09780287DC0B3D87C884243D1F8
:102BC000987CB04204BF042070BD3DE003EB0E00D2
:102BD000007F68B9987EFF2818BFB04208D1DA7E1E
:102BE00003F11A04012A4FF0060018BFFF2A79D01A
:102BF00095F8200020B1D87F01285FD07AE000BF8F
:102C000003EB0E0090F82000002873D1987FFF2876
:102C100018BFB0426ED1DA7F03F11E04012A4FF0D3
:102C200007005FD0FF2A5DD064E000BF987CFF28DA
:102C300018BFB04208D1DA7C03F11204FF2A4FF02A
:102C4000040018BF8A424DD0287E48B1D87D884202
:102C500014D1987DB04204BF052070BD0EE000BFC6
:102C6000987DFF2818BFB04208D1DA7D03F1160421
:102C7000FF2A4FF0050018BF8A4233D0287F48B1A1
:102C8000D87E884214D1987EB04204BF062070BD21
:102C90000EE000BF987EFF2818BFB04208D1DA7E50
:102CA00003F11A04FF2A4FF0060018BF8A4219D018
:102CB00095F8200040B1D87F88421BD1987FB04260
:102CC00004BF072070BD15E0987FFF2818BFB042F1
:102CD00010D1DA7F03F11E04FF2A4FF0070018BF5E
:102CE0008A4207D104EB0C026170012126709170B9
:102CF00070BD00BF4EF6F050CEF200000068C00775
:102D00003FF438AE00BE002070BD00002DE9F04356
:102D100083B00546407888460238052800F20B81CA
:102D2000DFE800F0042E16220E8400BF40F22410CB
:102D3000C2F2000000210173417301748173FAE053
:102D400040F22410C2F20000017801310170F2E07B
:102D500040F22410C2F20000017B002900F0238120
:102D600001218173E7E000BF40F22410C2F20000AD
:102D7000017B002900F0178100218173DBE000BF97
:102D800040F22419C2F2000999F80100FF2823D06B
:102D900045F6F4740026C0F60004002707E000BFE3
:102DA000411C0137C9B28F4206F1240614D2C1B2C8
:102DB0008F4205D2D9F808100029F1D0314401E042
:102DC0002146EDD10A6A002AEAD02878696890473E
:102DD00099F80100E4E700BF99F80E0000285ED0E2
:102DE000002089F80E002978D9F804408DF80010E9
:102DF0000521B8F1000F8DF801100290019033D039
:102E000040F21400C2F20000028904F10800694691
:102E1000002301F0BFFE0646CEB39DF800009DF8EA
:102E20000110424602F090FA39E000BF297911F012
:102E30000F0000F0808040F22413C2F2000303EB85
:102E400040005F7800EBD11292F82320BA4251D2B1
:102E50009B68002B6FD002EBC20203EB8202D369A6
:102E6000002B4ED167E000BF40F21406C2F200060C
:102E700071688847328904F108006946002301F02F
:102E800089FE7168064601208847002EC5D14EF69E
:102E9000F050CEF200000068C00700D000BE99F8E4
:102EA0001200C00700F07F802878D9F804408DF820
:102EB000000003208DF801006868B8F1000F019050
:102EC00078D040F21400C2F20000028904F1080038
:102ED0006946002301F05EFE0546002D00F07F806C
:102EE0009DF800009DF80110424602F02DFA03B053
:102EF000BDE8F0831FD145F6F472C0F60002D36935
:102F0000CBB1CB09C41814F8330F00F0FE002070C9
:102F1000207800F0FB002070D76928786A79AB68C8
:102F2000B84700283FD1207840F001002070207879
:102F300040F00400207040F22410C2F20000446807
:102F4000B8F1000F14D040F21400C2F20000028960
:102F500004F108002946002301F01CFE0646DEB1FC
:102F600028786978424603B0BDE8F04302F0ECB936
:102F700040F21406C2F200067168002088473289C8
:102F800004F108002946002301F004FE716806469A
:102F900001208847002EE3D14EF6F050CEF200001B
:102FA0000068C00702D103B0BDE8F08300BE03B0E3
:102FB000BDE8F08340F21405C2F200056968002004
:102FC00088472A8904F108006946002301F0E2FDE0
:102FD0006968054601208847002D7FF481AF4EF6D1
:102FE000F050CEF200000068C007DCD000BE03B095
:102FF000BDE8F08310B500F06BFA46F24004C4F26D
:10300000010400202060206840F45D40206000F052
:10301000AFFAA06940F400410120A16110BD000099
:103020004EF28810CEF200004FF480610160BFF3D1
:103030004F8FBFF36F8F7047BFF34F8F4EF2081063
:10304000BFF36F8FCEF200004FF4806101607047D4
:103050002DE9F04F89B046F24005C4F201056C68D5
:10306000A0050ED56FF400706860A8684FF4407139
:103070006FF3DF20ADF81810079006A80121FFF7C5
:1030800045FE60050AD4E0041CD420052FD4E005D9
:1030900042D401946868000453D563E06FF4806003
:1030A000686000F065FA4FF48070ADF818000020F9
:1030B0008DF81C0006A80121FFF728FE09B0BDE825
:1030C000F08F00BF2868012120F0040028602868E4
:1030D00020F0080028606FF4805068604FF4A06012
:1030E000ADF8180006A8FFF711FE2005CFD5286817
:1030F000012140F008002860286840F004002860A2
:103100006FF4006068604FF48060ADF8180006A8A6
:10311000FFF7FCFDE005BCD540F21C60C2F20000E8
:10312000017839B1012903D12A6822F010022A60FE
:10313000013901706FF48070686001946868000460
:1031400010D4019840040AD54EF6F050CEF200009B
:103150000068C00700D000BE6FF48040686009B00E
:10316000BDE8F08F40F60F79A5F140044FF0140848
:1031700005F57070C0F2FF79029012E001F1800055
:103180004FF4E0618DF81C000020ADF818108DF8A8
:103190001D0006A801210892FFF7B8FD6868000429
:1031A000CFD5686800F00F0654F826A05FEA0A4001
:1031B00040F1D480CDF80C800398A0B10398013879
:1031C0000390039878B1039801380390039850B1A5
:1031D000039801380390039828B1039801380390AD
:1031E00003980028EAD15FEA0A502FD454F8260049
:1031F00040F2246700EA090040F0800044F826000D
:1032000054F826B0029B0BF00F090BF48C4003EB33
:10321000C601C2F20007B0F5884007EB491818BF95
:10322000012051F8202051F82010D8F80400C2F3F2
:10323000094713FA81F100283CD0002207920422AA
:1032400006923A4606AB01F0A5FC3EE0029A002346
:1032500002EBC60041684068C1F3094712FA80F0EA
:1032600004A93A4601F0D4FE54F82600082F00EADB
:10327000090040F0800044F826000DD1DDE904018A
:103280004FF4C062ADF81820CDE9070106A801216E
:10329000FFF73CFD62E000BF4EF6F050CEF20000BA
:1032A0000068C00700D000BE002001210822FFF7FF
:1032B000ABF853E0D8F80000B8F80A200023024425
:1032C000084611463A4601F0A3FEB8F80A00B8F8DD
:1032D0000C2038449742A8F80A0023D3B8F8081005
:1032E00083B299421ED90BF4C063B3F5806F08D046
:1032F000081A80B20121904238BF02463046FFF7DB
:1033000083F840F60F79C0F2FF7909F5405000EAE2
:103310000B004BF2800148404FF0140844F826009F
:103320001CE000BF30460121FFF76EF8B8F80A0034
:103330004FF4E061ADF818100890002706A80121AD
:103340008DF81C908DF81D70FFF7E0FC40F60F79AA
:10335000C8F808704FF01408C0F2FF795FEA0A60FD
:103360007FF51CAF54F8260000EA090040F4004045
:1033700044F8260054F8262040F2246002F00F01A1
:10338000C2F2000000EB411002F4C063B3F5806F9D
:1033900000F1100012D1C37B012B7FF4FFAE01239B
:1033A00023EA921205EBC60303EB82020023C373E8
:1033B000D2F8C0336FF31943C2F8C033028943898E
:1033C0009A423FF4DBAE314600F01AF8E6E6000020
:1033D00040F22460C2F20000002240F8102F817BEE
:1033E0004260826000F00CB846F24000C4F2010076
:1033F000026822F4007261F3492202607047000003
:103400002DE9F04782B0054600896A898A4646F26E
:103410000041C4F20101801AA1F5806880B2AE8932
:1034200058F82A70B04238BF064607F4C069002039
:10343000B9F5806F08BFC7F380104FEACA0343EAAB
:10344000800043584418686811FA83F14FF0000374
:1034500040B10422019300926B46324601F07AFBA0
:1034600007E000BF2868024408461146324601F0D2
:1034700025FE6889B9F5806F3044688120686FF354
:103480009F266FF3194040EA064048F2B0012060E1
:1034900004BF0120E87340F63F70C0F2FF7038406F
:1034A00048404EF20811CEF200014FF48062C1F89C
:1034B0008020BFF34F8FBFF36F8F48F82A00BFF310
:1034C0004F8FBFF36F8F0A6002B0BDE8F087000036
:1034D00082B046F24000C4F20100032101600021E5
:1034E0000191019AC72A1BD800BF019A01320192AB
:1034F000019AC72A14D800BF019A01320192019A99
:10350000C72A0DD800BF019A01320192019AC72A39
:1035100006D800BF019A01320192019AC82AE3D36A
:10352000026822F00202026000910099C7291BD8AC
:1035300000BF0099013100910099C72914D800BF3C
:103540000099013100910099C7290DD800BF009959
:10355000013100910099C72906D800BF00990131B7
:1035600000910099C829E3D30021416002B070475F
:103570002DE9F04182B046F2000440F2E4054FF636
:10358000FF70C4F201040027C2F20005E764C5F829
:103590000200C5F80600C5F80A00C5F80E00C5F817
:1035A0001200C5F81600C5F81A00C5F81E0040261E
:1035B0004EF6F05800200021CEF200082E80FFF7D2
:1035C000C1F980200021FFF7BDF940F22460C2F26A
:1035D000000086818773868387770DF1050101AA34
:1035E000402000F01BFD2F88384481B22880B1F5BF
:1035F000006F06D9D8F800004FF6FF77C00700D05B
:1036000000BE0DF107010DF10602402000F006FD9D
:103610002988084482B22880B2F5006F06D9D8F80C
:103620000000C00700D000BE4FF6FF7146F2044014
:10363000C4F2010002684FF6FF739A4327F00303B8
:103640001A440260D4F8000421F003016FF30F0064
:103650000844C4F80004206847F27001CFF6000166
:10366000084042F2202180EA0105002001210822C1
:10367000FEF7CAFE80202560E06402B0BDE8F0815C
:103680009CB040F61404C4F20244FDF76BF808A89D
:103690005021FCF7ACFE0020CDE90600CDE9040086
:1036A000CDE9020054F8040C20F0300044F8040C7A
:1036B00054F8040C00F030000190019820680007D5
:1036C00009D4206800075CBF20685FEA007002D45C
:1036D00020680007F2D52220089001200B900820D6
:1036E0000C9040200D904FF480501190002408A8B9
:1036F0001294FEF763F918B172B600BFFEE700BF7F
:103700001F20CDE9020402A80121CDE90444CDE93E
:1037100006440124FDF78CFF10B172B6FEE700BF2E
:1037200040F68C40C4F20240016840F2004841F08B
:10373000010101600168C4F2022801F00101089151
:1037400008990168002541F00201016001684FF00D
:10375000400901F00201089108990168022741F02F
:1037600004010160016801F00401089108990168F1
:1037700041F008010160016801F008010891089911
:10378000016841F010010160006808A900F0100014
:103790000890089840460C95CDE908940A950B9737
:1037A000FCF7FCFE404640210122FCF7C1FFA020AF
:1037B00008A90C95B1C1A8F5806508AE2846314628
:1037C000FCF7ECFECDF820904FF00009284631467A
:1037D000CDE90994FCF7E2FE284620210022FCF7FF
:1037E000A7FF284680210022FCF7A2FF40F23830D4
:1037F00046F20001C2F20000C4F20101016008219A
:103800000171C7714772A0F80B9080F80D90FDF719
:1038100085F818B172B600BFFEE700BF4A2000214C
:103820000022FDF72DF84A20FDF718F84046402108
:103830000022FCF77DFF402000F012FD002000F088
:103840000FFD0F2000F00CFD404640210122FCF747
:103850006FFF404640210022FCF76AFF402000F045
:10386000FFFC0C2000F0FCFC0F2000F0F9FC4046AF
:1038700040210122FCF75CFF404640210022FCF77A
:1038800057FF402000F0ECFC012000F0E9FC002094
:1038900000F0E6FC404640210122FCF749FF40468B
:1038A00040210022FCF744FF402000F0D9FC132007
:1038B00000F0D6FC0F2000F0D3FC4046402101224E
:1038C000FCF736FF40F20005C2F200054FF0FF3072
:1038D000C5E900004AF60120ADF8080002A9002061
:1038E00002F06EF940F208170DF1200AC2F200074B
:1038F0004FF0FF30002101F029FEFCF71FFFB968EF
:10390000401A1428C0F02282FCF718FFB860404625
:1039100040210022FCF70CFF402000F0A1FC132006
:1039200000F09EFC0E2000F09BFC4046402101224E
:10393000FCF7FEFE404640210022FCF7F9FE412044
:1039400000F08EFC122000F08BFC002000F088FCC0
:103950000646404640210122FCF7EAFE404640214F
:10396000002206F00F04FCF7E3FE412000F078FC93
:10397000122000F075FC002000F072FC0646404664
:1039800040210122FCF7D4FE06F00F00844208BF5C
:103990002C70404640210022FCF7CAFE402000F077
:1039A0005FFC132000F05CFC0D2000F059FC404649
:1039B00040210122FCF7BCFE404640210022FCF7DA
:1039C000B7FE412000F04CFC122000F049FC002022
:1039D00000F046FC0646404640210122FCF7A8FEC6
:1039E00040464021002206F00F04FCF7A1FE4120D2
:1039F00000F036FC122000F033FC002000F030FC18
:103A00000646404640210122FCF792FE06F00F00D8
:103A1000844208BF6C70404640210022FCF788FEBB
:103A2000402000F01DFC132000F01AFC0B2000F0D9
:103A300017FC404640210122FCF77AFE4046402117
:103A40000022FCF775FE412000F00AFC122000F075
:103A500007FC002000F004FC0646404640210122FD
:103A6000FCF766FE40464021002206F00F04FCF7FA
:103A70005FFE412000F0F4FB122000F0F1FB00207B
:103A800000F0EEFB0646404640210122FCF750FEC6
:103A900006F00F00844208BFAC704046402100226F
:103AA000FCF746FE402000F0DBFB132000F0D8FBC3
:103AB000072000F0D5FB404640210122FCF738FEEC
:103AC000404640210022FCF733FE412000F0C8FBB5
:103AD000122000F0C5FB002000F0C2FB0646404665
:103AE00040210122FCF724FE40464021002206F03E
:103AF0000F04FCF71DFE412000F0B2FB122000F085
:103B0000AFFB002000F0ACFB0646404640210122FE
:103B1000FCF70EFE06F00F00844208BFEC70404632
:103B200040210022FCF704FE402000F099FB132006
:103B300000F096FB0F2000F093FB4046402101224D
:103B4000FCF7F6FD01F05CFC002800F0F98040F283
:103B50000000C2F20000061D4FF0000B08E000BF9D
:103B60000BF1040BBBF1100F06F1010600F0E88029
:103B7000307816F8042CC10702F001001CD0D8B927
:103B800007EB0B04207B58BB46F29000C0F6000008
:103B900010F80B9049F20900ADF820007F208DF855
:103BA0002300002051468DF8229001F0FBFB84F8A1
:103BB0000C904FF0000913E091B988B107EB0B04AA
:103BC000207B68B148F20801ADF820108DF8220082
:103BD000002051468DF8239001F0E4FB84F80C900E
:103BE000307816F8042C810702F002001AD5C8B903
:103BF00007EB0B04607B58BB46F29000C0F6000058
:103C00005844457849F20900ADF820007F208DF82E
:103C10002300002051468DF8225001F0C3FB65734C
:103C200016E000BF002913D490B107EB0B04607BB2
:103C300070B148F20801ADF820108DF82200002084
:103C400051468DF8239001F0ADFB84F80D9000BF34
:103C5000307816F8042C410702F004001AD5C8B9D0
:103C600007EB0B04A07B58BB46F29000C0F60000A7
:103C70005844857849F20900ADF820007F208DF87E
:103C80002300002051468DF8225001F08BFBA573D4
:103C900016E000BF002913D490B107EB0B04A07B02
:103CA00070B148F20801ADF820108DF82200002014
:103CB00051468DF8239001F075FB84F80E9000BFFB
:103CC000307816F8042C010702F008001CD5D8B98A
:103CD00007EB0B04E07B00287FF442AF46F2900034
:103CE000C0F600005844C57849F20900ADF820003C
:103CF0007F208DF82300002051468DF8225001F0DE
:103D000051FBE5732CE700BF00293FF529AF0028E0
:103D10003FF426AF07EB0B04E07B00283FF420AF15
:103D200048F20801ADF820108DF82200002051461D
:103D30008DF8239001F036FB84F80F9010E700BF58
:103D400040F20005C2F200052868686001F058FBE7
:103D500050B100BF0020002101F0F8FA20B100208E
:103D6000514601F00DFBF5E7FCF7E8FC7968AA681D
:103D7000401A9042FFF4BCAD50183978786081F059
:103D800001003870B4E50000002070470120704742
:103D900070B584B040F2A814C2F200042046C021DD
:103DA000FCF725FB04F14000402500268DE861006A
:103DB00004F12800002100220023039500F094FB69
:103DC00004F180008DE8610004F11000002101225F
:103DD0000023039500F088FB04B070BD2DE9F04F7F
:103DE00081B04B798E18012B0F4615D18B790F4678
:103DF000012B11D1CB790F4673B90B78934201EBAC
:103E0000030709D23A783A44B24205D87B78242B8A
:103E100002D1B2421746F5D37A78042A07D17A79CB
:103E2000012A04D1BA79032A01D1FA7922B10020FA
:103E300080B201B0BDE8F08F40F2A818C2F20008CD
:103E400098F82A2098F81230002A18BF0122DBB215
:103E5000002B18BF01231A40012A0DD14EF6F05055
:103E6000CEF200000068C007E1D000BE002080B2A2
:103E700001B0BDE8F08F00BFBB7888F8000088F87B
:103E800001303A793B78002A07EB03044CD0B44266
:103E90004AD24FF0000916E088F8120008F11C0021
:103EA00088F810B0A8F8141000F07CFC20783A795B
:103EB000235C044409F101095146584691451C44CC
:103EC00038BFB44230D22378E518B5422CD8657893
:103ED000052DF3D18A462146834601F09BFF48B366
:103EE00094F90200A188B0F1FF3F6FF3DF21D3DD29
:103EF000454605F828BFA87005F10C00A98000F020
:103F000051FC284600F020FB0028CFD14EF6F0509F
:103F1000CEF200000068C0073FF489AF00BE002069
:103F200080B201B0BDE8F08F601A80B201B0BDE888
:103F3000F08F00BF4EF6F050CEF200000068C007D0
:103F40003FF475AF00BE002080B201B0BDE8F08F35
:103F5000B0B540F2A814C2F20004002504F1340008
:103F6000C4E90055C4E9025500F01CFC04F11C0032
:103F700084F82A5000F016FCA574B0BD70B540F26C
:103F8000A810C2F2000090F82A60857CF6B28E1B61
:103F9000EDB218BF01264D1B18BF01252E40012E82
:103FA0000CD14EF6F050CEF200000068C00704BFFE
:103FB000002070BD002000BE70BD00BF764206EB41
:103FC000460500EB851090F82A5000F11004A94234
:103FD00012D100F1280552B9216A29B19AB204F12F
:103FE0002400002300F0D6FDF0B201F0FFF92846CE
:103FF00000F0AAFA10E000BF4FF000006AB9A27802
:10400000914218BF70BD20461D4600F02DFB18B927
:104010002046294600F086FB012070BD80B54FF098
:10402000000C01234FF0010E3E2888BF4FF0010C19
:1040300084BF4FF01F0E0523704420FA03FE5FFA81
:104040008EF0984081F800C082F800E080BD00004A
:10405000B0B54A880C464FF0FF3101EB12210E2912
:1040600047D80546DFE801F0081E1445452C3245C7
:104070004545454545451A0001F000F990B3024613
:10408000284621461223BDE8B04001F083B800BFA6
:10409000A188D0B201F0FCF8A8B92AE001F0E6F856
:1040A000C0B926E0D0B201F0E3F898B94EF6F0506E
:1040B000CEF200000068C0071BD000BE0020B0BDDB
:1040C00001F0E2F8A8B1037805E000BFD0B201F03A
:1040D000DDF870B14388024628462146BDE8B0406D
:1040E00001F058B84EF6F050CEF200000068C0075C
:1040F00002D10020B0BD00BF002000BEB0BD000056
:104100002DE9F04F83B08346481EC0B201F0B0F8ED
:10411000E0B14178022919D140F2241AC179C2F2E2
:10412000000A9AF80F20C1F3801102F0FE02114438
:104130008AF80F1041880A2970D345F6F47900EB0C
:10414000010800F10905C0F6000912E04EF6F05032
:10415000CEF200000068C00700D000BE002003B00F
:10416000BDE8F08F0B29054666D145454FF00100AB
:10417000F5D228782844404550D869780429F1D1EF
:104180009AF80100FF2825D0A8EB05018EB2002483
:10419000002700BFC0B2874206D2DAF80800002824
:1041A00040D0204402E000BF48463BD10369584656
:1041B000294632469847092828BF86420ED29AF8E7
:1041C00001000137411CC9B28F4204F12404E1D33C
:1041D00015E000BF0027FF2011E000BFFBB20AF18D
:1041E00023010AF113020646184610233446CDE98E
:1041F000005600F01DF948B39AF80100254401303B
:10420000C0B2F9B28142B0D34EF6F050CEF2000007
:104210000068C007A2D000BEA0E700BF012003B025
:10422000BDE8F08F4EF6F050CEF200000068C007F7
:104230003FF494AF00BE91E74EF6F050CEF200008E
:104240000068C0073FF48AAF00BE87E74EF6F05023
:10425000CEF200000068C0073FF480AF00BE7DE7EB
:104260002DE9F04F81B00024C4F202240546204617
:10427000802100220026FCF75BFA20462021012243
:10428000FCF756FA20464021FCF74CFA00902046F5
:1042900020210022FCF74CFA3F2D88BF0126204642
:1042A00080213246FCF744FA204620210122FCF707
:1042B0003FFA20464021FCF735FA8146204620216E
:1042C0000022FCF735FAC5F3401220468021FCF7A6
:1042D0002FFA204620210122FCF72AFA204640210D
:1042E000FCF720FA8246204620210022FCF720FA23
:1042F000C5F3001220468021FCF71AFA204620213F
:104300000122FCF715FA20464021FCF70BFA834600
:10431000204620210022FCF70BFAC5F3C0022046FC
:104320008021FCF705FA204620210122FCF700FA43
:1043300020464021FCF7F6F90646204620210022BF
:10434000FCF7F6F9C5F3800220468021FCF7F0F96E
:10435000204620210122FCF7EBF920464021FCF702
:10436000E1F90746204620210022FCF7E1F9C5F3D8
:10437000400220468021FCF7DBF920462021012263
:10438000FCF7D6F920464021FCF7CCF980462046C0
:1043900020210022FCF7CCF905F001022046802103
:1043A000FCF7C6F9009D721EA9F10106B6FA86F661
:1043B000013D7609B5FA85F5791EAAF10107B60126
:1043C0006D09B7FA87F746EAC516ABF101037F0915
:1043D000B3FA83F346EA47175B09B2FA82F247EA77
:1043E00003135209B1FA81F143EAC202A8F10100B4
:1043F0004909B0FA80F042EA8101400941EA4005EA
:10440000204620210122FCF793F920464021FCF7A9
:1044100089F90138B0FA80F040090543204620218F
:104420000022FCF785F9E8B201B0BDE8F08F00008A
:10443000B0B5059C44B3DDF810C00CEB040E05E0EC
:1044400020709CF80040A444F4451DD29CF8004024
:104450006444744518D89CF80140042C0AD0052CFB
:10446000EFD19CF8024004F00F0501EB450505EB88
:10447000D414E5E79CF80340002CE2D19CF80240FC
:104480009C4203D21444DBE70120B0BD4EF6F0504D
:10449000CEF200000068C00704BF0020B0BD0020BD
:1044A00000BEB0BD0178C9070ED1017849070BD411
:1044B0000178C90708D10178490705D4017841F08E
:1044C00004010170012070470020704701784907FE
:1044D00008D50178C90705D1017801F0FB01017009
:1044E0000120704700207047F0B581B08C46DDE9AF
:1044F000061200298E46144618BF4FF0010E002AFE
:1045000018BF012404EA0E04012C0BD180F801C06D
:1045100000F10C0CDDE908650746604600F046F93D
:10452000BE60FD80204601B0F0BD0000B0B592B283
:1045300004460C30002300F00DFB0546204600F039
:1045400003F82846B0BD0000818AC28AB0F9103055
:10455000891A48BF01EB43018288D3FA51F189B22D
:10456000914203D3817809B142780AB100207047A3
:1045700010B582B00446007801F01EFC002841D03E
:10458000A08AE18AB4F91020401A48BF00EB42002B
:10459000A188D2FA50F0234682B28A4206D25878D5
:1045A00080BB1878997801F049FC2BE0494208401B
:1045B00080B2DC885978A04238BF0446D1B99A68E5
:1045C0001878997852B14FF0000C2346002C08BFA0
:1045D0002246CDF800C001F05FFC08E003F10C02B8
:1045E0004FF0000C2346CDF800C001F09BFC0146C3
:1045F000204641B94EF6F050CEF200000068C007E8
:1046000000D000BE002002B010BD0000002A04BF90
:1046100000207047B0B592B204460C30002300F081
:10462000B9FA238AA18AE28A891A48BF01EB4301B9
:10463000A28889B2994228BF1946934202D3914277
:1046400038BFB0BD0546204600F00EF82846B0BD84
:10465000818AC28AB0F91000891A48BF01EB400173
:10466000D0FA51F080B27047018A828AC38AD21A86
:1046700048BF02EB410292B28A4238BF114619B1DB
:10468000817809B142780AB100207047B0B582B094
:104690000546007801F090FB002840D0A9682B4621
:1046A00005F10C04B1B1DA882046002300F052FA7B
:1046B0002B465978E0B151BB9A680546187899782D
:1046C0004FF0000CD2B12B46CDF800C001F0E4FB56
:1046D0001AE000BF188A998ADA8A891A48BF01EB62
:1046E000400189B2814238BF084659780028E2D19A
:1046F000A9B91878997801F0A1FB10E022462B4661
:10470000CDF800C001F00EFC0146284641B94EF636
:10471000F050CEF200000068C00700D000BE0020BC
:1047200002B0B0BD10B582B0838AC48A02464FF091
:10473000000031B1A34204D190880138084203D06F
:10474000002002B010BD00BF91780029F8D0507849
:104750000028F5D11078144601F02EFB0028EFD088
:104760006078B0B9A3682078A178224633B10024DC
:1047700000220023009401F08FFB05E00C3200249E
:104780000023009401F0CEFB00281EBF012002B0E0
:1047900010BD4EF6F050CEF200000068C007CFD03A
:1047A00000BECDE70021418101817047B2F5004F85
:1047B00005D8016000218280837141810181002040
:1047C000B2F5004F98BF0120704700002DE9F04F6F
:1047D00083B00C9E87889D1B48BF05EB470590461C
:1047E0002A043FD0AAB2974206D23A46BB4228BF1B
:1047F0005242D6183D4646810D9A00BFB3B2BB4225
:104800000ED3F61BB3B2BB420AD3F61BB3B2BB4204
:1048100006D3F31B9EB2BE42A3EB0706EED21E46A2
:10482000ABB2A7EB060B434538BF984602B3D0F8AE
:1048300000A01FFA8BF01AFA86F9804532D9147855
:10484000CDF80080604200EA0B001FFA80FCA4450E
:1048500064D24B460D4662460004A4F1010840F0C4
:10486000B080BAE04FF00008404603B0BDE8F08FDA
:1048700003681FFA8BF213FA86F3904544D9054674
:1048800008460E461946A8EB0B04FBF76BFD16FA1B
:104890008BF02968A2B2FBF765FD404603B0BDE886
:1048A000F08F00BF12784046904503D24246000484
:1048B00072D1D9E7D9F80030801A0F4685B247F88F
:1048C000043B954209EB020350D3801A87B259F892
:1048D000025097424D6051D3801A87B259F8125056
:1048E000974202EB42078D6050D359F80770801A47
:1048F0001344CF6087B2134403EB0209974201F1DE
:104900001001D7D244E000BF084619464246FBF7E3
:1049100029FD404603B0BDE8F08F00BF0D464B4671
:104920001A68001B2F4686B247F8042BA64203EBF9
:1049300004021FD3001B87B21E59A7426E6021D309
:10494000001B87B253F81460A74204EB4407AE6023
:1049500030D3001B2244DB5987B22244EB60131989
:10496000A74205F11005DBD226E000BF9946394683
:104970000EE000BF13463D461EE000BF09EB4209B2
:10498000083105E003EB4403083515E00C31B94468
:1049900082B200043FF468AF0020029002A80C46E7
:1049A0004946FBF7DFFC02982060404603B0BDE8B3
:1049B000F08F00BF0C353B4482B20004A4F1010823
:1049C0000BD00020029002A80F4619466646FBF75E
:1049D000C9FC0298B44639462860009808EA0B05DD
:1049E000A0EB0B075FFA85FBBBF1000F0CEB010896
:1049F0005ED0A4EB0B0009EB0C010DF1040986B2AB
:104A000048465A46FBF7AEFCB8B2B04238BF06463D
:104A1000F6B22EB109EB0B0051463246FBF7A2FC71
:104A200056FA85F2B14601A94646A24234D300BFE8
:104A30000868121B334695B243F8040BA54201EBFC
:104A400004001BD3121B93B20D59A342756019D3F6
:104A5000121B93B251F81450A342B56016D304EB65
:104A60004403121B2044C95893B22044F160011939
:104A7000A34206F11006DBD20CE000BF01461E4641
:104A800008E000BF01EB4401083603E004EB4400FA
:104A90000C36014492B232B10020029002A8FBF71A
:104AA00061FC0298306008F10408A7EB0907CA44CA
:104AB000380449D0BAB2A2423DD300BFDAF80000B0
:104AC0003F1B4146BAB241F8040BA2420AEB040074
:104AD00020D33F1BB9B25AF80420A142C8F80420E1
:104AE0001CD33F1BB9B25AF81420A142C8F80820C1
:104AF0001AD304EB44013F1B5AF801102044C8F8B4
:104B00000C10B9B2204400EB040AA14208F11008CD
:104B1000D4D20EE0824688460BE000BF0AEB440A7E
:104B200008F1080805E000BF04EB440008F10C0898
:104B30008244BAB242B10020029002A85146FBF76B
:104B400011FC0298C8F80000DDF80080404603B070
:104B5000BDE8F08F10B582B09C460389B0F80AE03A
:104B60000446CDE900ECFFF731FEA188B4F80AC095
:104B70001FFA81FE0CEB00039AB2A3EB4101B2EBEA
:104B80004E0F28BF0B46944588BF0B46638102B089
:104B900010BD00002DE9F04F87B0002A64D0154603
:104BA00006894289877982468088BFB1A84221D987
:104BB000B71A48BF07EB400715FA87F7B7EB400F66
:104BC0001FD3471BBE18B7B2BA4200F2C9804200D9
:104BD000BA4298BFA6EB400613E000BFB21A48BF26
:104BE00002EB4002D0FA52F292B2954228BF15462B
:104BF0003DB939E02F1A002B08BF39441646054647
:104C000095B3324697B287420ED3121A97B28742B3
:104C10000AD3121A97B2874206D3171ABAB282423F
:104C2000A7EB0002EED23A46A0EB020897B21FFAB9
:104C300088F2FBB1DAF80000954200EB07092BD9A6
:104C40001F78CDE90365784208EA00041FFA84FC66
:104C5000BC4529D248460E4662462504A7F1010507
:104C600040F09A80A4E000BF0025284607B0BDE8C8
:104C7000F08F00BFDAF800009542384412D9A5EB56
:104C8000080437460E46FBF76DFBDAF8000016FA0B
:104C900088F1A2B23E46A3E11A78954234D22A4660
:104CA000DDE000BF2A469BE1E6460E46484600BFCF
:104CB000354655F804CBE41BA2B2C0F800C0BA4296
:104CC00000EB070250D3E41BA5B2D6F804C0BD42E6
:104CD00040F807C050D3E41BA5B2D6F808C0BD42C7
:104CE00007EB470540F817C04ED302EB070CF268FC
:104CF000E41B4251A2B2BC440CEB0700BA4206F1DD
:104D00001006D5D242E000BF344628460F4657F879
:104D1000043B801A86B2C9F80030964209EB0203C0
:104D200026D3801A87B24E68974249F8026027D38B
:104D3000801A87B28E68974202EB420749F81260E8
:104D4000C0F08680CE68801A134449F8076087B2A5
:104D5000134403EB0209974201F11001D6D279E026
:104D6000A6EB40064DE700BF10462E460EE000BF02
:104D7000994639466EE000BF00EB4700083605E073
:104D800009EB4209083165E00C362844A2B2F4462A
:104D90002504A7F101050BD0366806AC8B462146E9
:104DA00006961C466646FBF7DDFAB446594623468E
:104DB0000498A0EB080B05EA08005FFA80FEBEF13C
:104DC000000F0CEB010815D0A7EB0E0189B21FFAFA
:104DD0008BF209EB0C068A4238BF1146C9B251FA70
:104DE00080F21D780191AA42029307D205A8474696
:104DF00047E000BFDAF80000049DA3E0B14605A833
:104E0000474600BF394651F804CB521B96B2C0F852
:104E100000C0AE4200EB050626D3521B91B27C685F
:104E2000A942445124D3521B91B2BC68A94205EB5C
:104E3000450140F815401FD3FC68521B2E444450D6
:104E400091B22E447019A94207F11007DAD215E089
:104E50000C31B94482B22646002A00F0C3800868AB
:104E600006A906904846BBE030460F4606E000BF64
:104E700000EB4500083701E00C37084492B24E467B
:104E800032B139687446069106A9FBF76BFAA6465B
:104E90000DF1140930464946724608F10408764679
:104EA000FBF760FADDF804C0049DBCF1000F43D0AD
:104EB000BCF1040F0CF0030002D2002123E000BF7C
:104EC0000CF0FC0106EB09024942531C6FF003028F
:104ED0009F18DAF80040FD7814442571DAF8005084
:104EE0003C7915446C71DAF800507C791544AC714A
:104EF000DAF80050BF79154404328C180434EF718D
:104F0000E6D1049D111DB8B18A1919F80220DAF80A
:104F1000003001285A540FD04A1C931919F8033055
:104F2000DAF800700228BB5406D0881C811919F8E1
:104F30000110DAF800201154DAF80000029BABEB04
:104F40000C0B6044039E5FEA0B414BD019781FFAAB
:104F50008BF28A4240D300BF434653F8042BABEB9D
:104F6000010B1FFA8BF702608F4200EB010223D383
:104F7000ABEB010B1FFA8BF3D8F804708B42475050
:104F80001ED3ABEB010B1FFA8BF3D8F808708B42E2
:104F900001EB410340F8117018D3D8F80C70ABEB5B
:104FA000010B0A44C7501FFA8BF30A4450188B4276
:104FB00008F11008D0D20CE01046984609E000BF76
:104FC00000EB410008F1080803E000BF08F10C08FD
:104FD00018441FFA8BF22AB1D8F80010069106A9DE
:104FE000FBF7C0F9BAF8040071198AB283B2A1EBD9
:104FF0004000B2EB430F28BF0146B3B2934288BFD3
:105000000146AAF80810284607B0BDE8F08F000056
:1050100010B582B0002B14BF93F800E04FF0040EDF
:10502000724503D21346120438D13FE0034653F8C9
:1050300004CBA2EB0E0294B2C1F800C0744501EBA0
:105040000E0C1FD3A2EB0E0293B24468734541F8D5
:105050000E401DD3A2EB0E0293B2846873450EEB93
:105060004E0341F81E4023D3C468A2EB0E02F44461
:10507000CC5093B2F4440CEB0E01734500F11000D8
:10508000D4D208E06146184693B2120406D10DE06E
:1050900001EB4E01083093B2120407D0006801AA58
:1050A0000190084611461A46FBF75CF902B010BDA4
:1050B0000C30194493B21204F0D1F7E7F0B581B087
:1050C000002B074614BF18780420824204D21346EE
:1050D000100433D13AE000BF0B68121A3C4695B277
:1050E00044F8043B854201EB00031BD3121A95B22E
:1050F0000C5885427C601BD3121A95B251F810608F
:1051000000EB40048542BE6022D3121A03440959C1
:1051100096B20344F9601918864207F11007DBD2F2
:1051200009E000BF1946274693B2100406D10DE0EE
:1051300001EB4001083793B2100407D00020009023
:1051400068461A46FBF70EF90098386001B0F0BDCA
:105150000C37214493B21004F0D1F7E780B582B048
:10516000D1F800C04B6840F29002C2F200024FF04A
:10517000000EC2E900C3C2E902EE0978802222EAE9
:10518000010100220023CDF800E000F085FE02B00E
:1051900080BD0000F0B581B00D684F6840F2900608
:1051A000C2F20006C6E90057CC884FF0000CA342BB
:1051B0002746B260A6F80EC038BF1F46B7816CB153
:1051C00012BB0BB34EF6F050CEF200000068C007E1
:1051D00000D000BE002001B0F0BD00BF09788022E1
:1051E00022EA010100220023CDF800C000F054FEA5
:1051F00060BB4EF6F050CEF200000068C007E9D068
:1052000000BE002001B0F0BD6DB2402F28BF402786
:1052100005F080017BB1B5F1FF3F0CDCD2B106F1A6
:1052200014010546084611463A461C46FBF79AF813
:10523000234628468021002B18BF06F114030026C0
:105240001A463B46009600F027FE18B1012001B037
:10525000F0BD00BF4EF6F050CEF200000068C0076F
:10526000B8D000BE002001B0F0BD000000207047A3
:1052700046F21800C0F600007047000046F27E00BB
:10528000C0F6000070470000002070470020704703
:1052900050B3042884BF00207047B0B525A151F851
:1052A00020E09EF800207AB340F2681C0020C2F291
:1052B000000C00BF0CEB4003D1B259800EEB000292
:1052C000517819B399809478851C0CB3C11C1D2D9D
:1052D000DC801FD8D478ECB104301D291C811AD889
:1052E0001279002AE6D116E040F26810C2F20000FE
:1052F00040F2094141804FF4417140F26810C2F21E
:1053000000000180704700BF022107E0013002E089
:10531000284600E00846022101EB4001032060F32B
:105320001F21BDE8B04040F26810C2F200000180C9
:10533000704700BFE25F0008A5600008A960000890
:10534000A0600008B36000087047000000EB400058
:1053500040F2A811C2F2000101EB8010018F828F90
:10536000C38FD21A48BF02EB4102037B407B92B24B
:10537000C01A8A4238BF114651FA80F070470000C7
:1053800080B500EB400040F2A812C2F2000202EB2E
:10539000801004222830FFF7C9F80438B0FA80F0F2
:1053A000400980BD00EB400040F2A812C2F20002AA
:1053B00002EB8010827C002A04BF00207047B0B549
:1053C00000F1100420460D46FFF742F904280BD3E4
:1053D000204629460422FFF719F928B12046FFF795
:1053E00043F90120B0BD00BF0020B0BD70470000F0
:1053F00040F20000C2F200004FF47A718160704701
:1054000040F22410C2F20000007C002818BF0120E6
:105410007047000080B5FFF7F3FF002840F200005E
:105420004FF0FA01C2F2000018BF4FF47A718160A8
:1054300080BD00002DE9F04740F21406C2F20006DC
:105440003278FF2A02D00120BDE8F087002941D040
:1054500040F22417C2F200078246884607F10C008A
:105460003721FAF7C4FF0020387006F10C00FFF76F
:1054700099F9301D7860781C00F0CCFB7978B86021
:10548000FF293FD045F6F4790025C0F60009002435
:10549000C8B2844204D2B86840B3284402E000BFD6
:1054A000484623D1406808B3804779780134481CC6
:1054B000C0B2844205F12405EAD35046414686F83D
:1054C00000A0FDF797FD48B35046FDF7B5FD01205C
:1054D000BDE8F0874EF6F050CEF200000068C0073D
:1054E00023D0002000BEBDE8F08700BF4EF6F0508C
:1054F000CEF200000068C00717D0002000BEBDE853
:10550000F08700BF4EF6F050CEF200000068C007F2
:105510000BD0002000BEBDE8F08700BF4EF6F05073
:10552000CEF200000068C00702D10020BDE8F0877D
:10553000002000BEBDE8F0877047000040F2000088
:10554000C2F2000040F6C411816070472DE9F04FAF
:1055500087B040F21405C2F200052878FF2800F059
:105560001E8303AE40F2241A301DC2F2000A45F633
:10557000F47B01900AF10C004FF0FF39C0F6000BEC
:105580004FF0000802900DE09DF80C009DF81120EE
:10559000059B00F063FB00BF08F10108B8F1100F94
:1055A00000F0FD826968DAF80440002088472A8903
:1055B00004F1080031460023FFF7CCFA696807467A
:1055C00001208847002F00F0EA829DF80D00013885
:1055D000072800F2DF80DFE800F0054D313929713E
:1055E000B54500BF9AF80100FF2800F0DD809DF866
:1055F0000C70002600240FE0584640F00B81C16873
:10560000384688479AF801000134411CC9B28C42DF
:1056100006F1240680F0C880C0B28442ECD2DAF8E9
:105620000800002800F0F6803044E8E79AF80C0003
:105630000028B1D0FFF7EEFEAEE700BF9AF81200E7
:10564000C007A9D00498FFF777FFA5E79AF80C00E8
:105650000028A1D09AF80F00C0F34000FFF76EFFBA
:105660009AE700BF049900293FF496AF0598884750
:1056700092E700BF9AF80100FF2800F0B1809DF882
:105680000C70002600240FE0584640F0CD80C16821
:10569000384688479AF801000134411CC9B28C424F
:1056A00006F1240680F09C80C0B28442ECD2DAF885
:1056B0000800002800F0B8803044E8E79AF80000BD
:1056C000002800F059829AF8000001388AF800009A
:1056D0009AF8000000287FF45FAF01208AF80C00E0
:1056E0009AF8330000F0FE008AF833009AF833008D
:1056F00000F0FB008AF833009AF8340000F0FE0056
:105700008AF834009AF8340000F0FB008AF834007C
:105710009DF80C70002000F08FFA9DF81020C2F365
:105720004110022800F09680032840F0A3804EF636
:10573000F050CEF200000068C00700F0128200BEF8
:105740000FE200BF9DF8101011F00F000AEB4000AF
:1057500000EBD11292F8333003F0FE0382F83330BD
:1057600092F8333003F0FB0382F833303FF40CAF90
:10577000CA09104490F823009AF8012090425DD2A3
:10578000DAF80820002A00F0038200EBC00002EBE8
:10579000800056E04EF6F050CEF200000068C007E0
:1057A0003FF4FAAE00BEF7E602983721FAF71FFE83
:1057B000CAF82F90CAF82B90CAF82790CAF82390FD
:1057C000CAF81F90CAF81B90CAF81790CAF813902D
:1057D00000F026FA9DF8100003AE8AF81100DBE60F
:1057E00002983721FAF703FECAF82F90CAF82B90D7
:1057F000CAF82790CAF82390CAF81F90CAF81B90DD
:10580000CAF81790CAF8139000F00AFA00F0CEF91F
:1058100003AEC1E64EF6F050CEF200000068C007BD
:10582000D6D000BED4E700BF4EF6F050CEF2000056
:105830000068C007E8D000BEE6E700BF584640F069
:10584000A78187699DF80C009DF81120059BB8473A
:10585000A2E600BF45F6BD30C0F6000000F0ECF94E
:10586000019A3846012100F0A9F900287FF494AE8E
:1058700077E100BF02F01F01022937D001291DD0B6
:10588000002959D101286BD1BDF8140010F0F00F98
:1058900040F0678100F00F005044C07C9AF801107E
:1058A000884280F0A380DAF80810002900F05981BE
:1058B00000EBC00001EB80049BE000BFBDF81400CA
:1058C00010F0F00F40F04D8100F00F005044C07C0C
:1058D0009AF80110884253D2DAF80810002900F033
:1058E000408100EBC00001EB80044CE0BDF81410D7
:1058F00001F00F00082829D20AEB4003C9B203EBDC
:10590000D1139AF8016093F82330DAF808C003EB5A
:10591000C304B3424FF0000308BF5B4638BF0CEB33
:10592000840312F0600F4DD0002B03AE00F01981FC
:1059300058691C465EE000BF4EF6F050CEF2000003
:105940000068C00700F00D8100BE0AE14EF6F0507D
:10595000CEF200000068C00700F0038100BE00E145
:105960009DF8110009284DD8DFE800F006784CA812
:105970004CB4C04C568400BF9AF80F0063E000BFDF
:105980005C4640F0EE80606900F056F96369019A68
:1059900038460121984700287FF4FEAD9DF810009D
:1059A00010F0600F40F0DD80002000F045F99DF818
:1059B00011000B2800F0C4800A2840F0D28000209B
:1059C0002CE000BF9DF81120032A18BF012A2FD117
:1059D000BDF8120003AE002840F09B801C4600205A
:1059E000012A40F0938000F0F5F991E05C4640F028
:1059F000B880606900F020F96369019A3846012196
:105A0000984732E74EF6F050CEF200000068C0072B
:105A100000F0A78000BEA4E09AF8100001998DF86C
:105A20001A0038460DF11A020123FFF7B3FBB3E564
:105A3000002A03AE60D10AEB4000C909084490F87F
:105A40003300C0F340000199ADF81A0038460DF15B
:105A50001A020223FFF79EFB9EE500BFBDF812006D
:105A6000012840F07E809AF80F0000F0FD008AF8CF
:105A70000F0065E09DF812109AF8100088425FD080
:105A800078B1384600910021FDF7AEFC3846FCF7AE
:105A900093FD9AF811403846FCF7E2FC00998AF829
:105AA000114000298AF8101048D03846FEF728FB2C
:105AB00000284BD0FFF79CFC42E000BFBDF812006D
:105AC00001284ED19AF80F0040F002008AF80F002A
:105AD00036E000BF019800F0B5F89DF81210384686
